:100000000C9448240C9488240C9488240C94882400
:100010000C9488240C9488240C9488240C948824B0
:100020000C9488240D94BE4F0D94BE4F0D94BE4F7A
:100030000C9488240C9488240C9488240C94882490
:100040000C9488240C94C9FA0C9488240C94882469
:100050000C9488240C948CF60C9488240D944752AC
:100060000C9488240C9438530C942E530C948824AC
:100070000C9488240C9488240C9488240C94882450
:100080000C94E4400C9488240C9488240C948824C8
:100090000C9488240C9488240C9488240D94545730
:1000A0000C9488240C9488240C94B6400C948824D6
:1000B0000C9488240C9488240C9488240C94882410
:1000C0000C9488240C9488240C9488240C94882400
:1000D0000C9488240C9488240C9488240C948824F0
:1000E0000C948824084AD73B3BCE016E84BCBFFDEC
:1000F000C12F3D6C74319ABD56833DDA3D00C77FF8
:1001000011BED9E4BB4C3E916BAAAABE0000008090
:100110003F05A84CCDB2D44EB93836A9020C50B91F
:10012000918688083CA6AAAA2ABE000000803F004B
:100130000D94283E0D94F84F0D940B500D94DC0651
:100140000D94FB4F0D94533E0D9426500D94015089
:100150000D94AC060D94393E0D94343F0D94090670
:100160000D94853F0D9409510D94F04F0D9421503D
:100170000D94333D0D94273E0D94D13F0D94C4064C
:100180000D944C3E0D94343D0D94CD3F0D946E680E
:100190000D94B1060D942B500D940F5D0D941950D4
:1001A0000D94E1060D940F500D94E23F0D948D06D1
:1001B0000D94A73F0D941D500D94D93F0D94E64F1B
:1001C0000D9427500D94F9050D94C9060D94623FC6
:1001D0000D94F44F0D94293E0D9413500D949906EF
:1001E0000D94EC4F0D94DC3D0D94063D0D942A3E8C
:1001F0000D944C3F0D94C93F0D947F3E0D942C3FC0
:100200000D944F510D9405504E414E494E4954594D
:10021000494E46CDCCCC3D0AD7233C17B7D13877D1
:10022000CC2B329595E6241FB14F0A0000204100E7
:1002300000C84200401C4620BCBE4CCA1B0E5AAE31
:10024000C59D74434F4D4D554E49434154494F4E02
:100250000044525952554E004552524F5253004994
:100260004E464F004543484F004572726F722077EB
:10027000726974696E6720746F20454550524F4D06
:10028000210A005A4153544156454E4F2E200050EA
:1002900072696E7465722073746F70706564206427
:1002A000756520746F206572726F72732E204669B7
:1002B0007820746865206572726F7220616E6420A8
:1002C000757365204D39393920746F2072657374E8
:1002D0006172742E202854656D7065726174757238
:1002E000652069732072657365742E2053657420D0
:1002F00069742061667465722072657374617274CA
:10030000696E67290A004E6F20436865636B7375D9
:100310006D2077697468206C696E65206E756D62FA
:1003200065722C204C617374204C696E653A200014
:100330004E6F20436865636B73756D2077697468D1
:10034000206C696E65206E756D6265722C204C6143
:100350007374204C696E653A2000636865636B7343
:10036000756D206D69736D617463682C204C6173C9
:1003700074204C696E653A20004C696E65204E759C
:100380006D626572206973206E6F74204C617374A6
:10039000204C696E65204E756D6265722B312C2084
:1003A0004C617374204C696E653A20004D313130D8
:1003B0000053657269616C20737461747573206D8C
:1003C00069736D617463680A0053442072656164E7
:1003D000206572726F720A006D41290A00206472F2
:1003E00069766572206F76657274656D706572618D
:1003F00074757265207761726E696E6721202800BE
:100400003A20002063757272656E742064656372B1
:10041000656173656420746F20006D41290A0020B6
:10042000647269766572206F76657274656D706549
:10043000726174757265207761726E696E672120D2
:1004400028003A20006D41290A002064726976650F
:1004500072206F76657274656D7065726174757205
:1004600065207761726E696E67212028003A20004E
:100470002063757272656E74206465637265617362
:10048000656420746F20002063757272656E74203D
:1004900064656372656173656420746F20006D41EB
:1004A000290A0020647269766572206F766572741D
:1004B000656D7065726174757265207761726E69C1
:1004C0006E67212028003A20002063757272656EE5
:1004D000742064656372656173656420746F2000C5
:1004E0006D41290A0020647269766572206F766515
:1004F0007274656D70657261747572652077617272
:100500006E696E67212028003A20006D41290A009B
:1005100020647269766572206F76657274656D709D
:1005200065726174757265207761726E696E67219C
:100530002028003A20004B494C4C20627574746F9F
:100540006E2F70696E0A002121204B494C4C2063AC
:1005500061757365642062792000746F6F206D751A
:10056000636820696E6163746976652074696D657E
:10057000202D2063757272656E7420636F6D6D61DE
:100580006E643A20002121204B494C4C2063617558
:100590007365642062792000627573793A20706116
:1005A0007573656420666F7220696E7075740A00D9
:1005B000627573793A2070617573656420666F7235
:1005C00020757365720A00627573793A2070726FD4
:1005D00063657373696E670A004DC3A96469756DBD
:1005E0002076796A6D75746F004DC3A96469756D65
:1005F00020766C6FC5BE656E6F004D36303020546E
:100600002563002066696C616D656E745F72756E3E
:100610006F7574200066696C616D656E745F7275CC
:100620006E6F757420540050726F7665C48F746558
:10063000207265736574005449534B2E205A415300
:10064000544156454E410025533A20255300706FC2
:100650007765726F66660050C59845525553454E92
:100660004F2E20005072696E7465722068616C7440
:1006700065642E206B696C6C28292063616C6C6545
:1006800064210A00006563686F3A004572726F72F8
:100690003A0066616C736500747275650042696C3E
:1006A000696E656172204C6576656C696E6720477E
:1006B0007269643A0A002F2F616374696F6E3A00A1
:1006C000486F74656E6420746F6F20636F6C640A8A
:1006D000002568753A253032687500253032687516
:1006E0003A2530326875002530326875272530325A
:1006F000687500256875642025303268753A2530A4
:1007000032687500447269766572206572726F7224
:1007100000636F696C2073686F7274206369726321
:100720007569740A006F76657274656D70657261C3
:10073000747572650A00206472697665722065724C
:10074000726F722064657465637465643A203078F2
:10075000004C4F570048494748004F4B00457272C4
:100760006F723A20416C6C200020636F6E6E65637F
:1007700074696F6E2E2E2E200054657374696E6737
:1007800020004C4F570048494748004F4B004572E6
:10079000726F723A20416C6C200020636F6E6E6540
:1007A0006374696F6E2E2E2E200054657374696E0B
:1007B0006720004C4F570048494748004F4B0045C1
:1007C00072726F723A20416C6C200020636F6E6E03
:1007D000656374696F6E2E2E2E20005465737469E4
:1007E0006E6720004C4F570048494748004F4B0068
:1007F0004572726F723A20416C6C200020636F6EFC
:100800006E656374696F6E2E2E2E200054657374AE
:10081000696E6720004C4F570048494748004F4BCE
:10082000004572726F723A20416C6C200020636F39
:100830006E6E656374696F6E2E2E2E200054657384
:1008400074696E6720004C4F570048494748004F75
:100850004B004572726F723A20416C6C200020632D
:100860006F6E6E656374696F6E2E2E2E2000546558
:100870007374696E672000544D43204348594241C8
:100880002053504F4A454EC38D004F46460A0046FE
:10089000616465204865696768742000426564206A
:1008A0004C6576656C696E6720004661696C6564AD
:1008B00020746F20656E61626C6520426564204C17
:1008C0006576656C696E670A00496E76616C69646D
:1008D000206D6573682E0A004DC49BC599656EC373
:1008E000AD20626F64750025532025692F256900AE
:1008F0002E0A002F0050726F62696E67206D65735B
:100900006820706F696E7420002028445259525537
:100910004E2900473239204175746F2042656420AA
:100920004C6576656C696E67003F20284C2C522C14
:10093000462C4229206F7574206F6620626F756E99
:1009400064732E0A003F2856296572626F73652012
:100950006C6576656C20696D706C61757369626C2D
:10096000652028302D34292E0A00426164205A2047
:1009700076616C75650A004E6F2062696C696E6500
:10098000617220677269640A0020440020204D32A1
:10099000303020540020204D3230302053002028A9
:1009A00044697361626C6564293A0046696C616DE3
:1009B000656E742073657474696E67730020204DD2
:1009C0003230312058004D617820416363656C6599
:1009D000726174696F6E2028756E6974732F73323B
:1009E000290020204D3230332058004D6178206698
:1009F00065656472617465732028756E6974732F00
:100A000073290020520020204D3230342050004104
:100A10006363656C65726174696F6E2028756E69B9
:100A200074732F7332292028503C7072696E742DB4
:100A3000616363656C3E20523C72657472616374DD
:100A40002D616363656C3E20543C74726176656C05
:100A50002D616363656C3E2900204A00205400200C
:100A6000530020204D323035204200416476616EC3
:100A70006365642028423C6D696E5F7365676D65D0
:100A80006E745F74696D655F75733E20533C6D696C
:100A90006E5F66656564726174653E20543C6D6985
:100AA0006E5F74726176656C5F66656564726174B1
:100AB000653E204A3C6A756E635F6465763E290038
:100AC00020204D32313700546F6F6C2D6368616E9A
:100AD00067696E670020204D323138205400486F1E
:100AE00074656E64206F66667365747300204400DD
:100AF00020490020204D333031205000486F74656C
:100B00006E64205049440020204D61783A20002036
:100B10000020204D696E3A2000203B200020204D0F
:100B2000323131205300536F667420656E647374E4
:100B30006F7073007061757365640048656164204F
:100B400063616E6E6F74206265207061726B6564A4
:100B50000052656865617420446F6E650052656877
:100B6000656174696E672E2E2E0050726573732056
:100B7000627574746F6E20746F2068656174206E86
:100B80006F7A7A6C650A00726573756D6564002012
:100B90003B00205500204C0020204D36303320549F
:100BA0000046696C616D656E74206C6F61642F75B1
:100BB0006E6C6F6164007370726561644379636C1D
:100BC0006500737465616C746843686F70002064BD
:100BD0007269766572206D6F64653A090073707290
:100BE0006561644379636C6500737465616C7468F6
:100BF00043686F700020647269766572206D6F645F
:100C0000653A09007370726561644379636C6500CD
:100C1000737465616C746843686F700020647269F6
:100C2000766572206D6F64653A0900737072656154
:100C3000644379636C6500737465616C74684368C0
:100C40006F700020647269766572206D6F64653A1A
:100C500009007370726561644379636C6500737435
:100C600065616C746843686F7000206472697665B2
:100C700072206D6F64653A09007370726561644338
:100C800079636C6500737465616C746843686F7038
:100C90000020647269766572206D6F64653A0900A0
:100CA00020204D3536392053310020647269766535
:100CB000722063757272656E743A200020647269E6
:100CC0007665722063757272656E743A20002064D6
:100CD00072697665722063757272656E743A20006F
:100CE000206472697665722063757272656E743AFB
:100CF0002000206472697665722063757272656E79
:100D0000743A20002064726976657220637572728D
:100D1000656E743A200020204D3930360020707204
:100D2000657761726E20666C616720636C656172C5
:100D300065640A00207072657761726E20666C616E
:100D40006720636C65617265640A00207072657764
:100D500061726E20666C616720636C6561726564A8
:100D60000A00207072657761726E20666C61672080
:100D7000636C65617265640A0020707265776172E8
:100D80006E20666C616720636C65617265640A0041
:100D9000207072657761726E20666C616720636C8B
:100DA00065617265640A00202E68737472743A205B
:100DB00000202E68656E643A20002063686F7070B2
:100DC0006572202E746F66663A2000202E68737458
:100DD00072743A2000202E68656E643A2000206309
:100DE000686F70706572202E746F66663A200020FE
:100DF0002E68737472743A2000202E68656E643A0F
:100E000020002063686F70706572202E746F6666B4
:100E10003A2000202E68737472743A2000202E68E5
:100E2000656E643A20002063686F70706572202ED2
:100E3000746F66663A2000202E68737472743A20CC
:100E400000202E68656E643A20002063686F707021
:100E50006572202E746F66663A2000202E687374C7
:100E600072743A2000202E68656E643A2000206378
:100E7000686F70706572202E746F66663A20003F4E
:100E800053206F7574206F662072616E676520282D
:100E9000312E2E38290A003F50206F7574206F665E
:100EA0002072616E676520282D332E2E3132290A7B
:100EB000003F4F206F7574206F662072616E67650A
:100EC0002028312E2E3135290A003B200020496E82
:100ED00076616C696420657874727564657220004F
:100EE000557370C3A16E6F2E2E2E005A2050726F54
:100EF00062652050617374204265640A00536F6E0E
:100F00006461205A206D696D6F20706F646C0053AE
:100F10006F6E6461205A206D696D6F20706F646C14
:100F2000005A2050726F62652050617374204265D0
:100F30006400205A3A200020593A2000426564207B
:100F4000583A20004D65736820706F696E74206F89
:100F50007574206F662072616E67650A00C48C65C7
:100F60006BC3A16EC3AD206E612075C5BE69762EC0
:100F70002E2E00C5BDC3A1646EC3BD20706F6879FD
:100F8000622E00456E642066696C65206C6973741E
:100F90000A00426567696E2066696C65206C69733A
:100FA000740A004E6F206D656469610A0070617596
:100FB000736500286E6F2066696C65290043757241
:100FC00072656E742066696C653A20004E6F7420FD
:100FD0005344207072696E74696E670A005344202E
:100FE0007072696E74696E67206279746520002E74
:100FF0000A0044656C6574696F6E206661696C6592
:10100000642C2046696C653A200046696C65206452
:10101000656C657465643A005072696E7420746919
:101020006D653A20000A53746174733A2046696C06
:10103000616D656E7420757365643A20002C204CD8
:101040006F6E67657374206A6F623A2000546F7424
:10105000616C2074696D653A200053746174733A51
:1010600020002C204661696C65643A20002C2046E3
:10107000696E69736865643A20005072696E7473B2
:101080003A200053746174733A20006F6B006F66EE
:10109000660064025F025802510243024445425511
:1010A000473A004D3131322053687574646F776E62
:1010B000004D31313320530052756D6261204F462F
:1010C000462E002F2F004D31343520533C696E647D
:1010D00065783E206F7574206F662072616E67655B
:1010E0002028302D31290A003F4A206F7574206F67
:1010F000662072616E67652028302E303120746F53
:1011000020302E33290A00250A0046523A00204694
:101110006C6F773A20003A200020536572766F207A
:1011200000206F7574206F662072616E67650A001B
:10113000536572766F200042616279737465702026
:101140005A0050726F6265204F6666736574205A4C
:101150000050726F6265204F6666736574205A0096
:10116000496E76616C696420657874727564657225
:101170000A0064697300656E0043290A0061626CAD
:10118000656420286D696E2074656D702000436F62
:101190006C64206578747275646573206172652073
:1011A000004F4646004F4E00203B20486F7374208E
:1011B00068616E646C696E6720006D6D00203B2075
:1011C00044697374616E6365200046696C616D6586
:1011D0006E742072756E6F757420004D343231203C
:1011E000696E636F727265637420706172616D65A0
:1011F0007465722075736167650A004D65736820B8
:10120000706F696E74206F7574206F662072616EE6
:1012100067650A004F6673657479206E6173746147
:1012200076656E79004572723A20546F6F20666160
:10123000722100546F6F206661722066726F6D209C
:101240007265666572656E636520706F696E740A9B
:1012500000454550524F4D204F4B0A002074656D9C
:101260007065726174757265207072657761726EF7
:10127000207472696767657265643A20002074653E
:101280006D706572617475726520707265776172D8
:101290006E207472696767657265643A2000207415
:1012A000656D7065726174757265207072657761C5
:1012B000726E207472696767657265643A200020F7
:1012C00074656D7065726174757265207072657792
:1012D00061726E207472696767657265643A200096
:1012E0002074656D706572617475726520707265C9
:1012F0007761726E207472696767657265643A20FF
:10130000002074656D70657261747572652070720D
:10131000657761726E207472696767657265643A99
:10132000200020204D323036205800486F6D652057
:101330006F6666736574004361703A00434F4E46B2
:1013400049475F4558504F5254004D454154504114
:10135000434B00434F4F4C45525F54454D5045520F
:101360004154555245004348414D4245525F544512
:101370004D504552415455524500424142595354F3
:10138000455050494E470041524353004D4F544938
:101390004F4E5F4D4F44455300544845524D414CCC
:1013A0005F50524F54454354494F4E0045585445A1
:1013B0004E4445445F4D323000435553544F4D5FCA
:1013C0004649524D574152455F55504C4F4144009C
:1013D0004C464E5F5752495445004C4F4E475F466E
:1013E000494C454E414D45004155544F5245504F93
:1013F00052545F53445F5354415455530053445F18
:10140000575249544500524550454154004D554CA2
:1014100054495F564F4C554D450053444341524447
:101420000050524F4D50545F535550504F5254003E
:10143000484F53545F414354494F4E5F434F4D4DC6
:10144000414E445300454D455247454E43595F5028
:10145000415253455200434153455F4C494748541C
:101460005F4252494748544E45535300544F4747F3
:101470004C455F4C494748545300534F46545741DD
:1014800052455F504F574552004255494C445F50BA
:10149000455243454E54004C4556454C494E475FD6
:1014A00044415441005A5F50524F42450052554EFC
:1014B0004F5554004155544F4C4556454C005052E1
:1014C000494E545F4A4F420050524F475245535382
:1014D000004155544F5245504F52545F54454D5062
:1014E000004155544F5245504F52545F504F530096
:1014F000564F4C554D455452494300454550524F67
:101500004D0042494E4152595F46494C455F545245
:10151000414E534645520053455249414C5F584F46
:101520004E5F584F4646004649524D574152455F1F
:101530004E414D453A4D61726C696E20322E312E0E
:10154000322E3120284A756E203235203230323327
:101550002031393A32323A34332920534F555243ED
:10156000455F434F44455F55524C3A67697468750F
:10157000622E636F6D2F4D61726C696E4669726D7C
:10158000776172652F4D61726C696E2050524F54B5
:101590004F434F4C5F56455253494F4E3A312E30D0
:1015A000204D414348494E455F545950453A527584
:1015B0006D62612045585452554445525F434F5522
:1015C0004E543A3220555549443A63656465326158
:1015D00032662D343161322D343734382D39623151
:1015E000322D6335356336326633363766660047EB
:1015F000322F47332062616420706172616D6574BF
:101600006572730A00290A0020746F20003F5A2077
:101610006F7574206F662072616E676520280029DF
:101620000A0020746F20003F59206F7574206F6688
:101630002072616E676520282D00290A0020746FD2
:1016400020003F58206F7574206F662072616E67AE
:101650006520282D00203B0020204D3835312058B2
:10166000005A2D50726F6265204F66667365740074
:101670004D383400446F6E65207072696E74696E07
:10168000672066696C650A004D3737004D333100BD
:101690002569730025696D20256973002569682017
:1016A00025696D20256973002569642025696820F6
:1016B00025696D20256973002569792025696420D5
:1016C0002569682025696D202569730043686C6170
:1016D0007A656EC3AD2E2E2E00452563202553005E
:1016E00020573A0043686C617A656EC3AD20706F15
:1016F000646C6FC5BE6B79005A6168C599C3AD76DD
:10170000C3A16EC3AD20706F646C6FC5BE6B7900F2
:1017100020573A0043686C617A656EC3AD206B6FE9
:101720006D6F72792E2E2E005A6168C599C3AD7601
:10173000C3A16EC3AD206B6F6D6F72792E2E2E001C
:10174000206661696C65642120426164206865617E
:101750007465722069640A00504944204175746FB1
:1017600074756E650023646566696E652044454640
:1017700041554C545F004B6420004B6920004B7076
:1017800020002066696E6973686564212050757455
:1017900020746865206C617374204B702C204B6939
:1017A00020616E64204B6420636F6E7374616E748D
:1017B000732066726F6D2062656C6F7720696E743E
:1017C0006F20436F6E66696775726174696F6E2E04
:1017D000680A00504944204175746F74756E650045
:1017E000206661696C6564212074696D656F75742C
:1017F0000A00504944204175746F74756E6500206D
:101800006661696C6564212054656D7065726174F0
:1018100075726520746F6F20686967680A005049A7
:1018200044204175746F74756E65005049442043BF
:1018300079636C65730025532025692F2569002085
:101840004B643A2000204B693A2000204B703A202C
:101850000020436C617373696320504944200A007F
:101860002054753A2000204B753A2000206D617895
:101870003A2000206D696E3A200020643A20002052
:10188000626961733A20005A6168C599C3AD76C335
:10189000A16EC3AD2E2E2E002073746172740A00E7
:1018A000504944204175746F74756E6500206661FF
:1018B000696C6564212054656D7065726174757220
:1018C0006520746F6F20686967680A00504944207A
:1018D0004175746F74756E6500504944206175746C
:1018E0006F6D6174696B61004572723A2075746640
:1018F0003820666F6E74206E6F7420696E6974692B
:10190000616C697A65642E004572723A207574665E
:101910003820666F6E74206E6F7420696E6974690A
:10192000616C697A65642E004572723A207574663E
:101930003820666F6E74206E6F7420696E697469EA
:10194000616C697A65642E0002008C8D2F00E91AA3
:1019500002008F8F2100C81A02009A9B2F00991A4B
:101960000200C8C81F007A1A0200D8D92F004B1AEB
:101970000200E0E12F001C1A0200E5E52100FB193E
:101980000200EFEF1F00DC190200FDFE2F00AD1971
:101990002000200020003A003A00506F646C6FC5B0
:1019A000BE6B61004B6F6D6F7261004500000C0FE4
:1019B00000FE0000000000FDFE000A000000050A15
:1019C0000A060000502000F80810204080F80508A2
:1019D00008060000502000F8102040F8000C0F000E
:1019E000FE0000000000EFEF0008000000050808FE
:1019F0000600002050208888888870000C0F00FEA8
:101A00000000000000E5E5000A000000050A0A06E3
:101A100000005020002020F820202018000C0F008B
:101A2000FE0000000000E0E1000A000000050A0AD4
:101A30000600005020007088807008887005080833
:101A400006000050200078807008F0000C0F00FEA7
:101A50000000000000D8D9000A000000050A0A06AC
:101A60000000502000F08888F0A090880508080643
:101A70000000502000B0C8808080000C0F00FE00E5
:101A800000000000C8C800080000000508080600A3
:101A900000502000B0C8888888000C0F00FE0000AD
:101AA0000000009A9B000A000000050A0A060000D8
:101AB000502000F88080F08080F8050808060000BB
:101AC0005020007088F08070000C0F00FE000000B5
:101AD00000008F8F000A000000060A0A06000014AA
:101AE000080008087888888878000C0F00FE00003D
:101AF0000000008C8D000A000000050A0A060000A4
:101B000050200070888080808870050808060000DA
:101B10005020007088808870000C0F00FE0702259E
:101B200003BB01FFFE0AFE08FE0508080600004090
:101B3000F0C88888987810050808060000C0F88862
:101B400088888888F80505050600012030F83020CF
:101B50000508080600002070F820202020E0050974
:101B6000090600FF2070A8A8B8888870200705051E
:101B7000070001D86C366CD80509090600FFF8A8E3
:101B80008888888888A8F8050A0A0600FE20505030
:101B9000505088A8A8887003030306000340A040A3
:101BA000FFFFFFFFFFFFFFFFFFFFFFFFFFFFFFFF45
:101BB000FFFFFFFFFFFF0000000605FF010707060C
:101BC000020080808080800080030303060105A05E
:101BD000A0A005060606000050F85050F850050970
:101BE000090600FF2070A8A07028A870200507072C
:101BF000060000C8C8102040989805070706000096
:101C000040A0A040A89068010303060205808080E0
:101C10000309090601FF20404080808040402003E6
:101C200009090601FF804040202020404080050730
:101C30000706000020A8702070A8200505050600F2
:101C4000012020F820200203030601FFC040800588
:101C50000101060003F8020202060100C0C00507E8
:101C60000706000008101020404080050707060006
:101C700000708898A8C8887003070706010040C054
:101C800040404040E005070706000070880810202B
:101C900040F8050707060000F808103008887005AE
:101CA000070706000010305090F8101005070706CF
:101CB0000000F880F008088870050707060000306B
:101CC0004080F0888870050707060000F8081010AB
:101CD000202020050707060000708888708888701B
:101CE000050707060000708888780810600205055F
:101CF000060100C0C000C0C00206060601FFC0C049
:101D000000C04080030505060101204080402005F9
:101D10000303060002F800F80305050601018040F0
:101D20002040800507070600007088102020002052
:101D30000507070600007088B8A8B8807005070777
:101D4000060000708888F888888805070706000064
:101D5000F04848704848F005070706000070888082
:101D600080808870050707060000F048484848480A
:101D7000F0050707060000F88080F08080F805076E
:101D800007060000F88080F08080800507070600C5
:101D90000070888080988870050707060000888892
:101DA00088F8888888030707060100E04040404023
:101DB00040E005070706000038101010109060057D
:101DC00007070600008890A0C0A0908805070706B6
:101DD0000000808080808080F8050707060000886A
:101DE000D8A8888888880507070600008888C8A8BA
:101DF000988888050707060000708888888888709A
:101E0000050707060000F08888F080808005070736
:101E100006000070888888A89068050707060000FB
:101E2000F08888F0A0908805070706000070888079
:101E300070088870050707060000F8202020202081
:101E400020050707060000888888888888700507AD
:101E5000070600008888888850502005070706007C
:101E60000088888888A8A850050707060000888889
:101E700050205088880507070600008888502020D9
:101E80002020050707060000F80810204080F8030E
:101E900009090601FFE080808080808080E00507DE
:101EA00007060000804040201010080309090601C1
:101EB000FFE020202020202020E00503030600056D
:101EC0002050880501010600FEF803030306010502
:101ED0008040200505050600007008788878050711
:101EE000070600008080F0888888F0050505060058
:101EF0000070808088700507070600000808788851
:101F00008888780505050600007088F08070050750
:101F100007060000304840E0404040050707060043
:101F2000FE708888887808700507070600008080A2
:101F3000F0888888880307070601004000C04040F9
:101F400040E00409090601FE100030101010109046
:101F50006005070706000080808890E090880307EE
:101F600007060100C04040404040E005050506006E
:101F700000D0A8A8A8A8050505060000B0C8888854
:101F80008805050506000070888888700507070623
:101F900000FEF0888888F080800507070600FE783C
:101FA000888888780808050505060000B0C8808084
:101FB0008005050506000078807008F00507070613
:101FC00000002020F82020201805050506000088C4
:101FD00088889868050505060000888888502005CF
:101FE00005050600008888A8A8500505050600001C
:101FF00088502050880507070600FE8888885020F2
:102000004080050505060000F8102040F803090986
:102010000601FF2040404080404040200109090661
:1020200002FF808080808080808080030909060113
:10203000FF804040402040404080050303060002EE
:1020400048A890FFFFFFFFFFFFFFFFFFFFFFFFFF1D
:10205000FFFFFFFFFFFFFFFFFFFFFFFFFFFFFFFF90
:10206000FFFFFFFF0000000605FF01070706020053
:10207000800080808080800507070600FF2070A810
:10208000A0A87020050707060000304840E040483F
:10209000B0050505060000A8508850A805070706EA
:1020A00000008850F820F820200107070602008071
:1020B00080800080808004080806010070806090A5
:1020C000906010E0030101060107A0060707060063
:1020D000007884B4A4B4847803050506010460A0E4
:1020E0006000E00505050600002850A05028050303
:1020F00003060001F80808030101060103E00607D2
:10210000070600007884B4A4A484780501010600C1
:1021100007F80404040601056090906005070706AF
:1021200000002020F8202000F803050506010440E7
:10213000A02040E0030505060104C0204020C003A4
:1021400003030601052040800507070600FE888876
:102150008898E8808005080806000078E8E8E868C4
:10216000282828020202060203C0C0030202060158
:10217000FE20C003050506010440C04040E0030501
:102180000506010540A04000E0050505060000A089
:10219000502850A0050A0A06000040C04850605070
:1021A000B0507810050A0A06000040C04850605040
:1021B000A8081038050A0A060000C0204830E05080
:1021C000B050781005070706000020002020408846
:1021D00070050A0A060000402000708888F8888888
:1021E00088050A0A060000102000708888F8888890
:1021F00088050A0A060000205000708888F8888840
:1022000088050A0A06000068B000708888F8888887
:10221000880509090600005000708888F8888888B9
:10222000050A0A060000205020708888F8888888EF
:1022300005070706000078A0A0F0A0A0B8050909CE
:102240000600FE708880808088701060050A0A068B
:102250000000402000F88080F08080F8050A0A061F
:102260000000102000F88080F08080F8050A0A063F
:102270000000205000F88080F08080F805090906F1
:1022800000005000F88080F08080F8030A0A060100
:1022900000804000E04040404040E0030A0A060160
:1022A00000204000E04040404040E0030A0A0601B0
:1022B0000040A000E04040404040E0030909060122
:1022C00000A000E04040404040E005070706000055
:1022D000704848E8484870050A0A06000068B000DF
:1022E0008888C8A8988888050A0A06000040200047
:1022F00070888888888870050A0A06000010200007
:1023000070888888888870050A0A060000205000B6
:1023100070888888888870050A0A06000068B000FE
:102320007088888888887005090906000050007048
:102330008888888888700505050600018850205027
:10234000880509090600FF087098A8A8A8C8708029
:10235000050A0A060000402000888888888888705E
:10236000050A0A060000102000888888888888707E
:10237000050A0A060000205000888888888888702E
:10238000050909060000500088888888888870053B
:102390000A0A06000010200088885020202020040F
:1023A000070706010080E0909090E080050707068F
:1023B0000000708890A09088B005080806000040D2
:1023C00020007008788878050808060000102000B2
:1023D000700878887805080806000020500070080A
:1023E00078887805080806000068B00070087888CA
:1023F00078050707060000500070087888780508FF
:102400000806000020502070087888780505050629
:102410000000702870A0780507070600FE7088800D
:10242000887010600508080600004020007088F0E1
:1024300080700508080600001020007088F0807089
:102440000508080600002050007088F0807005071D
:102450000706000050007088F0807003080806012D
:1024600000804000C0404040E00308080601002012
:102470004000C0404040E003080806010040A000C2
:10248000C0404040E0030707060100A000C04040F4
:1024900040E0050909060000502050087888888827
:1024A0007005080806000068B000B0C88888880574
:1024B0000808060000402000708888887005080819
:1024C0000600001020007088888870050808060043
:1024D0000020500070888888700508080600006891
:1024E000B0007088888870050707060000500070EB
:1024F000888888700505050600012000F800200581
:1025000005050600007898A8C8F005080806000030
:102510004020008888888870050808060000102080
:102520000088888888700508080600002050008808
:10253000888888700507070600005000888888880A
:1025400070050A0A0600FE10200088888850204086
:10255000800509090600FE8080F0888888F0808068
:102560000509090600FE5000888888502040801F19
:10257000E020102310249010A011202210241037E6
:10258000B00840048003001FE02010211023101524
:102590002011202110211031300840048003001F39
:1025A000E03FF03CF03B701F601EE03DF03BF03838
:1025B000700FC0078003001FE03FF03EF03CF01AB0
:1025C000E01EE03EF03EF03EF00FC00780030056F4
:1025D0005953554E5554C38D2046494C414D454E97
:1025E0005455005A41564544454EC38D2046494CEA
:1025F000414D454E54550056C39D4DC49A4E412001
:1026000046494C414D454E54550041425300504CB3
:102610004100200025002020202020202000202014
:1026200020200020202020202020006572720087BA
:10263000256F25B7259F253FFFF038007030FC300F
:1026400020FC102078102030102C00D02E31D02FFC
:102650007BD02F7BD02E31D02C00D0203010207892
:102660001020FC1030FC303800703FFFF03FFFF0CE
:102670003800703186302387102787902F87D02F1E
:1026800003D02030102078102078102030102F0335
:10269000D02F87D02787902387103186303800705D
:1026A0003FFFF01FFFF8100008100008100008108E
:1026B00000081000081000081000081000081000A2
:1026C000081FFFF81FFFF81FFFF81000081084080C
:1026D0001042081042081084081108081108081058
:1026E00084081000081FFFF81FFFF81FFFF81FFFE6
:1026F000F80410400208200208200410400820803E
:102700001041001041000820800410400000001F0C
:10271000FFF81FFFF8256C6425636D0063616E632D
:10272000656C005469736B207A7275C5A1656E0083
:102730004D32350050617573696E672E2E2E007212
:102740006573756D65004D3234003F0049676E6FEB
:10275000726500526573657400496E69632E204589
:102760004550524F4D005A206F667365740044C344
:10277000A96C6B61206D6D2073656E7A2E66696C35
:102780002E005A6176C3A973742066696C616D6509
:102790006E74202A005A6176C3A97374206D6D008F
:1027A000567973756E6F75742066696C616D656EB0
:1027B00074202A00567973756E6F7574206D6D00E4
:1027C00046696C2E205072756D2E202A0046696C69
:1027D0002E205072756D2E0045206E61206D6DC2E9
:1027E000B30020082066616B74002008206D6178BA
:1027F000002008206D696E00567970005A617000E3
:102800004175746F7465706C6F74610056547261B9
:1028100076204D696E00566D696E004D61782040DE
:1028200020527963686C6F7374004D617820452085
:10283000416B63656C004D6178204020416B63659E
:102840006C00412D70C599656A657A6400412D72EE
:10285000657472616B74005A727963686C005A20F7
:102860006F667365740050726F62652059204F6601
:10287000667365740050726F62652058204F6666FB
:102880007365740040206B726F6BC5AF2F6D6D0068
:1028900044616CC5A1C3AD206E6173746176656ED1
:1028A000C3AD003F005A7275C5A1697400496E69D5
:1028B0006369616C697A616365004D34323800493F
:1028C0006E69632E20454550524F4D0046696C613C
:1028D0006D656E74005465706C6F746100544D4387
:1028E0002062756469C48D65004B726F6BC5AF2F34
:1028F0006D6D0050726F6265204F6666736574730C
:10290000004F646368796C6B612073706F6A650057
:10291000416B63656C6572616365004D617820523F
:102920007963686C6F7374004E6173746176697457
:10293000206F6673657479004B6F6E666967757298
:10294000616365005A64766968205A00322E2074EB
:102950007279736B6120400053572076C3BD737545
:102960006E20424C546F75636800424C546F75631F
:1029700068207A6173756E6F757400424C546F7580
:10298000636820767973756E6F757400424C546F6E
:102990007563682073656C662D7465737400424CB2
:1029A000546F75636820726573657400506F646C52
:1029B0006FC5BE6B6100547279736B6100527963AD
:1029C000686C6F73742076656E742E004B6F6E6644
:1029D00069677572616365004D3230332058353058
:1029E000205935300A446F6E6521004D3230332056
:1029F000583630205936300A446F6E6521004E6FCC
:102A0000726D616C20737065656400536C6F772024
:102A10007370656564004F626E6F7669742076C36B
:102A2000BD63686F7AC3AD004E61C48DC3AD73746E
:102A3000206E6173746176656EC3AD00556C6FC5B1
:102A4000BE6974206E6173746176656EC3AD005AA1
:102A50006168C599C3A1742024206E617374005607
:102A60007970005A61700053656E7A6F72206669E2
:102A70006C616D656E74750056C3BD6DC49B6E61EF
:102A8000206EC3A17374726F6A6500424C546F75F7
:102A90006368004F6673657479206EC3A1737472A6
:102AA0006F6AC5AF005A206F667365740044616C2D
:102AB000C5A1C3AD206E6173746176656EC3AD0050
:102AC00055736572206D656E7500486C61766EC3D6
:102AD000AD206E6162C3AD646B61004D3730322052
:102AE000542564004D363030204230205425640097
:102AF0004D373032203B2564004D3730312054258E
:102B0000640056796DC49B6E69742066696C616D52
:102B1000656E7400567973756E6F75742066696C96
:102B2000616D656E74005A6176C3A973742066691D
:102B30006C616D656E74005A6168C599C3A174209B
:102B4000766C6173746EC3AD005A6168C599C3A198
:102B5000742024005A70C49B7400567973756E6F8C
:102B600075742066696C616D656E74202A005A6107
:102B700076C3A973742066696C616D656E74202AD2
:102B80000056796DC49B6E69742066696C616D65D1
:102B90006E74202A00486C61766EC3AD206E61624F
:102BA000C3AD646B61004F626E6F766974207469A7
:102BB000736B00567970005A61700053656E7A6FBE
:102BC000722066696C616D656E7475005679746CFF
:102BD00061C48D69742076C3AD63004D4FC5BD4E91
:102BE0004F535449204F424E4F56454EC38D3A00E5
:102BF0005449534B20504F5A4153544156454E006F
:102C00002F0020002020547279736B613A2000500D
:102C100061726B6F76C3A16EC3AD2E2E2E000000C5
:102C2000C48C656B656A74652070726F73C3AD6D1B
:102C3000006E61207A6168C3A16A656EC3AD0076DB
:102C4000C3BD6DC49B6E792066696C616D656E74E1
:102C50007500C48C656B656A74652070726F73C390
:102C6000AD6D006E6120767973756E75746900665E
:102C7000696C616D656E747500C48C656B656A7492
:102C8000652070726F73C3AD6D006E61206E6168F8
:102C9000C599C3A174C3AD2074722E00004B6C693A
:102CA0006B6EC49B74652070726F006E6168C5990D
:102CB000C3A174C3AD20747279736B790000566C34
:102CC0006FC5BE74652066696C616D656E74006168
:102CD00020737469736B6EC49B746500746C61C4FB
:102CE0008DC3AD746B6F2E2E2E00C48C656B656A20
:102CF00074652070726F73C3AD6D006E61207A6170
:102D0000766564656EC3AD0066696C616D656E74F1
:102D100075005374696B6EC49B746520746C61C4D8
:102D20008DC3AD746B6F0070726F206F626E6F76C3
:102D3000656EC3AD207469736B750000C48C656BE0
:102D4000656A74652070726F73C3AD6D006E61202B
:102D5000706F6B7261C48D6F76C3A16EC3AD00746A
:102D600069736B75005679C48D6B656A7465206EE6
:102D700061007679746C61C48D656EC3AD00004DE1
:102D800037303220542569004D37303120542569C1
:102D9000004D36303020423020542569003E20005E
:102DA000256C642E25696D0043656C6B656D20761E
:102DB00079746C61C48D656E6F003E20004E656A4B
:102DC00064656CC5A1C3AD207469736B003E2000BF
:102DD00043656C6B6F76C3BD20C48D617300446F17
:102DE0006B6F6EC48D656E6F003A2000506FC48D9E
:102DF0006574207469736BC5AF003A2000393000E8
:102E000035004348414D3A20415443203130344746
:102E1000542D32003135300035004245443A2045CA
:102E200050434F53203130304B003238350035009D
:102E300045323A204154432031303447542D32003A
:102E4000536C65646F76C3A16EC3AD20C3BA6E695F
:102E50006B753A205A4150005465706C6F74612054
:102E60006D617800323835005465706C6F74612084
:102E70006D696E00350045313A20415443203130B0
:102E80003447542D32004E61702E207A64726F6A7E
:102E90000047656E657269630050726F746F6B6F87
:102EA0006C00312E3000527963686C6F737400319E
:102EB00031353230300052756D62610042696C69A3
:102EC0006E65C3A1726EC3AD20726F766EC3A16EC4
:102ED000C3AD00457874727564C3A972790032007D
:102EE0006D61726C696E66772E6F72670052756DD8
:102EF000626100323032332D30352D313600322EC2
:102F0000312E322E31004D61726C696E0053746146
:102F100074697374696B61005465726D6973746F61
:102F2000727900496E666F206F2064657363650077
:102F3000496E666F206F207469736BC3A1726EC493
:102F40009B00486C61766EC3AD206E6162C3AD6458
:102F50006B61003F005A70C49B740053746F700023
:102F600056796DC49B6E69742066696C616D656E7F
:102F70007400C5BDC3A1646EC3A1205344206B611E
:102F8000727461005469736B6E6F7574207A20538C
:102F9000440056796DC49B6E6974206DC3A9646941
:102FA000756D004D3231004F207469736BC3A1728F
:102FB0006EC49B004B6F6E666967757261636500D6
:102FC0005465706C6F746100506F687962004F6275
:102FD0006E6F766974207469736B00446F6C616402
:102FE000C49B6EC3AD207469736B75005A617374B2
:102FF00061766974207469736B00506F7A617374C1
:1030000061766974207469736B00496E666F206F16
:103010006272617A6F766B61003F005370757374F2
:103020006974207469736B005A7275C5A169740064
:103030005469736B0043616E6E6F7420656E7465C6
:1030400072207375626469723A200002202E2E008D
:10305000486C61766EC3AD206E6162C3AD646B6116
:1030600000506F73756E6F7574206F20246D6D0046
:10307000302E30323500506F73756E6F7574206F5F
:1030800020302C316D6D00506F73756E6F7574202C
:103090006F20316D6D00506F73756E6F7574206F9A
:1030A0002031306D6D002100486F74656E64206AB8
:1030B000652073747564656EC3BD005A70C49B74DB
:1030C00000506F6B7261C48D6F76617400457874C7
:1030D000727564C3A972202A00457874727564C33E
:1030E000A97200506F73756E6F7574204000506F39
:1030F0006879620055766F6C6E6974206D6F746FBD
:103100007279004D38340056C3BDC5A16B61207380
:10311000726F766EC3A176C3A16EC3AD005679708F
:10312000005A6170005679726F766E617420706F0C
:10313000646C6FC5BE6B75005679726F766E617484
:1031400020706F646C6FC5BE6B75004732394E00DE
:103150005A6173756E6F7574205A2D736F6E647536
:10316000004D34303200567973756E6F7574205A85
:103170002D736F6E6475004D343031004732385A0C
:10318000004732385900486F6D652040004732389B
:103190005800446F6D6F76736BC3A120706F7A69AE
:1031A00063650047323800506F73756E6F75742019
:1031B0006F737900486C61766EC3AD206E6162C337
:1031C000AD646B61005A6168C599C3A17420242065
:1031D000706F646C6FC5BE005A6168C599C3A174F5
:1031E00020242076C5A165005A6168C599C3A174E1
:1031F000202420656E64207E005A6168C599C3A1B1
:10320000742024207E005465706C6F7461000E265B
:103210000A265A63686C61646974005A6168C599CA
:10322000C3A174202400527963686C6F7374207694
:10323000656E742E207E004B6F6D6F726100506F53
:10324000646C6FC5BE6B6100547279736B61207ED4
:1032500000486C61766EC3AD206E6162C3AD646B75
:1032600061004532004531005932005A005900587A
:10327000004532004531005A005932005900567954
:1032800070005A6170005800544D432062756469A3
:10329000C48D6500537465616C746843686F7020F9
:1032A000706F766F6C656E005265C5BE696D206B80
:1032B000726F6BC5AF0050726F7564206275646980
:1032C000C48DC5AF0044616CC5A1C3AD206E6173F0
:1032D000746176656EC3AD005A206F6673657400C5
:1032E0005072C5AF746F6B207E005072C5AF746FA3
:1032F0006B00527963686C6F73742076656E742E00
:10330000207E00506F646C6FC5BE6B610054727993
:10331000736B61207E00527963686C6F7374004830
:103320006C61766EC3AD206E6162C3AD646B61008B
:103330004572723A20454550524F4D20436F72728C
:10334000757074004572723A20454550524F4D20B9
:10335000435243004572723A20454550524F4D202A
:1033600053697A65004572723A20454550524F4D77
:103370002056657273696F6E006F70656E005452EF
:1033800049474745524544003A200066696C616DE3
:10339000656E74007A5F6D696E00795F6D696E00AD
:1033A000785F6D696E005265706F7274696E672028
:1033B000656E6473746F70207374617475730A0042
:1033C00000007A430000964300003E4300000000E6
:1033D000000000000000000020746F6F206C6F6E12
:1033E0006720657874727573696F6E207072657688
:1033F000656E7465640A0020636F6C642065787480
:10340000727573696F6E2070726576656E7465642F
:103410000A00446F6DC5AF202573207072766EC3AD
:10342000AD00486F6D652025732046697273740086
:103430000000000000000000000000005761726EF4
:10344000696E673A20486F6D696E672042756D70CE
:103450002044697669736F72203C20310A000202B1
:103460000400007A430000964300003E430000A0A1
:10347000400000A04000000040DB0FC93F45BCDA1F
:103480003F8FB30240FCF0274056946140FE4B9BB7
:103490004084A5D840E0231841346A5641E8599742
:1034A0004164DBD5416E271742B4B75542CE1A9717
:1034B00042C8AED542B5885A43D40684BFA65FA79A
:1034C000BF7443E0BF10B11AC01C2C58C0E8F69777
:1034D000C0B849D6C04E4E17C124D355C1802497D9
:1034E000C1A0B5D5C1121A17C244AE55C2781797FC
:1034F000C26CACD5C267885AC320746F6F206C6FE2
:103500006E6720657874727573696F6E207072656E
:1035100076656E7465640A0020636F6C642065785C
:1035200074727573696F6E2070726576656E7465FE
:10353000640A005A4153544156454E4F2E200050C4
:1035400072696E7465722073746F70706564206444
:10355000756520746F206572726F72732E204669D4
:103560007820746865206572726F7220616E6420C5
:10357000757365204D39393920746F207265737405
:103580006172742E202854656D7065726174757255
:10359000652069732072657365742E2053657420ED
:1035A00069742061667465722072657374617274E7
:1035B000696E67290A00206572726F72202D207271
:1035C0006573746172742077697468204D39393974
:1035D0000A00424C546F7563680021212053544FF8
:1035E000502063616C6C656420626563617573650E
:1035F000206F66200053657474696E67732053747E
:103600006F72656400290A002062797465733B203B
:10361000637263200053657474696E67732053741A
:103620006F72656420280048617264636F6465642A
:103630002044656661756C742053657474696E67A7
:1036400073204C6F616465640020286D6D29002033
:103650003B204C6576656C696E67200020204D34F8
:1036600032302053004175746F20426564204C65F0
:1036700076656C696E670020460020420020480095
:1036800020204D3134352053004D617465726961DD
:103690006C2068656174757020706172616D65740D
:1036A00065727300205431204500205430204500BD
:1036B00020493100537465707065722064726976B8
:1036C00065722063757272656E7400543120450016
:1036D0005430204500493100205800447269766515
:1036E00072207374657070696E67206D6F64650019
:1036F000203B2053656E736F722000204400202011
:103700004D34313220530046696C616D656E742012
:1037100072756E6F75742073656E736F7200204AD8
:10372000002020473239205720490020204D3134D5
:10373000392043203B20556E69747320696E204305
:10374000656C736975730A0054656D706572617498
:1037500075726520556E69747300202047323120E0
:103760003B004C696E65617220556E69747300454B
:103770004550524F4D206461746173697A652065CC
:1037800072726F722E0A00202863616C63756C611F
:1037900074656429210A0020213D200045455052CE
:1037A0004F4D20435243206D69736D6174636820EF
:1037B0002D202873746F726564292000454550528E
:1037C0004F4D20436F72727570740A002053697AEE
:1037D000653A2000496E6465783A2000290A002085
:1037E00062797465733B2063726320002073746F89
:1037F0007265642073657474696E67732072657492
:10380000726965766564202800000048420000481F
:1038100042000088410000A0400000A2420000A237
:10382000420000CA430000CB43E8030000E8030065
:103830000064000000E8030000204D61726C696EB6
:103840003D563838290A00454550524F4D2076657F
:103850007273696F6E206D69736D6174636820287F
:10386000454550524F4D3D0020436F756E742058B2
:103870003A000000453200453100506F646C6FC55E
:10388000BE6B61004B6F6D6F7261004500626564D5
:10389000006368616D626572002C207379737465D2
:1038A0006D2073746F707065642120486561746564
:1038B000725F49443A20005659534F4BC3812054FC
:1038C00045504C4F5441004D415854454D50207483
:1038D0007269676765726564004368796261207A1E
:1038E0006168C599C3AD76C3A16EC3AD004865617B
:1038F00074696E67206661696C65640070012C01F3
:1039000090012701B0012201C0011D01F001180141
:103910001002130130020E0160020901900204013D
:10392000C002FF000003FA004003F5008003F0002E
:10393000D003EB002004E6007004E100E004DC00AA
:103940004005D700C005D2004006CD00D006C80013
:103950008007C3003008BE00F008B900C009B400F9
:10396000B00AAF00B00BAA00D00CA500000EA0005A
:10397000500F9B00C01096005012910000148C0054
:10398000C0158700B0178200B0197D00D01B7800E9
:10399000001E730040206E0090226900F024640035
:1039A00040275F0090295A00E02B5500102E500050
:1039B00020304B0010324600E033410090353C008F
:1039C0001037370070383200A0392D00B03A280087
:1039D000A03B2300603C1E00103D1900903D1400E8
:1039E000103E0F00703E0A00C03E0500003F000080
:1039F000403FFBFF803FF6FFC03FF1FF4EC38D5AB3
:103A00004B41205445504C4F5441004D494E544574
:103A10004D50207472696767657265640054455043
:103A20004C4F544EC38D20C39A4E494B0054686589
:103A3000726D616C2052756E6177617900202F0084
:103A40002040002043403A002042403A0020403AC3
:103A50000020573A00496E76616C6964206578747D
:103A600072756465720A00416374697665204578F1
:103A70007472756465723A20007C3C3E5E2B3D3F5B
:103A80002F5B5D3B2C2A225C004D656469612049F7
:103A90006E6974204661696C0053442063617264EE
:103AA000206F6B0A006F70656E526F6F74206661D5
:103AB000696C65640A00766F6C756D652E696E6958
:103AC00074206661696C65640A004E6F205344205F
:103AD000636172640A0053442063617264207265FA
:103AE0006C65617365640A000A4D3234004D3233EF
:103AF000202573002E0A006F70656E206661696C68
:103B000065642C2046696C653A200046696C652026
:103B100073656C65637465640A002053697A653A5D
:103B2000200046696C65206F70656E65643A200000
:103B3000454E4420535542524F5554494E450A0074
:103B40002220706F73002220706172656E743A22B9
:103B500000535542524F5554494E452043414C4C19
:103B6000207461726765743A220053756263616CF8
:103B70006C204F766572666C6F770045786365657B
:103B8000646564206D617820535542524F55544905
:103B90004E452064657074683A0057726974696EA6
:103BA0006720746F2066696C653A200066726573E1
:103BB0006800646F696E67002066696C653A200072
:103BC0004E6F7720002F6175746F25632E6700009C
:103BD0000020002300260029002C002F00320000C6
:103BE0000100000301060109016D61726C696E66D6
:103BF000772E6F726700322E312E322E31001FFF6A
:103C0000FFFFFFFFFF600000000001FF4000000019
:103C10000000FF8000000000007F83CF00000C3018
:103C20003F87FF80000C301F867980000C000F8CCE
:103C300030C7838C30E78C30CFC7CC31F38C30DC8D
:103C4000ECEC33B98C30D86C6C33198C30D06C0CF4
:103C500033198C30D86C0C33198C30DC6C0E3B195A
:103C60008C30CF7C079F198C30C77C038F194000A4
:103C70000000000002600000000000061FFFFFFFC0
:103C8000FFFFF81000C90210012C01400122017051
:103C9000011801B0010E01F00104015002FA00B058
:103CA00002F0003003E600D003DC009004D2007084
:103CB00005C800A006BE000008B400B009AA00D0E4
:103CC0000BA000600E960060118C00001582002091
:103CD000197800C01D6E00A0226400B0275A009021
:103CE0002C500000314600E0343C00103832009087
:103CF0003A2800603C1E00A03D1400803E0A0020CF
:103D00003F00002020506C616E6E657242756666E1
:103D1000657242797465733A2000204672656520A9
:103D20004D656D6F72793A200020436F6D70696C3C
:103D300065643A204A756E20323520323032330ABB
:103D400000204C61737420557064617465643A207E
:103D5000323032332D30352D3136207C2041757490
:103D6000686F723A2053504D0A004D61726C696E53
:103D700020322E312E322E310A0020536F66747796
:103D80006172652052657365740A0020576174631F
:103D900068646F672052657365740A002042726F11
:103DA000776E206F75742052657365740A00204524
:103DB000787465726E616C2052657365740A005088
:103DC0006F77657255700A0073746172740A0047E8
:103DD00032385859004D31303031006F6B00657208
:103DE000726F722077726974696E6720746F2066D3
:103DF000696C650A00446F6E6520736176696E6751
:103E00002066696C652E0A004D323900456E647378
:103E1000746F707900255320256320256320256366
:103E200020256300205A3A0020593A0020583A00D1
:103E3000656E6473746F7073206869743A20000053
:103E4000002100240027002A002D0030003300014B
:103E5000010000040107010A0100002200250028DA
:103E6000002B002E00310034000201000005010883
:103E7000010B0105050505070508080808020202EF
:103E8000020A0A08080404040401010101010101F5
:103E9000010303030303030303040707070C0C0CCC
:103EA0000C0C0C0C0C0202020206060606060606A4
:103EB000060B0B0B0B0B0B0B0B0102102020080841
:103EC000102040102040800201020108040201017C
:103ED0000204081020408080402010080402018065
:103EE00004020180402010080402010804020101BC
:103EF00002040810204080010204081020408000C5
:103F0000000A0B02090C0D0E080703040100000053
:103F100000000000000000000000000000000000A1
:103F2000000000000000000000000012111000005E
:103F30000000000000000000000000000000000081
:103F4000000000000024F404D9201BC40C5C0E986F
:103F500004C4095F0265077101F405F900FB04B3AD
:103F60000048048700C10369005803550003034556
:103F700000BE023A008402310053022A00290225C1
:103F80000004022000E4011C00C8011900AF011761
:103F900000980114008401130071011000610110E8
:103FA0000051010E0043010D0036010B002B010BE7
:103FB0000020010B00150109000C01090003010894
:103FC00000FB000800F3000800EB000700E4000617
:103FD00000DE000600D8000600D2000600CC000576
:103FE00000C7000500C2000500BD000400B90004C0
:103FF00000B5000400B1000400AD000400A90004F5
:1040000000A5000300A20003009F0004009B000322
:104010000098000300950002009300030090000345
:10402000008D0002008B0003008800020086000261
:104030000084000300810002007F0002007D000276
:10404000007B000200790002007700010076000288
:10405000007400020072000100710002006F000293
:10406000006D0001006C0002006A0001006900029E
:1040700000670001006600010065000100640002A5
:10408000006200010061000100600001005F0002A9
:10409000005D0001005C0001005B0001005A0001AE
:1040A00000590001005800010057000100560001AE
:1040B00000550001005400010053000000530001AE
:1040C000005200010051000100500001004F0001AA
:1040D000004E0000004E0001004D0001004C0001A8
:1040E000004B0000004B0001004A000100490001A4
:1040F00000480000004800010047000100460000A1
:104100000046000100450000004500010044000198
:104110000043000000430001004200000042000193
:10412000004100000041000100400001003F00008C
:10413000003F0001003E0000003E0001003D000085
:10414000003D0001003C0000003C0000003C00017C
:10415000003B0000003B0001003A0000003A000173
:10416000003900000039000100380000003800006C
:104170000038000100370000003700010036000061
:104180000036000000360001003500000035000058
:10419000003500010034000000340000003400014C
:1041A0000033000000330000003300010032000043
:1041B0000032000000320001003100000031000038
:1041C000003100010030000000300000003000012C
:1041D000002F0000002F0000002F0000002F000122
:1041E000002E0000002E0000002E0001002D000017
:1041F000002D0000002D0000002D0001002C00000B
:10420000002C0000002C0000002C0001002B0000FE
:10421000002B0000002B0000002B0001002A0000F2
:10422000002A0000002A0000002A000100290000E6
:1042300000290000002900000029000000290001D9
:1042400000280000002800000028000000280000CE
:1042500000280001002700000027000000270000C0
:1042600000270000002700010026000000260000B3
:1042700000260000002600000026000100250000A6
:10428000002500000025000000250000002500009A
:10429000002500010024000000240000002400008C
:1042A000002400000024000100230000002300007F
:1042B0000023000000230000002300000023000072
:1042C0000023000100220000002200000022000064
:1042D0000022000000220000002200010021000056
:1042E000002100000021000000210000002100004A
:1042F000002100000021000100200000002000003B
:10430000002000000020000000200000002000002D
:104310000020000000200001001F0000001F00001E
:10432000001F0000001F0000001F0000001F000011
:10433000001F0001001E0000001E0000001E000003
:10434000001E00000024F4D43050C38E20C2A240CE
:1043500017828B7011127A910D816CD90AA861E1D4
:1043600008C7586607615143061E4B5D05C145A746
:10437000041A411104093D9803713931034036DBB9
:104380000265339102D4305402802E1D02632CEE5C
:1043900001752AC501B028A001102781018F25646D
:1043A000012B244B01E0223401AC211F018D200D93
:1043B00001801FFC00841EED00971DDF00B81CD299
:1043C00000E61BC600201BBC00641AB200B219A88C
:1043D000000A19A0006A189900D117910040178BA4
:1043E00000B516840031167E00B31579003A1573B6
:1043F00000C7146F0058146A00EE13660088136338
:104400000025135E00C7125B006C12570015125492
:1044100000C111510070114F0021114B00D61049FD
:10442000008D1047004610440002104200C00F40AB
:1044300000800F3E00420F3C00060F3B00CB0E38C1
:1044400000930E37005C0E3500270E3400F30D325A
:1044500000C10D3100900D3000600D2E00320D2D89
:1044600000050D2C00D90C2B00AE0C2900850C2961
:10447000005C0C2700350C27000E0C2600E80B24EE
:1044800000C40B2400A00B23007D0B23005A0B213A
:1044900000390B2100180B2000F80A1F00D90A1E52
:1044A00000BB0A1E009D0A1D00800A1D00630A1C35
:1044B00000470A1B002C0A1B00110A1A00F7091AF0
:1044C00000DD091900C4091900AB09190092091788
:1044D000007B091800630917004C091600360916FD
:1044E00000200916000A091500F5081500E0081457
:1044F00000CC081400B8081400A408140090081395
:10450000007D0812006B08130058081200460812BC
:1045100000340811002308110012081100010811CD
:1045200000F0071000E0071000D0071000C00710CF
:1045300000B0070F00A107100091070E0083070FBE
:104540000074070F0065070E0057070E0049070E9D
:10455000003B070D002E070E0020070D0013070D6E
:104560000006070D00F9060C00ED060D00E0060C34
:1045700000D4060C00C8060C00BC060C00B0060CEB
:1045800000A4060B0099060C008D060B0082060B9A
:104590000077060B006C060B0061060A0057060B3D
:1045A000004C060A0042060A0038060A002E060AD7
:1045B0000024060A001A060A001006090007060A67
:1045C00000FD050900F4050900EB050900E20509F5
:1045D00000D9050900D0050900C7050900BE050975
:1045E00000B5050800AD050800A50509009C0508F3
:1045F00000940508008C050800840508007C050867
:1046000000740508006C050700650508005D0507D6
:1046100000560508004E050700470507004005083D
:104620000038050700310507002A050700230507A4
:10463000001C050600160507000F05070008050603
:104640000002050700FB040600F5040700EE04065F
:1046500000E8040600E2040700DB040600D50406B7
:1046600000CF040600C9040600C3040600BD04060A
:1046700000B7040600B1040500AC040600A6040659
:1046800000A00405009B04060095040500900406A4
:10469000008A04050085040500800406007A0405EC
:1046A0000075040500700405006B04050066040530
:1046B00000610405005C0405005704050052040570
:1046C000004D04050048040500430405003E0404B1
:1046D000003A04050035040500300404002C0405EC
:1046E0000027040400230405001E0404001A040427
:1046F0000016040500110404000D0404000904055B
:10470000000404040000040400FC030400F8030493
:1047100000F4030400F0030400EC030400E80304C5
:1047200000E4030400E0030400DC030400D80304F5
:1047300000D4030400D0030400CC030400C8030326
:1047400000C50303005D2E00006E23000013180057
:1047500000AF0E00003D08000063040000450200A9
:1047600000270100002000200020005061726B6FC4
:1047700076C3A16EC3AD2073656C68616C6F00FF7A
:10478000FFFF50726F62696E67204661696C6564F5
:104790000A004B616C6962726163652073656C68C5
:1047A000616C6100205A3A200020593A200042658D
:1047B0006420583A200043616E6E6F74206F7065FC
:1047C0006E207375626469722000496E736572743D
:1047D0002066696C616D656E7420616E6420707214
:1047E00065737320627574746F6E0A00496E736529
:1047F00072742066696C616D656E7420616E6420F0
:10480000707265737320627574746F6E0A00220A89
:1048100000556E6B6E6F776E20636F6D6D616E64A9
:104820003A202200204500205A0020590020204D27
:10483000393220580053746570732070657220758A
:104840006E69740020453A00205A3A0020593A0017
:10485000583A006F6B0A00526573656E643A200027
:1048600052756D62612070C5996970726176656E6E
:104870002E005469736B6E752E2E2E005469736B67
:1048800020706F7A6173746176656E00CC00C6002B
:1048900011241FBECFEFD1E2DEBFCDBF00E00CBFC1
:1048A00084B78093361914BE0FB6F894A8958091FA
:1048B0006000886180936000109260000FBE13E07A
:1048C000A0E0B2E0E0E9F9EE02E00BBF02C0079021
:1048D0000D92AE3FB107D9F729E1AEEFB3E001C0C9
:1048E0001D92A633B207E1F714E2C7E4D4E200E078
:1048F00006C021970109802FFE010F945E71C63416
:10490000D10780E00807A9F70F94335F0D94B774BF
:104910000C940000FC0184910895FC0180810895AD
:104920005B9800C090910B0187FD909590789093D3
:1049300009015B9A00C000C05B9800C090910B0118
:1049400086FD90959078909309015B9A00C000C015
:104950005B9800C090910B0185FD909590789093A5
:1049600009015B9A00C000C05B9800C090910B01E8
:1049700084FD90959078909309015B9A00C000C0E7
:104980005B9800C090910B0183FD90959078909377
:1049900009015B9A00C000C05B9800C090910B01B8
:1049A00082FD90959078909309015B9A00C000C0B9
:1049B0005B9800C090910B0181FD90959078909349
:1049C00009015B9A00C000C05B9800C080910B0198
:1049D0008078809309015B9A00C000C0089590E040
:1049E00080E00895CF93DF93C091A307D091A407EF
:1049F00081E0CE31D105E4F020E030E040E05FE33B
:104A000060919F077091A0078091A1079091A207E4
:104A10000F9479710F94BD726C1B7D0B77FF03C0EF
:104A200071956195710981E0633071050CF080E04A
:104A3000DF91CF910895CF93DF93DB01F9019C9132
:104A40009130C1F0943080F094509C938830D1F430
:104A500080819181009771F0019791838083480F45
:104A6000591FEA01188206C08C3539F49C5F9C936B
:104A7000943041F4DF91CF9108958B3339F781E081
:104A80008C93F8CF20813181B9016F5F7F4F7183A3
:104A90006083420F531FEA018883808191818F35A3
:104AA00091056CF7E7CF0F931F9381E000911918E0
:104AB00010911A1820911B1830911C18409115184C
:104AC000509116186091171870911818041715074F
:104AD0002607370708F480E01F910F91089590E0B2
:104AE00080E0089520918205833021F425FD0CC0DB
:104AF00024FD0CC030E0A90102C0559547958A9568
:104B0000E2F7CA018170089581E0089580E0089578
:104B10008091A20584FD0BC08091A40587FD07C08C
:104B20009091A505937081E019F480E0089581E0EB
:104B300008952FEB280F2A3108F047C0E22FF0E04C
:104B40008091A2059091A305A091A405B091A5051F
:104B500004C0B695A795979587952A95D2F780FDBD
:104B600002C081700895ED57FA4FE081EE2341F1C4
:104B70008091AB099091AC09E80FF92FF11D80816C
:104B800090ED980F9A3030F08E3251F4818180533D
:104B90008A3098F4F0937F05E0937E0581E00895D4
:104BA0008D3211F08B3249F4818190ED980F9A305B
:104BB00088F38E3211F48281EACFF0E0E0E0EACFB0
:104BC00010927F0510927E05E9CF80E00895B1DF55
:104BD000882341F081E020917E0530917F05232BD1
:104BE00009F480E00895CF92DF92EF92FF92CF9385
:104BF000DF9300D01F921F92CDB7DEB7DC01ED919D
:104C0000FC910084F185E02D1995C92EDD24EE2458
:104C1000FF2469837A838B839C832D81C2FA20F9D8
:104C2000C1FA21F92D83D701C60188719927AA27D6
:104C3000BB2721E0892B8A2B8B2B09F420E06D8187
:104C400020FB62F929813A814B815C8170E080E030
:104C500090E00F900F900F900F900F90DF91CF91F9
:104C6000FF90EF90DF90CF9008951092BF05809154
:104C70003B0290913C02A0913D02B0913E02E6E5DC
:104C8000F7E080839183A283B38384839583A68393
:104C9000B78308958F929F92AF92BF92CF92DF9287
:104CA000EF92FF92FC01828158E5C52E52E0D52E8D
:104CB000C81AD10887FDD394CC0CDD1CCC0CDD1CAC
:104CC0000D2C000CEE08FF08818178E8872E912CCE
:104CD000881A910887FD9394880C991C880C991C5C
:104CE000092C000CAA08BB0880818F3FD1F190E00D
:104CF000FC01EE0FFF1FE80FF91FE75EF94E8181FF
:104D0000928133E0880F991F3A95E1F7B0E0A0E077
:104D100044E0B595A795979587954A95D1F7029662
:104D20009C012F5F3F4F032E000C440B550B28199D
:104D300039094A095B09A4EBB0E00F94FF70A701A1
:104D40009601281939094A095B090F94E370C901D2
:104D5000FF90EF90DF90CF90BF90AF909F908F909B
:104D6000089590E080E0DCCFBF92CF92DF92EF9287
:104D7000FF920F931F93CF93DF936B01E9014A30AA
:104D800009F4D6C0453109F081C0DB011296ED91DE
:104D9000FC911281C681D7815A9A00C0000086E238
:104DA00090E00197F0F7012F0295007F20E1B22EED
:104DB000B10E88EFB5DD00C0000086E290E00197FB
:104DC000F0F7103208F0A1C0812F80778068A8DD4D
:104DD000802FA6DD00C0000086E290E00197F0F78A
:104DE00080E89EDD80E09CDD00C0000086E290E06F
:104DF0000197F0F78AEF94DD00C0000086E290E0B2
:104E00000197F0F77E01B0E1EB0EF11C8881807F05
:104E100087DD89918295807F83DDCE15DF05B1F72F
:104E200000C0000086E290E00197F0F71F5F005F8E
:104E30001B11BFCF5A98D6011296ED91FC9180813B
:104E40009281980F92832181921708F0DCC194819E
:104E50009F5F94839381890F821710F08FEF820FE9
:104E60008383458150E0440F551F70E060E08681E8
:104E700097810F94637481E0DF91CF911F910F911F
:104E8000FF90EF90DF90CF90BF900895FB010281DB
:104E90001381423309F4B9C108F4C1C1463409F49D
:104EA000AEC1473409F4B6C14B3329F789812B8150
:104EB000D80112966C91129713964C91213009F4F7
:104EC000F3C1233009F0D4C138EF380F582F91E0E7
:104ED000431708F490E041E0531708F040E031E058
:104EE000561708F430E0592F542B352319F4942326
:104EF00009F4C1CFFA8030E0F901EF53FD4FD080C3
:104F000023543D4FF901E080CCC180EE810F8068D1
:104F1000807F06DD812F8295807F02DD00C000004A
:104F200086E290E00197F0F780E8FADC80E85BCF5A
:104F3000529A5A9880910A01806880930A01809160
:104F40000B01807880930901539A5B9A5A9A00C0AA
:104F5000000086E290E00197F0F788E790E0CEE964
:104F6000DFE0FE013197F1F70197D9F788EFD8DC40
:104F700000C0000086E290E00197F0F780E2D0DC0C
:104F800080E0CEDC00C0000086E290E00197F0F700
:104F900080E0C6DC80E8C4DC00C0000086E290E06F
:104FA0000197F0F780E0BCDC80E1BADC00C00000D3
:104FB00086E290E00197F0F7CE010197F1F7CE017C
:104FC0000197F1F7CE010197F1F7CE010197F1F7C3
:104FD000CE010197F1F7CE010197F1F7CE010197CC
:104FE000F1F7CE010197F1F7CE010197F1F7CE016C
:104FF0000197F1F7CE010197F1F7CE010197F1F793
:10500000CE010197F1F7CE010197F1F72197F1F762
:1050100080E286DC80E484DC00C0000086E290E070
:105020000197F0F780E27CDC80E67ADC00C00000CB
:1050300086E290E00197F0F7D0E0C0E08C2F807717
:1050400080686EDC8D2F6CDC00C0000086E290E092
:105050000197F0F780E864DC80E062DC00C00000CB
:1050600086E290E00197F0F78AEF5ADC00C000007A
:1050700086E290E00197F0F790E25B9800C08091A3
:105080000B018078809309015B9A00C000C05B9897
:1050900000C080910B018078809309015B9A00C069
:1050A00000C05B9800C080910B018078809309015B
:1050B0005B9A00C000C05B9800C080910B018078B3
:1050C000809309015B9A00C000C05B9800C080918A
:1050D0000B018078809309015B9A00C000C05B9847
:1050E00000C080910B018078809309015B9A00C019
:1050F00000C05B9800C080910B018078809309010B
:105100005B9A00C000C05B9800C080910B01807862
:10511000809309015B9A00C000C05B9800C0809139
:105120000B018078809309015B9A00C000C05B98F6
:1051300000C080910B018078809309015B9A00C0C8
:1051400000C05B9800C080910B01807880930901BA
:105150005B9A00C000C05B9800C080910B01807812
:10516000809309015B9A00C000C05B9800C08091E9
:105170000B018078809309015B9A00C000C05B98A6
:1051800000C080910B018078809309015B9A00C078
:1051900000C05B9800C080910B018078809309016A
:1051A0005B9A00C000C05B9800C080910B018078C2
:1051B000809309015B9A00C000C000C00000E6E2D5
:1051C000F0E03197F0F7915009F057CF88EFA8DB66
:1051D00000C0000086E290E00197F0F7CF5FD05F5B
:1051E000C03209F02BCF80E09BDB80EC99DB00C064
:1051F000000086E290E00197F0F75A983CCEF80163
:105200008581888338CE80E037CEB901C8010F94FC
:10521000915231CED80111968C9188832CCE443195
:1052200091F0473109F027CE1882D80112968C915F
:105230001297898315968C91159781508A831396BE
:105240008C918B8318CED80115964C91159750E010
:10525000440F551F70E060E016968D919C910F945D
:105260006374F8011282808181508383148203CE9B
:10527000481708F400CE861708F4FDCDFA80E12C1B
:10528000D12C243070F437CEBE01C8010F94915256
:10529000898198819D0D98838E0D8983FF0C09F477
:1052A000EACDF7FEF6CFF0CF58E0580F382F0FCEEB
:1052B000EF92FF920F931F93CF93DF93EC018B013B
:1052C0007A018A859B858617970731F088819981B5
:1052D0000F94C3541B870A87B701888199810F9463
:1052E000E84C2E813F81820F932F911D9F838E83E7
:1052F00090E080E0DF91CF911F910F91FF90EF90B0
:1053000008959F92AF92BF92CF92DF92EF92FF9259
:105310000F931F93CF93DF93EC018B01942EA52E57
:105320008A859B858617970731F0888199810F942C
:10533000C3541B870A8788859985019649F5BC80E7
:105340000A818E81080FC880D980D6015596ED91CB
:10535000FC91C6011995B80EE92CFA2C10E0F70162
:1053600021917F01211127C08E819F81810F911D85
:105370009F838E8390E080E0DF91CF911F910F910A
:10538000FF90EF90DF90CF90BF90AF909F900895E7
:105390000E811F81692D7A2D888199810F94E84CA7
:1053A000800F912F911D288539852817390738F6E8
:1053B00081E090E0E1CF4B2D602FC6010F941B558B
:1053C000080F180FCCCFDF92EF92FF920F931F932D
:1053D000CF93DF93EC01D62E1CAD0BAD7C0184E0A6
:1053E000E80EF11CE98DFA8DC7011995412F480F80
:1053F0002D2D602FC7010F941B559BAD890F8BAFCF
:1054000081E090E0DF91CF911F910F91FF90EF909D
:10541000DF900895CF93C091B805CC2391F14CE073
:1054200050E060E270E08BEA95E00F94637480E2F4
:10543000C43628F08C2F64E60F941E71805D809333
:10544000650690E2CA3040F02AE08C2F622F0F945C
:105450001E710F941E71905D909366068C2F6AE00A
:105460000F941E71905D9093670683E0E5E6F6E089
:10547000AFEAB5E001900D928A95E1F785E280935D
:10548000B205CF910895CF92DF92EF92FF920F93E2
:105490001F93CF93DF93CDB7DEB72C970FB6F89459
:1054A000DEBF0FBECDBFF090FD16E090FE1620913E
:1054B000AA0521111DC048E059E16E2D8F2D0F94D2
:1054C000865590E080E0F80EF092FD16E092FE1610
:1054D00099272C960FB6F894DEBF0FBECDBFDF9193
:1054E000CF911F910F91FF90EF90DF90CF90089593
:1054F000C090CA16D090CB1626EC36E13A832983A9
:105500002F2D30E03C832B832E2D30E03E832D83E6
:1055100018861F827A8769871C861B8601E819E234
:105520009E012F5F3F4F4AE854E2BC01C6010F9431
:10553000C940B60186EC96E10F94C3548F819885DB
:10554000C2CFCF93DF93C0919807D091990720974E
:1055500029F1609194077091950780919607909139
:1055600097070F94BD726E5F7F4F24976C177D076E
:10557000ACF470936307609362070F941B52605AF8
:1055800075418F4F9F4F60936407709365078093B9
:10559000660790936707DF91CF9108951092640793
:1055A000109265071092660710926707F4CFCF93A9
:1055B000DF93C091A307D091A407209729F16091B0
:1055C0009F077091A0078091A1079091A2070F9467
:1055D000BD726E5F7F4F24976C177D07ACF470939C
:1055E0006907609368070F941B52605A75418F4F8B
:1055F0009F4F60936A0770936B0780936C0790933B
:105600006D07DF91CF91089510926A0710926B0792
:1056100010926C0710926D07F4CF3F924F925F92F9
:105620006F927F928F929F92AF92BF92CF92DF92B2
:10563000EF92FF920F931F93CF93DF93162F072FB5
:10564000342EFC0180809180A280B380C501B4011A
:1056500020E13EE040E050E00F94C170F22EE32ED6
:10566000C22FD32F8CE3482E512C612C712CC501F5
:10567000B401A30192010F94C170D62EC72ECA01A6
:10568000B901A30192010F94C1703320C9F17F9336
:105690006F93CE0168E170E00F9437719F938F9301
:1056A000C501B40120E831E541E050E00F94C1703C
:1056B0003F932F9383EF96E09F938F930F931F93C6
:1056C0000F94806C812F902F0F94366CEDB7FEB73E
:1056D0003A960FB6F894FEBF0FBEEDBFDF91CF91A3
:1056E0001F910F91FF90EF90DF90CF90BF90AF9000
:1056F0009F908F907F906F905F904F903F90089514
:105700002097B9F4CF92DF927F936F9387EE96E064
:105710009F938F930F931F930F94806C2DB73EB779
:10572000285F3F4F0FB6F8943EBF0FBE2DBF85E0F8
:10573000D5CFC436D105A8F47F936F93EF92FF9233
:105740008BED96E09F938F930F931F930F94806C34
:105750008DB79EB708960FB6F8949EBF0FBE8DBF4B
:10576000E6CF7F936F93EF92FF9281ED96E09F9348
:105770008F930F931F930F94806CEDB7FEB73896FD
:105780000FB6F894FEBF0FBEEDBF86E0A7CFCF9255
:10579000DF92EF92FF92CF93DF93CDB7DEB76197A1
:1057A0000FB6F894DEBF0FBECDBF80918513813058
:1057B00031F080911D1882FF35C087FD33C00F94F2
:1057C00015286B017C01CE86DF86E88AF98A45E0E0
:1057D00050E060E270E08DEA95E00F94637485E438
:1057E0008093AB058AE38093AC0541E050E8C51691
:1057F00051E5D50651E0E506F10408F440E0BE01AC
:105800006F5F7F4FCE010E9608DF2CE030E0A901DC
:10581000481B5109CA01BE016F5F7F4F85559A4FE2
:105820000F94887461960FB6F894DEBF0FBECDBF9B
:10583000DF91CF91FF90EF90DF90CF9008950F937D
:105840001F93CF93DF9300D01F92CDB7DEB79C019B
:105850000AEC17E090E1E5ECFEE0D80101900D9232
:105860009A95E1F7F9012081318142815381F80154
:1058700060857185828593850F947971F8016087C1
:1058800071878287938780E090E0A0EAB0E4898303
:105890009A83AB83BC83CE0101960F94743C0F9026
:1058A0000F900F900F90DF91CF911F910F9108955E
:1058B00080917E0590917F05009731F04AE050E09D
:1058C00070E060E00D94086B60E070E0CB0108953B
:1058D00080917E0590917F05009731F04AE050E07D
:1058E00070E060E00D94DD6960E070E0CB01089548
:1058F000CF93DF93EB016BD9882311F0E9DFEB0144
:10590000CE01DF91CF910895E3DF97FD0AC0E0DF7C
:105910006F3F71058105910509F02CF4D9DF862FC1
:10592000089580E008958FEF0895CF93C62F4FD943
:10593000882311F0CF91E8CF8C2FCF9108958091DB
:105940007E0590917F05892B39F0DEDF91E0811192
:1059500001C090E0892F089591E0FCCFCF93DF93B1
:10596000C82FD62F34D9882319F0DF91CF91E7CFF4
:105970008C2FDFD8811101C08D2FDF91CF91089539
:10598000A7DFCB010895CF93DF93EB0120D98823C4
:1059900019F0DF91CF91F4CFCE01DF91CF9108952F
:1059A0000F931F93CF9380917E0590917F05009771
:1059B00009F1FC018F01C1912C2F2F7DA1F0C5347D
:1059C00031F0C53621F0C83511F0C83799F7F80124
:1059D000108270E060E00F948868F801C083CF9176
:1059E0001F910F91089570E060E0CF911F910F918A
:1059F0000D94886860E070E0CB01F1CFCF92DF9228
:105A0000EF92FF926A017B01E2D8882329F0FF9090
:105A1000EF90DF90CF90C4CFC701B601FF90EF9019
:105A2000DF90CF9008954F925F926F927F92AF92E6
:105A3000BF92CF92DF92EF92FF920F931F93CF937B
:105A400089EBA82E82E0B82E9AECE92E97E0F92E89
:105A500005EC1EE025EDC22E2EE0D22EC0E0F501B1
:105A600081915F01B4D8882309F4A2C099DF2B018A
:105A70003C018C2F37D8882309F490C0F80120818D
:105A8000318142815381C301B2010F947971F701D1
:105A90006083718382839383CF5FF4E0EF0EF11C08
:105AA0000C5F1F4F84E0C80ED11CC330C1F685E4E3
:105AB0008ED8882309F487C073DF6B017C0183E0F3
:105AC00011D8882371F02091D10E3091D20E4091DF
:105AD000D30E5091D40EC701B6010F9479716B01AA
