:100000000C942A230C946A230C946A230C946A237C
:100010000C946A230C946A230C946A230C946A232C
:100020000C946A230D9402480D9402480D940248E2
:100030000C946A230C946A230C946A230C946A230C
:100040000C946A230C948DF00C946A230C946A230C
:100050000C946A230C94B6EE0C946A230D948B4A8C
:100060000C946A230C943D500C9433500C946A23E6
:100070000C946A230C946A230C946A230C946A23CC
:100080000C94033E0C946A230C946A230C946A2308
:100090000C946A230C946A230C946A230D94984F51
:1000A0000C946A230C946A230C94D53D0C946A2317
:1000B0000C946A230C946A230C946A230C946A238C
:1000C0000C946A230C946A230C946A230C946A237C
:1000D0000C946A230C946A230C946A230C946A236C
:1000E0000C946A23084AD73B3BCE016E84BCBFFD0B
:1000F000C12F3D6C74319ABD56833DDA3D00C77FF8
:1001000011BED9E4BB4C3E916BAAAABE0000008090
:100110003F05A84CCDB2D44EB93836A9020C50B91F
:10012000918688083CA6AAAA2ABE000000803F004B
:100130000D9429350D9445480D9465480D947635F8
:100140000D9426370D94CC350D944F480D9461488D
:100150000D9499350D94E0540D943C480D94AF36B0
:100160000D941A370D946B480D9480340D945348B8
:100170000D9486350D941E370D9453340D94D2365C
:100180000D9481340D9449480D9479360D94574857
:100190000D9416370D9434480D945D480D94895F85
:1001A0000D942F370D9438480D944D490D943048D7
:1001B0000D943F480D94A0350D9499360D946A48DE
:1001C0000D9474350D942A480D9493490D948136FD
:1001D0000D9475350D94F4360D946F480D94773564
:1001E0004E414E494E495459494E46CDCCCC3D0A1C
:1001F000D7233C17B7D13877CC2B329595E6241FFF
:10020000B14F0A000020410000C84200401C4620B7
:10021000BCBE4CCA1B0E5AAEC59D74434F4D4D55C6
:100220004E49434154494F4E0044525952554E0095
:100230004552524F525300494E464F004543484F96
:10024000004572726F722077726974696E672074EC
:100250006F20454550524F4D210A005A4153544199
:1002600056454E4F2E20005072696E746572207391
:10027000746F707065642064756520746F2065729A
:10028000726F72732E2046697820746865206572DB
:10029000726F7220616E6420757365204D39393933
:1002A00020746F20726573746172742E20285465F7
:1002B0006D70657261747572652069732072657303
:1002C00065742E20536574206974206166746572AC
:1002D0002072657374617274696E67290A004E6FCB
:1002E00020436865636B73756D2077697468206C53
:1002F000696E65206E756D6265722C204C61737439
:10030000204C696E653A20004E6F20436865636B30
:1003100073756D2077697468206C696E65206E75E1
:100320006D6265722C204C617374204C696E653A65
:100330002000636865636B73756D206D69736D6113
:100340007463682C204C617374204C696E653A208C
:10035000004C696E65204E756D6265722069732070
:100360006E6F74204C617374204C696E65204E75FD
:100370006D6265722B312C204C617374204C696E58
:10038000653A20004D3131300053657269616C204F
:10039000737461747573206D69736D617463680A39
:1003A0000053442072656164206572726F720A00A6
:1003B0006D41290A0020647269766572206F766546
:1003C0007274656D706572617475726520776172A3
:1003D0006E696E67212028003A20002063757272D2
:1003E000656E742064656372656173656420746F03
:1003F00020006D41290A0020647269766572206FC1
:1004000076657274656D706572617475726520775A
:1004100061726E696E67212028003A20006D4129C3
:100420000A0020647269766572206F766572746561
:100430006D7065726174757265207761726E696E38
:1004400067212028003A20002063757272656E745F
:100450002064656372656173656420746F20002099
:1004600063757272656E742064656372656173652D
:100470006420746F20006D41290A0020647269763F
:100480006572206F76657274656D706572617475E2
:100490007265207761726E696E67212028003A20AC
:1004A000002063757272656E7420646563726561A5
:1004B00073656420746F20006D41290A0020647206
:1004C00069766572206F76657274656D70657261AC
:1004D00074757265207761726E696E6721202800DD
:1004E0003A20006D41290A00206472697665722005
:1004F0006F76657274656D70657261747572652072
:100500007761726E696E67212028003A20004B499E
:100510004C4C20627574746F6E2F70696E0A0021E6
:1005200021204B494C4C20636175736564206279CE
:100530002000746F6F206D75636820696E6163744D
:100540006976652074696D65202D2063757272650A
:100550006E7420636F6D6D616E643A2000212120FE
:100560004B494C4C206361757365642062792000AF
:10057000627573793A2070617573656420666F7275
:1005800020696E7075740A00627573793A20706123
:100590007573656420666F7220757365720A0062F8
:1005A0007573793A2070726F63657373696E670A49
:1005B000004DC3A96469756D2076796A6D75746F95
:1005C000004DC3A96469756D20766C6FC5BE656EFC
:1005D0006F004D3630300050726F7665C48F746591
:1005E000207265736574005449534B2E205A415351
:1005F000544156454E410025533A2025530050C5DD
:100600009845525553454E4F2E20005072696E74D6
:1006100065722068616C7465642E206B696C6C284F
:10062000292063616C6C6564210A00006563686F52
:100630003A004572726F723A0066616C73650074BD
:100640007275650042696C696E656172204C6576F1
:10065000656C696E6720477269643A0A00486F7476
:10066000656E6420746F6F20636F6C640A00256888
:10067000753A25303268750025303268753A253074
:10068000326875002530326875272530326875006C
:10069000256875642025303268753A2530326875D2
:1006A00000447269766572206572726F7200636FC2
:1006B000696C2073686F7274206369726375697402
:1006C0000A006F76657274656D706572617475721B
:1006D000650A0020647269766572206572726F72B5
:1006E0002064657465637465643A203078004C4F0B
:1006F000570048494748004F4B004572726F723AA5
:1007000020416C6C200020636F6E6E656374696FAE
:100710006E2E2E2E200054657374696E6720004C77
:100720004F570048494748004F4B004572726F725F
:100730003A20416C6C200020636F6E6E65637469B3
:100740006F6E2E2E2E200054657374696E67200024
:100750004C4F570048494748004F4B004572726F55
:10076000723A20416C6C200020636F6E6E6563747A
:10077000696F6E2E2E2E200054657374696E67208B
:10078000004C4F570048494748004F4B0045727294
:100790006F723A20416C6C200020636F6E6E65634F
:1007A00074696F6E2E2E2E200054657374696E6707
:1007B00020004C4F570048494748004F4B004572B6
:1007C000726F723A20416C6C200020636F6E6E6510
:1007D0006374696F6E2E2E2E200054657374696EDB
:1007E0006720004C4F570048494748004F4B004591
:1007F00072726F723A20416C6C200020636F6E6ED3
:10080000656374696F6E2E2E2E20005465737469B3
:100810006E672000544D43204348594241205350B5
:100820004F4A454EC38D004F46460A0046616465F7
:10083000204865696768742000426564204C6576CD
:10084000656C696E6720004661696C656420746F31
:1008500020656E61626C6520426564204C6576653A
:100860006C696E670A00496E76616C6964206D651B
:1008700073682E0A004DC49BC599656EC3AD206296
:100880006F64750025532025692F2569002E0A0005
:100890002F0050726F62696E67206D6573682070FB
:1008A0006F696E742000202844525952554E290019
:1008B000473239204175746F20426564204C65765B
:1008C000656C696E67003F20284C2C522C462C42E8
:1008D00029206F7574206F6620626F756E64732EA9
:1008E0000A003F2856296572626F7365206C657631
:1008F000656C20696D706C61757369626C65202828
:10090000302D34292E0A00426164205A2076616C11
:1009100075650A004E6F2062696C696E65617220B0
:10092000677269640A0020440020204D3230302074
:10093000540020204D323030205300202844697369
:1009400061626C6564293A0046696C616D656E741C
:100950002073657474696E67730020204D323031E6
:100960002058004D617820416363656C6572617445
:10097000696F6E2028756E6974732F733229002099
:10098000204D3230332058004D6178206665656413
:1009900072617465732028756E6974732F732900F2
:1009A00020520020204D32303420500041636365D6
:1009B0006C65726174696F6E2028756E6974732F2F
:1009C0007332292028503C7072696E742D61636304
:1009D000656C3E20523C726574726163742D616374
:1009E00063656C3E20543C74726176656C2D616366
:1009F00063656C3E2900204A0020540020530020EB
:100A0000204D323035204200416476616E6365646A
:100A10002028423C6D696E5F7365676D656E745F1B
:100A200074696D655F75733E20533C6D696E5F66DA
:100A3000656564726174653E20543C6D696E5F74D7
:100A4000726176656C5F66656564726174653E208F
:100A50004A3C6A756E635F6465763E290020204DCE
:100A600032313700546F6F6C2D6368616E67696E49
:100A7000670020204D323138205400486F74656E75
:100A800064206F666673657473002044002049001B
:100A900020204D333031205000486F74656E642043
:100AA0005049440020204D61783A20002000202049
:100AB0004D696E3A2000203B200020204D3231311C
:100AC000205300536F667420656E6473746F707387
:100AD00000507265737320627574746F6E20746F4A
:100AE0002068656174206E6F7A7A6C650A00203B1D
:100AF00000205500204C0020204D3630332054007B
:100B000046696C616D656E74206C6F61642F756EE3
:100B10006C6F6164007370726561644379636C65C6
:100B200000737465616C746843686F700020647250
:100B300069766572206D6F64653A0900737072653D
:100B400061644379636C6500737465616C746843B8
:100B5000686F700020647269766572206D6F6465DD
:100B60003A09007370726561644379636C65007360
:100B70007465616C746843686F7000206472697694
:100B80006572206D6F64653A090073707265616407
:100B90004379636C6500737465616C746843686F56
:100BA000700020647269766572206D6F64653A0921
:100BB000007370726561644379636C65007374657A
:100BC000616C746843686F70002064726976657246
:100BD000206D6F64653A09007370726561644379D2
:100BE000636C6500737465616C746843686F700052
:100BF00020647269766572206D6F64653A09002021
:100C0000204D353639205331002064726976657283
:100C10002063757272656E743A2000206472697682
:100C200065722063757272656E743A20002064727A
:100C3000697665722063757272656E743A20002061
:100C40006472697665722063757272656E743A209B
:100C500000206472697665722063757272656E74C5
:100C60003A2000206472697665722063757272653D
:100C70006E743A200020204D3930360020707265A5
:100C80007761726E20666C616720636C6561726566
:100C9000640A00207072657761726E20666C61670D
:100CA00020636C65617265640A002070726577610B
:100CB000726E20666C616720636C65617265640AA0
:100CC00000207072657761726E20666C61672063C8
:100CD0006C65617265640A00207072657761726E7E
:100CE00020666C616720636C65617265640A002030
:100CF0007072657761726E20666C616720636C65E7
:100D0000617265640A00202E68737472743A200060
:100D1000202E68656E643A20002063686F707065ED
:100D200072202E746F66663A2000202E68737472EB
:100D3000743A2000202E68656E643A2000206368B3
:100D40006F70706572202E746F66663A2000202ED8
:100D500068737472743A2000202E68656E643A20BD
:100D6000002063686F70706572202E746F66663A3B
:100D70002000202E68737472743A2000202E68655B
:100D80006E643A20002063686F70706572202E7464
:100D90006F66663A2000202E68737472743A2000E1
:100DA000202E68656E643A20002063686F7070655D
:100DB00072202E746F66663A2000202E687374725B
:100DC000743A2000202E68656E643A200020636823
:100DD0006F70706572202E746F66663A20003F5304
:100DE000206F7574206F662072616E6765202831F0
:100DF0002E2E38290A003F50206F7574206F662010
:100E000072616E676520282D332E2E3132290A003B
:100E10003F4F206F7574206F662072616E6765208A
:100E200028312E2E3135290A003B200020496E76CC
:100E3000616C696420657874727564657220005510
:100E40007370C3A16E6F2E2E2E005A2050726F62E7
:100E5000652050617374204265640A00536F6E64AC
:100E600061205A206D696D6F20706F646C00205A8C
:100E70003A200020593A200042656420583A200068
:100E80004D65736820706F696E74206F7574206F84
:100E9000662072616E67650A00C48C656BC3A16EC3
:100EA000C3AD206E612075C5BE69762E2E2E00C59D
:100EB000BDC3A1646EC3BD20706F6879622E00450A
:100EC0006E642066696C65206C6973740A00426503
:100ED00067696E2066696C65206C6973740A004EE0
:100EE0006F206D656469610A00286E6F2066696C09
:100EF00065290043757272656E742066696C653A87
:100F000020004E6F74205344207072696E74696EB5
:100F1000670A005344207072696E74696E672062BC
:100F200079746520002E0A0044656C6574696F6EE3
:100F3000206661696C65642C2046696C653A200006
:100F400046696C652064656C657465643A0050722E
:100F5000696E742074696D653A20000A5374617477
:100F6000733A2046696C616D656E742075736564B3
:100F70003A20002C204C6F6E67657374206A6F6294
:100F80003A2000546F74616C2074696D653A2000DA
:100F900053746174733A20002C204661696C656457
:100FA0003A20002C2046696E69736865643A200017
:100FB0005072696E74733A200053746174733A20EE
:100FC000006F6B006F6666003C0237023002290238
:100FD0001B0244454255473A004D31313220536897
:100FE0007574646F776E004D313133205300527544
:100FF0006D6261204F46462E002F2F004D31343553
:1010000020533C696E6465783E206F7574206F666E
:101010002072616E67652028302D31290A003F4A11
:10102000206F7574206F662072616E6765202830AE
:101030002E303120746F20302E33290A0046523A68
:101040000020466C6F773A20003A200020536572EA
:10105000766F2000206F7574206F662072616E6756
:10106000650A00536572766F20004261627973747D
:101070006570205A0050726F6265204F6666736516
:1010800074205A0050726F6265204F6666736574F3
:10109000205A00496E76616C6964206578747275B7
:1010A0006465720A0064697300656E0043290A0072
:1010B00061626C656420286D696E2074656D7020B6
:1010C00000436F6C64206578747275646573206189
:1010D000726520004F4646004F4E006D6D00203B6C
:1010E0002044697374616E6365200046696C616DAC
:1010F000656E742072756E6F757420004D343231D8
:1011000020696E636F727265637420706172616DC5
:10111000657465722075736167650A004D65736853
:1011200020706F696E74206F7574206F6620726115
:101130006E67650A004F6673657479206E6173741B
:101140006176656E79004572723A20546F6F206641
:1011500061722100546F6F206661722066726F6D3C
:10116000207265666572656E636520706F696E7466
:101170000A00454550524F4D204F4B0A00207465E0
:101180006D706572617475726520707265776172D9
:101190006E207472696767657265643A2000207416
:1011A000656D7065726174757265207072657761C6
:1011B000726E207472696767657265643A200020F8
:1011C00074656D7065726174757265207072657793
:1011D00061726E207472696767657265643A200097
:1011E0002074656D706572617475726520707265CA
:1011F0007761726E207472696767657265643A2000
:10120000002074656D70657261747572652070720E
:10121000657761726E207472696767657265643A9A
:1012200020002074656D7065726174757265207040
:1012300072657761726E2074726967676572656442
:101240003A200020204D323036205800486F6D651E
:10125000206F6666736574004361703A00434F4EB9
:101260004649475F4558504F5254004D45415450F0
:1012700041434B00434F4F4C45525F54454D504501
:10128000524154555245004348414D4245525F54E6
:10129000454D5045524154555245004241425953E3
:1012A00054455050494E470041524353004D4F540E
:1012B000494F4E5F4D4F44455300544845524D41B0
:1012C0004C5F50524F54454354494F4E004558547B
:1012D000454E4445445F4D323000435553544F4DC5
:1012E0005F4649524D574152455F55504C4F41441E
:1012F000004C464E5F5752495445004C4F4E475F95
:1013000046494C454E414D45004155544F5245507C
:101310004F52545F53445F53544154555300534408
:101320005F575249544500524550454154004D5570
:101330004C54495F564F4C554D4500534443415220
:10134000440050524F4D50545F535550504F5254DB
:1013500000484F53545F414354494F4E5F434F4DF4
:101360004D414E445300454D455247454E43595F0C
:1013700050415253455200434153455F4C49474801
:10138000545F4252494748544E45535300544F47C7
:10139000474C455F4C494748545300534F465457B8
:1013A0004152455F504F574552004255494C445FAA
:1013B00050455243454E54004C4556454C494E47C6
:1013C0005F44415441005A5F50524F4245005255CC
:1013D0004E4F5554004155544F4C4556454C0050C6
:1013E00052494E545F4A4F420050524F4752455364
:1013F00053004155544F5245504F52545F54454D40
:1014000050004155544F5245504F52545F504F5326
:1014100000564F4C554D4554524943004545505296
:101420004F4D0042494E4152595F46494C455F5429
:1014300052414E534645520053455249414C5F5824
:101440004F4E5F584F4646004649524D5741524510
:101450005F4E414D453A4D61726C696E20322E31BE
:101460002E3220284D617220203720323032332036
:1014700031383A35313A30382920534F55524345A7
:101480005F434F44455F55524C3A676974687562D3
:101490002E636F6D2F4D61726C696E4669726D7748
:1014A0006172652F4D61726C696E2050524F544FBE
:1014B000434F4C5F56455253494F4E3A312E3020E0
:1014C0004D414348494E455F545950453A52756D18
:1014D00062612045585452554445525F434F554E22
:1014E000543A3220555549443A6365646532613255
:1014F000662D343161322D343734382D3962313232
:101500002D633535633632663336376666004732CB
:101510002F47332062616420706172616D6574656C
:1015200072730A00290A0020746F20003F5A206F4E
:101530007574206F662072616E6765202800290A25
:101540000020746F20003F59206F7574206F662053
:1015500072616E676520282D00290A0020746F20B3
:10156000003F58206F7574206F662072616E67654A
:1015700020282D00203B0020204D383531205800F8
:101580005A2D50726F6265204F6666736574004D08
:10159000383400446F6E65207072696E74696E67CE
:1015A0002066696C650A004D3737004D33310025E0
:1015B00069730025696D20256973002569682025F8
:1015C000696D2025697300256964202569682025D7
:1015D000696D2025697300256979202569642025B6
:1015E00069682025696D202569730043686C617AFC
:1015F000656EC3AD2E2E2E00452563202553002099
:10160000573A0043686C617A656EC3AD20706F64B1
:101610006C6FC5BE6B79005A6168C599C3AD76C35E
:10162000A16EC3AD20706F646C6FC5BE6B79002076
:101630006661696C6564212042616420686561743B
:1016400065722069640A00504944204175746F74C2
:10165000756E650023646566696E65204445464184
:10166000554C545F004B6420004B6920004B7020A8
:10167000002066696E697368656421205075742066
:10168000746865206C617374204B702C204B69204A
:10169000616E64204B6420636F6E7374616E74734B
:1016A0002066726F6D2062656C6F7720696E746F53
:1016B00020436F6E66696775726174696F6E2E681C
:1016C0000A00504944204175746F74756E6500209E
:1016D0006661696C6564212074696D656F75740A53
:1016E00000504944204175746F74756E6500206622
:1016F00061696C6564212054656D706572617475F3
:10170000726520746F6F20686967680A00504944E9
:10171000204175746F74756E65005049442043799B
:10172000636C65730025532025692F256900204BC4
:10173000643A2000204B693A2000204B703A200088
:1017400020436C617373696320504944200A002070
:1017500054753A2000204B753A2000206D61783A8C
:101760002000206D696E3A200020643A200020623B
:101770006961733A20005A6168C599C3AD76C3A107
:101780006EC3AD2E2E2E002073746172740A005049
:101790004944204175746F74756E650020666169F7
:1017A0006C6564212054656D706572617475726535
:1017B00020746F6F20686967680A005049442041AF
:1017C00075746F74756E6500504944206175746F4F
:1017D0006D6174696B61004572723A207574663888
:1017E00020666F6E74206E6F7420696E6974696113
:1017F0006C697A65642E004572723A207574663899
:1018000020666F6E74206E6F7420696E69746961F2
:101810006C697A65642E004572723A207574663878
:1018200020666F6E74206E6F7420696E69746961D2
:101830006C697A65642E0002008C8D2F00C5190238
:10184000008F8F2100A41902009A9B2F00751902A6
:1018500000C8C81F0056190200D8D92F0027190246
:1018600000E0E12F00F8180200E5E52100D718029A
:1018700000EFEF1F00B8180200FDFE2F00891820AE
:1018800000200020003A003A00000C0F00FE00008B
:10189000000000FDFE000A000000050A0A06000024
:1018A000502000F80810204080F8050808060000C5
:1018B000502000F8102040F8000C0F00FE0000003F
:1018C0000000EFEF000800000005080806000020F7
:1018D00050208888888870000C0F00FE00000000EF
:1018E00000E5E5000A000000050A0A060000502095
:1018F000002020F820202018000C0F00FE0000001F
:101900000000E0E1000A000000050A0A060000509D
:101910002000708880700888700508080600005054
:10192000200078807008F0000C0F00FE000000001E
:1019300000D8D9000A000000050A0A06000050205D
:1019400000F08888F0A09088050808060000502064
:1019500000B0C8808080000C0F00FE000000000076
:10196000C8C8000800000005080806000050200054
:10197000B0C8888888000C0F00FE00000000009AA4
:101980009B000A000000050A0A060000502000F82B
:101990008080F08080F80508080600005020007064
:1019A00088F08070000C0F00FE00000000008F8F98
:1019B000000A000000060A0A0600001408000808D1
:1019C0007888888878000C0F00FE00000000008CEA
:1019D0008D000A000000050A0A0600005020007071
:1019E00088808080887005080806000050200070FC
:1019F00088808870000C0F00FE07022503BB01FFE2
:101A0000FE0AFE08FE05080806000040F0C88888A7
:101A1000987810050808060000C0F888888888882B
:101A2000F80505050600012030F8302005080806F5
:101A300000002070F820202020E00509090600FFA2
:101A40002070A8A8B888887020070505070001D86D
:101A50006C366CD80509090600FFF8A888888888C4
:101A600088A8F8050A0A0600FE205050505088A8A1
:101A7000A8887003030306000340A040FFFFFFFF98
:101A8000FFFFFFFFFFFFFFFFFFFFFFFFFFFFFFFF66
:101A9000FFFF0000000605FF010707060200808027
:101AA0008080800080030303060105A0A0A0050636
:101AB0000606000050F85050F8500509090600FFCE
:101AC0002070A8A07028A87020050707060000C88D
:101AD000C8102040989805070706000040A0A040C5
:101AE000A8906801030306020580808003090906A7
:101AF00001FF20404080808040402003090906010A
:101B0000FF8040402020204040800507070600005D
:101B100020A8702070A8200505050600012020F8E7
:101B200020200203030601FFC040800501010600DA
:101B300003F8020202060100C0C005070706000004
:101B400008101020404080050707060000708898A4
:101B5000A8C8887003070706010040C04040404005
:101B6000E0050707060000708808102040F8050708
:101B700007060000F80810300888700507070600FF
:101B80000010305090F81010050707060000F8808C
:101B9000F008088870050707060000304080F088CC
:101BA0008870050707060000F8081010202020059F
:101BB0000707060000708888708888700507070688
:101BC000000070888878081060020505060100C0D2
:101BD000C000C0C00206060601FFC0C000C04080B1
:101BE000030505060101204080402005030306008F
:101BF00002F800F803050506010180402040800539
:101C0000070706000070881020200020050707063F
:101C100000007088B8A8B88070050707060000703B
:101C20008888F8888888050707060000F04848700B
:101C30004848F0050707060000708880808088709B
:101C4000050707060000F04848484848F005070720
:101C5000060000F88080F08080F805070706000085
:101C6000F88080F08080800507070600007088807B
:101C700080988870050707060000888888F888889B
:101C800088030707060100E04040404040E00507A8
:101C900007060000381010101090600507070600B6
:101CA000008890A0C0A090880507070600008080EB
:101CB00080808080F805070706000088D8A88888FB
:101CC00088880507070600008888C8A898888805BE
:101CD000070706000070888888888870050707064F
:101CE0000000F08888F080808005070706000070FB
:101CF000888888A89068050707060000F08888F0A3
:101D0000A09088050707060000708880700888701A
:101D1000050707060000F8202020202020050707DF
:101D200006000088888888888870050707060000F4
:101D30008888888850502005070706000088888812
:101D400088A8A850050707060000888850205088FA
:101D500088050707060000888850202020200507F6
:101D600007060000F80810204080F8030909060162
:101D7000FFE080808080808080E00507070600000B
:101D8000804040201010080309090601FFE02020D0
:101D90002020202020E005030306000520508805B0
:101DA00001010600FEF8030303060105804020053B
:101DB000050506000070087888780507070600000A
:101DC0008080F0888888F005050506000070808016
:101DD0008870050707060000080878888888780555
:101DE00005050600007088F08070050707060000F2
:101DF000304840E04040400507070600FE708888F4
:101E0000887808700507070600008080F0888888B9
:101E1000880307070601004000C0404040E0040975
:101E2000090601FE10003010101010906005070721
:101E300006000080808890E0908803070706010074
:101E4000C04040404040E0050505060000D0A8A87D
:101E5000A8A8050505060000B0C8888888050505FE
:101E600006000070888888700507070600FEF08865
:101E70008888F080800507070600FE7888888878C3
:101E80000808050505060000B0C880808005050526
:101E900006000078807008F0050707060000202083
:101EA000F820202018050505060000888888986815
:101EB00005050506000088888850200505050600F0
:101EC000008888A8A8500505050600008850205005
:101ED000880507070600FE88888850204080050591
:101EE00005060000F8102040F80309090601FF204C
:101EF00040404080404040200109090602FF8080A8
:101F0000808080808080800309090601FF80404036
:101F100040204040408005030306000248A890FF8F
:101F2000FFFFFFFFFFFFFFFFFFFFFFFFFFFFFFFFC1
:101F3000FFFFFFFFFFFFFFFFFFFFFFFFFFFFFFFFB1
:101F40000000000605FF01070706020080008080F0
:101F50008080800507070600FF2070A8A0A87020D9
:101F6000050707060000304840E04048B005050579
:101F7000060000A8508850A80507070600008850F2
:101F8000F820F820200107070602008080800080EA
:101F9000808004080806010070806090906010E066
:101FA000030101060107A00607070600007884B4B4
:101FB000A4B4847803050506010460A06000E00570
:101FC00005050600002850A050280503030600015F
:101FD000F80808030101060103E0060707060000F0
:101FE0007884B4A4A48478050101060007F80404E9
:101FF0000406010560909060050707060000202098
:10200000F8202000F803050506010440A02040E068
:10201000030505060104C0204020C0030303060198
:10202000052040800507070600FE88888898E8801C
:102030008005080806000078E8E8E86828282802F3
:102040000202060203C0C00302020601FE20C00312
:10205000050506010440C04040E0030505060105F2
:1020600040A04000E0050505060000A0502850A053
:10207000050A0A06000040C048506050B050781071
:10208000050A0A06000040C048506050A8081038F1
:10209000050A0A060000C0204830E050B050781011
:1020A00005070706000020002020408870050A0A66
:1020B000060000402000708888F8888888050A0A91
:1020C000060000102000708888F8888888050A0AB1
:1020D000060000205000708888F8888888050A0A61
:1020E00006000068B000708888F8888888050909AB
:1020F0000600005000708888F8888888050A0A065B
:102100000000205020708888F88888880507070616
:10211000000078A0A0F0A0A0B80509090600FE7094
:102120008880808088701060050A0A0600004020C0
:1021300000F88080F08080F8050A0A060000102070
:1021400000F88080F08080F8050A0A060000205020
:1021500000F88080F08080F8050909060000500032
:10216000F88080F08080F8030A0A060100804000B1
:10217000E04040404040E0030A0A060100204000E1
:10218000E04040404040E0030A0A06010040A00051
:10219000E04040404040E0030909060100A000E0A3
:1021A0004040404040E0050707060000704848E80E
:1021B000484870050A0A06000068B0008888C8A868
:1021C000988888050A0A06000040200070888888E0
:1021D000888870050A0A0600001020007088888828
:1021E000888870050A0A06000020500070888888D8
:1021F000888870050A0A06000068B0007088888820
:102200008888700509090600005000708888888851
:1022100088700505050600018850205088050909C9
:102220000600FF087098A8A8A8C87080050A0A06CA
:10223000000040200088888888888870050A0A067F
:10224000000010200088888888888870050A0A069F
:102250000000205000888888888888700509090651
:102260000000500088888888888870050A0A06005F
:102270000010200088885020202020040707060135
:102280000080E0909090E0800507070600007088CD
:1022900090A09088B0050808060000402000700853
:1022A00078887805080806000010200070087888F3
:1022B0007805080806000020500070087888780526
:1022C000080806000068B0007008788878050707DD
:1022D000060000500070087888780508080600009D
:1022E00020502070087888780505050600007028C1
:1022F00070A0780507070600FE708880887010605F
:102300000508080600004020007088F0807005086D
:10231000080600001020007088F08070050808068C
:1023200000002050007088F080700507070600004C
:1023300050007088F080700308080601008040009B
:10234000C0404040E0030808060100204000C040B3
:102350004040E003080806010040A000C0404040A3
:10236000E0030707060100A000C0404040E0050967
:1023700009060000502050087888888870050808F1
:1023800006000068B000B0C8888888050808060004
:10239000004020007088888870050808060000103A
:1023A000200070888888700508080600002050000A
:1023B000708888887005080806000068B00070887A
:1023C00088887005070706000050007088888870AC
:1023D0000505050600012000F8002005050506009A
:1023E000007898A8C8F0050808060000402000887A
:1023F00088888870050808060000102000888888F2
:1024000088700508080600002050008888888870B9
:1024100005070706000050008888888870050A0AAA
:102420000600FE1020008888885020408005090999
:102430000600FE8080F0888888F080800509090603
:1024400000FE5000888888502040801FE020102324
:1024500010249010A011202210241037B00840043E
:102460008003001FE02010211023101520112021CF
:1024700010211031300840048003001FE03FF03C81
:10248000F03B701F601EE03DF03BF038700FC0075E
:102490008003001FE03FF03EF03CF01AE01EE03EFB
:1024A000F03EF03EF00FC007800300565953554EE2
:1024B0005554C38D2046494C414D454E5455005A04
:1024C00041564544454EC38D2046494C414D454EED
:1024D00054550056C39D4DC49A4E412046494C4127
:1024E0004D454E54550041425300504C4100506FF1
:1024F000646C6FC5BE6B61004B6F6D6F72610045A0
:102500000020002500202020202020200020202046
:1025100020002020202020202000657272006324EB
:102520004B2493247B243FFFF038007030FC302094
:10253000FC102078102030102C00D02E31D02F7BB2
:10254000D02F7BD02E31D02C00D02030102078100E
:1025500020FC1030FC303800703FFFF03FFFF038B7
:1025600000703186302387102787902F87D02F0364
:10257000D02030102078102078102030102F03D079
:102580002F87D02787902387103186303800703FFF
:10259000FFF01FFFF81FFFF8041040020820020898
:1025A00020041040082080104100104100082080C5
:1025B0000410400000001FFFF81FFFF8256C642581
:1025C000636D005469736B207A7275C5A1656E00E6
:1025D0004D32350050617573696E672E2E2E004D99
:1025E000323400454550524F4D2056657273696F25
:1025F0006E204572726F7200454550524F4D204912
:102600006E646578204572726F7200454550524F76
:102610004D20435243204572726F72003F0049675C
:102620006E6F726500526573657400496E69632E42
:1026300020454550524F4D005A206F667365740017
:1026400044C3A96C6B61206D6D2073656E7A2E6634
:10265000696C2E005A6176C3A973742066696C6137
:102660006D656E74202A005A6176C3A97374206D5B
:102670006D00567973756E6F75742066696C616D47
:10268000656E74202A00567973756E6F7574206DAF
:102690006D0046696C2E205072756D2E202A004602
:1026A000696C2E205072756D2E0045206E61206D74
:1026B0006DC2B30020082066616B74002008206D95
:1026C0006178002008206D696E00567970005A61AB
:1026D00070004175746F7465706C6F74610056544E
:1026E000726176204D696E00566D696E004D61789D
:1026F000204020527963686C6F7374004D617820BC
:102700004520416B63656C004D6178204020416B32
:1027100063656C00412D70C599656A657A640041F6
:102720002D72657472616B74005A727963686C0003
:102730005A206F667365740050726F62652059206D
:102740004F66667365740050726F62652058204F43
:1027500066667365740040206B726F6BC5AF2F6D3A
:102760006D0044616CC5A1C3AD206E617374617668
:10277000656EC3AD003F005A7275C5A1697400490A
:102780006E696369616C697A616365004D343238E2
:1027900000496E69632E20454550524F4D004669F1
:1027A0006C616D656E74005465706C6F746100547B
:1027B0004D432062756469C48D65004B726F6BC5B3
:1027C000AF2F6D6D0050726F6265204F6666736546
:1027D0007473004F646368796C6B612073706F6A07
:1027E0006500416B63656C6572616365004D61787E
:1027F00020527963686C6F7374004E6173746176F4
:102800006974206F6673657479004B6F6E666967D3
:102810007572616365005A64766968205A00322EC9
:1028200020747279736B6120400053572076C3BDCA
:1028300073756E20424C546F75636800424C546F40
:10284000756368207A6173756E6F757400424C54BD
:102850006F75636820767973756E6F757400424C7E
:10286000546F7563682073656C662D7465737400AE
:10287000424C546F75636820726573657400506FC5
:10288000646C6FC5BE6B6100547279736B610052EA
:102890007963686C6F73742076656E742E004B6F6D
:1028A0006E6669677572616365004F626E6F766907
:1028B000742076C3BD63686F7AC3AD004E61C48D6A
:1028C000C3AD7374206E6173746176656EC3AD00C1
:1028D000556C6FC5BE6974206E6173746176656EE8
:1028E000C3AD005A6168C599C3A1742024206E61EC
:1028F000737400567970005A61700053656E7A6F78
:10290000722066696C616D656E74750056C3BD6D2D
:10291000C49B6E61206EC3A17374726F6A650042BE
:102920004C546F756368004F6673657479206EC38D
:10293000A17374726F6AC5AF005A206F66736574B5
:102940000044616CC5A1C3AD206E6173746176658E
:102950006EC3AD00486C61766EC3AD206E6162C31C
:10296000AD646B61004D37303220542564004D3624
:10297000303020423020542564004D373032203B27
:102980002564004D373031205425640056796DC4DC
:102990009B6E69742066696C616D656E7400567912
:1029A00073756E6F75742066696C616D656E740009
:1029B0005A6176C3A973742066696C616D656E7423
:1029C000005A6168C599C3A17420766C6173746EF6
:1029D000C3AD005A6168C599C3A1742024005A7020
:1029E000C49B7400567973756E6F75742066696C3C
:1029F000616D656E74202A005A6176C3A9737420D4
:102A000066696C616D656E74202A0056796DC49B91
:102A10006E69742066696C616D656E74202A004869
:102A20006C61766EC3AD206E6162C3AD646B610094
:102A30004F626E6F766974207469736B005679709B
:102A4000005A61700053656E7A6F722066696C611E
:102A50006D656E7475005679746C61C48D697420EF
:102A600076C3AD63004D4FC5BD4E4F535449204F03
:102A7000424E4F56454EC38D3A005449534B205059
:102A80004F5A4153544156454E002F0020002020FC
:102A9000547279736B613A20005061726B6F76C328
:102AA000A16EC3AD2E2E2E000000C48C656B656A2E
:102AB00074652070726F73C3AD6D006E61207A61B2
:102AC00068C3A16A656EC3AD0076C3BD6DC49B6E5D
:102AD000792066696C616D656E747500C48C656B78
:102AE000656A74652070726F73C3AD6D006E61208E
:102AF000767973756E7574690066696C616D656E63
:102B0000747500C48C656B656A74652070726F7330
:102B1000C3AD6D006E61206E6168C599C3A174C3B9
:102B2000AD2074722E00004B6C696B6EC49B746593
:102B30002070726F006E6168C599C3A174C3AD2027
:102B4000747279736B790000566C6FC5BE74652022
:102B500066696C616D656E74006120737469736B76
:102B60006EC49B746500746C61C48DC3AD746B6F6F
:102B70002E2E2E00C48C656B656A74652070726F92
:102B800073C3AD6D006E61207A61766564656EC356
:102B9000AD0066696C616D656E7475005374696B28
:102BA0006EC49B746520746C61C48DC3AD746B6F0F
:102BB0000070726F206F626E6F76656EC3AD2074A9
:102BC00069736B750000C48C656B656A74652070F1
:102BD000726F73C3AD6D006E6120706F6B7261C4F4
:102BE0008D6F76C3A16EC3AD007469736B750056AB
:102BF00079C48D6B656A7465206E61007679746C3A
:102C000061C48D656EC3AD00004D3630302042305A
:102C100020542569004D37303120542569004D3747
:102C2000303220542569003E2000256C642E256931
:102C30006D0043656C6B656D207679746C61C48D35
:102C4000656E6F003E20004E656A64656CC5A1C369
:102C5000AD207469736B003E200043656C6B6F762A
:102C6000C3BD20C48D617300446F6B6F6EC48D65EE
:102C70006E6F003A2000506FC48D657420746973C4
:102C80006BC5AF003A200031353000350042454475
:102C90003A204550434F53203130304B00323835C5
:102CA00000350045323A20415443203130344754F6
:102CB0002D3200536C65646F76C3A16EC3AD20C323
:102CC000BA6E696B753A205A4150005465706C6F4A
:102CD0007461206D617800323835005465706C6F16
:102CE0007461206D696E00350045313A20415443CE
:102CF0002031303447542D32004E61702E207A64DA
:102D0000726F6A0047656E657269630050726F7416
:102D10006F6B6F6C00312E3000527963686C6F738B
:102D200074003131353230300052756D62610042CD
:102D3000696C696E65C3A1726EC3AD20726F766EE9
:102D4000C3A16EC3AD00457874727564C3A972796E
:102D50000032006D61726C696E66772E6F7267006B
:102D600052756D626100323032322D31322D313781
:102D700000322E312E32004D61726C696E00537438
:102D80006174697374696B61005465726D69737401
:102D90006F727900496E666F206F2064657363659A
:102DA00000496E666F206F207469736BC3A1726EE9
:102DB000C49B00486C61766EC3AD206E6162C3AD8A
:102DC000646B61003F005A70C49B740053746F7051
:102DD00000C5BDC3A1646EC3A1205344206B6172C2
:102DE0007461005469736B6E6F7574207A2053445C
:102DF0000056796DC49B6E6974206DC3A9646975B2
:102E00006D004D32310056796DC49B6E6974206639
:102E1000696C616D656E74004F207469736BC3A13A
:102E2000726EC49B004B6F6E6669677572616365F5
:102E3000005465706C6F746100506F687962004F68
:102E4000626E6F766974207469736B00446F6C6195
:102E500064C49B6EC3AD207469736B75005A617353
:102E60007461766974207469736B00506F7A617352
:102E70007461766974207469736B00496E666F20A3
:102E80006F6272617A6F766B61003F005370757389
:102E9000746974207469736B005A7275C5A1697482
:102EA000005469736B0043616E6E6F7420656E74BD
:102EB0006572207375626469723A200002202E2EBA
:102EC00000486C61766EC3AD206E6162C3AD646B09
:102ED0006100506F73756E6F7574206F20246D6D77
:102EE00000302E30323500506F73756E6F75742060
:102EF0006F20302C316D6D00506F73756E6F75746F
:102F0000206F20316D6D00506F73756E6F7574207A
:102F10006F2031306D6D002100486F74656E642044
:102F20006A652073747564656EC3BD005A70C49B76
:102F30007400506F6B7261C48D6F76617400457858
:102F400074727564C3A972202A004578747275641E
:102F5000C3A97200506F73756E6F75742040005076
:102F60006F6879620055766F6C6E6974206D6F744E
:102F70006F7279004D38340056C3BDC5A16B612016
:102F800073726F766EC3A176C3A16EC3AD0056791E
:102F900070005A6170005679726F766E617420709D
:102FA0006F646C6FC5BE6B75005679726F766E611B
:102FB0007420706F646C6FC5BE6B75004732394EFC
:102FC000004732385A004732385900486F6D652043
:102FD00040004732385800446F6D6F76736BC3A161
:102FE00020706F7A6963650047323800506F7375DF
:102FF0006E6F7574206F737900486C61766EC3AD27
:10300000206E6162C3AD646B61005A6168C599C38B
:10301000A174202420706F646C6FC5BE005A616873
:10302000C599C3A17420242076C5A165005A6168A2
:10303000C599C3A174202420656E64207E005A6166
:1030400068C599C3A1742024207E005465706C6FFC
:10305000746100EA24E6245A63686C616469740050
:103060005A6168C599C3A174202400527963686CC1
:103070006F73742076656E742E207E00506F646CC2
:103080006FC5BE6B6100547279736B61207E00481E
:103090006C61766EC3AD206E6162C3AD646B61001E
:1030A0004532004531005932005A00590058004558
:1030B00032004531005A00593200590056797000EB
:1030C0005A6170005800544D432062756469C48D84
:1030D0006500537465616C746843686F7020706F2D
:1030E000766F6C656E005265C5BE696D206B726F40
:1030F0006BC5AF0050726F75642062756469C48DD2
:10310000C5AF0044616CC5A1C3AD206E617374612D
:1031100076656EC3AD005A206F6673657400507299
:10312000C5AF746F6B207E005072C5AF746F6B00BB
:10313000527963686C6F73742076656E742E207E8E
:1031400000506F646C6FC5BE6B6100547279736B15
:1031500061207E00527963686C6F737400486C6103
:10316000766EC3AD206E6162C3AD646B61006F703B
:10317000656E00545249474745524544003A200085
:1031800066696C616D656E74007A5F6D696E007959
:103190005F6D696E00785F6D696E005265706F7269
:1031A00074696E6720656E6473746F7020737461E8
:1031B0007475730A0000007A430000964300003ED5
:1031C0004300000000000000000000000020746FB9
:1031D0006F206C6F6E6720657874727573696F6E9F
:1031E0002070726576656E7465640A0020636F6C8A
:1031F0006420657874727573696F6E20707265767D
:10320000656E7465640A00446F6DC5AF2025732533
:10321000732573207072766EC3AD0000000000004D
:10322000000000000000005761726E696E673A206E
:10323000486F6D696E672042756D702044697669CC
:10324000736F72203C20310A0002020400007A43AE
:103250000000964300003E430000A0400000A04054
:1032600000000040DB0FC93F45BCDA3F8FB302408E
:10327000FCF0274056946140FE4B9B4084A5D8400B
:10328000E0231841346A5641E859974164DBD5413F
:103290006E271742B4B75542CE1A9742C8AED542F0
:1032A000B5885A43D40684BFA65FA7BF7443E0BF66
:1032B00010B11AC01C2C58C0E8F697C0B849D6C047
:1032C0004E4E17C124D355C1802497C1A0B5D5C196
:1032D000121A17C244AE55C2781797C26CACD5C249
:1032E00067885AC320746F6F206C6F6E6720657893
:1032F00074727573696F6E2070726576656E746531
:10330000640A0020636F6C64206578747275736959
:103310006F6E2070726576656E7465640A005A413E
:1033200053544156454E4F2E20005072696E7465BD
:10333000722073746F707065642064756520746F9B
:10334000206572726F72732E2046697820746865EA
:10335000206572726F7220616E6420757365204DF6
:1033600039393920746F20726573746172742E203C
:103370002854656D7065726174757265206973207B
:1033800072657365742E20536574206974206166BC
:103390007465722072657374617274696E67290A4C
:1033A00000206572726F72202D20726573746172D5
:1033B000742077697468204D3939390A00424C54B9
:1033C0006F7563680021212053544F502063616C56
:1033D0006C65642062656361757365206F662000AB
:1033E00053657474696E67732053746F72656400FB
:1033F000290A002062797465733B206372632000A0
:1034000053657474696E67732053746F72656420BA
:10341000280048617264636F646564204465666176
:10342000756C742053657474696E6773204C6F619A
:103430006465640020286D6D2900203B204C657672
:10344000656C696E67200020204D343230205300B7
:103450004175746F20426564204C6576656C696EB9
:10346000670020460020420020480020204D3134D3
:10347000352053004D6174657269616C2068656127
:1034800074757020706172616D657465727300206F
:10349000543120450020543020450020493100534C
:1034A00074657070657220647269766572206375E8
:1034B0007272656E7400543120450054302045000E
:1034C0004931002058004472697665722073746532
:1034D0007070696E67206D6F646500203B205365D6
:1034E0006E736F72200020440020204D3431322052
:1034F000530046696C616D656E742072756E6F75F0
:10350000742073656E736F7200204A00202047326A
:1035100039205720490020204D3134392043203BA9
:1035200020556E69747320696E2043656C736975EC
:10353000730A0054656D706572617475726520550B
:103540006E697473002020473231203B004C696E55
:1035500065617220556E69747300454550524F4D38
:10356000206461746173697A65206572726F722E6E
:103570000A00290A002062797465733B2063726334
:1035800020002073746F7265642073657474696EB3
:1035900067732072657472696576656420280020FF
:1035A0002863616C63756C6174656429210A00206D
:1035B000213D2000454550524F4D20435243206D40
:1035C00069736D61746368202D202873746F726550
:1035D000642920002053697A653A2000496E6465A9
:1035E000783A20000000484200004842000088412C
:1035F0000000A0400000A2420000A2420000CA4316
:103600000000CB43E8030000E80300006400000072
:10361000E8030000204D61726C696E3D5638372911
:103620000A00454550524F4D2076657273696F6EA2
:10363000206D69736D617463682028454550524F51
:103640004D3D0020436F756E7420583A00000045D0
:103650003200506F646C6FC5BE6B61004531004530
:1036600000626564002C2073797374656D20737437
:103670006F7070656421204865617465725F4944AC
:103680003A20005659534F4BC381205445504C4F5C
:103690005441004D415854454D502074726967673C
:1036A00065726564004368796261207A6168C599D2
:1036B000C3AD76C3A16EC3AD0048656174696E6722
:1036C000206661696C65640070012C01900127011E
:1036D000B0012201C0011D01F00118011002130107
:1036E00030020E016002090190020401C002FF00D5
:1036F0000003FA004003F5008003F000D003EB0064
:103700002004E6007004E100E004DC004005D7007E
:10371000C005D2004006CD00D006C8008007C30017
:103720003008BE00F008B900C009B400B00AAF000C
:10373000B00BAA00D00CA500000EA000500F9B00FB
:10374000C01096005012910000148C00C015870024
:10375000B0178200B0197D00D01B7800001E7300E6
:1037600040206E0090226900F024640040275F0032
:1037700090295A00E02B5500102E500020304B00AD
:1037800010324600E033410090353C0010373700DE
:1037900070383200A0392D00B03A2800A03B230039
:1037A000603C1E00103D1900903D1400103E0F00BB
:1037B000703E0A00C03E0500003F0000403FFBFF96
:1037C000803FF6FFC03FF1FF4EC38D5A4B4120545E
:1037D00045504C4F5441004D494E54454D50207476
:1037E0007269676765726564005445504C4F544E6A
:1037F000C38D20C39A4E494B00546865726D616C4D
:103800002052756E6177617900202F0020400020E2
:1038100042403A0020403A0020573A00496E766113
:103820006C69642065787472756465720A0041631E
:10383000746976652045787472756465723A200003
:103840007C3C3E5E2B3D3F2F5B5D3B2C2A225C0087
:103850004D6564696120496E6974204661696C0038
:1038600053442063617264206F6B0A006F70656E51
:10387000526F6F74206661696C65640A00766F6CC4
:10388000756D652E696E6974206661696C65640A80
:10389000004E6F20534420636172640A0053442039
:1038A000636172642072656C65617365640A000A05
:1038B0004D3234004D3233202573002E0A006F70D4
:1038C000656E206661696C65642C2046696C653A9A
:1038D000200046696C652073656C65637465640AD5
:1038E000002053697A653A200046696C65206F7044
:1038F000656E65643A2000454E4420535542524F50
:103900005554494E450A002220706F7300222070E2
:103910006172656E743A2200535542524F555449B4
:103920004E452043414C4C207461726765743A22C5
:103930000053756263616C6C204F766572666C6FC4
:1039400077004578636565646564206D6178205310
:103950005542524F5554494E452064657074683A3B
:103960000057726974696E6720746F2066696C65B0
:103970003A2000667265736800646F696E670020A4
:1039800066696C653A20004E6F7720002F61757470
:103990006F25632E67000000200023002600290009
:1039A0002C002F0032000001000003010601090174
:1039B0006D61726C696E66772E6F726700322E31A0
:1039C0002E32001FFFFFFFFFFFFF6000000000011D
:1039D000FF400000000000FF8000000000007F8327
:1039E000CF00000C303F87FF80000C301F867980AD
:1039F000000C000F8C30C7838C30E78C30CFC7CCE5
:103A000031F38C30DCECEC33B98C30D86C6C33197E
:103A10008C30D06C0C33198C30D86C0C33198C3042
:103A2000DC6C0E3B198C30CF7C079F198C30C77C27
:103A3000038F194000000000000260000000000039
:103A4000061FFFFFFFFFFFF81000C90210012C0145
:103A50004001220170011801B0010E01F0010401C2
:103A60005002FA00B002F0003003E600D003DC00A0
:103A70009004D2007005C800A006BE000008B40083
:103A8000B009AA00D00BA000600E960060118C0057
:103A90000015820020197800C01D6E00A02264006D
:103AA000B0275A00902C500000314600E0343C0012
:103AB00010383200903A2800603C1E00A03D1400EF
:103AC000803E0A00203F00002020506C616E6E6531
:103AD0007242756666657242797465733A20002099
:103AE00046726565204D656D6F72793A20002043FE
:103AF0006F6D70696C65643A204D617220203720CB
:103B0000323032330A00204C617374205570646186
:103B10007465643A20323032322D31322D31372003
:103B20007C20417574686F723A2053504D0A004DE5
:103B300061726C696E20322E312E320A0020536F72
:103B40006674776172652052657365740A00205748
:103B500061746368646F672052657365740A00203E
:103B600042726F776E206F75742052657365740AA8
:103B7000002045787465726E616C205265736574BF
:103B80000A00506F77657255700A00737461727421
:103B90000A004732385859004D31303031006F6BD0
:103BA000006572726F722077726974696E67207433
:103BB0006F2066696C650A00446F6E6520736176DC
:103BC000696E672066696C652E0A004D32390045C2
:103BD0006E6473746F70790025532025632025630C
:103BE00020256320256300205A3A0020593A0020FE
:103BF000583A00656E6473746F7073206869743A24
:103C0000200000002100240027002A002D003000A1
:103C1000330001010000040107010A010000220035
:103C2000250028002B002E00310034000201000086
:103C3000050108010B010505050507050808080829
:103C4000020202020A0A0808040404040101010134
:103C5000010101010303030303030303040707072F
:103C60000C0C0C0C0C0C0C0C0202020206060606D4
:103C7000060606060B0B0B0B0B0B0B0B01021020A1
:103C80002008081020401020408002010201080492
:103C90000201010204081020408080402010080426
:103CA000020180040201804020100804020108047F
:103CB00002010102040810204080010204081020C3
:103CC000408000000A0B02090C0D0E0807030401D6
:103CD00000000000000000000000000000000000E4
:103CE00000000000000000000000000000001211B1
:103CF00010000000000000000000000000000000B4
:103D0000000000000000000024F404D9201BC40CB3
:103D10005C0E9804C4095F0265077101F405F9009F
:103D2000FB04B30048048700C10369005803550031
:103D300003034500BE023A008402310053022A0008
:103D40002902250004022000E4011C00C80119001A
:103D5000AF011700980114008401130071011000D5
:103D60006101100051010E0043010D0036010B00EE
:103D70002B010B0020010B00150109000C010900AB
:103D800003010800FB000800F3000800EB00070037
:103D9000E4000600DE000600D8000600D20006009F
:103DA000CC000500C7000500C2000500BD000400EE
:103DB000B9000400B5000400B1000400AD00040027
:103DC000A9000400A5000300A20003009F00040056
:103DD0009B0003009800030095000200930003007D
:103DE000900003008D0002008B0003008800020099
:103DF0008600020084000300810002007F000200B0
:103E00007D0002007B0002007900020077000100C3
:103E100076000200740002007200010071000200CE
:103E20006F0002006D0001006C0002006A000100DA
:103E300069000200670001006600010065000100E2
:103E400064000200620001006100010060000100E6
:103E50005F0002005D0001005C0001005B000100EA
:103E60005A000100590001005800010057000100EC
:103E700056000100550001005400010053000000ED
:103E800053000100520001005100010050000100E8
:103E90004F0001004E0000004E0001004D000100E7
:103EA0004C0001004B0000004B0001004A000100E3
:103EB00049000100480000004800010047000100DF
:103EC00046000000460001004500000045000100DA
:103ED00044000100430000004300010042000000D4
:103EE00042000100410000004100010040000100CB
:103EF0003F0000003F0001003E0000003E000100C6
:103F00003D0000003D0001003C0000003C000000BE
:103F10003C0001003B0000003B0001003A000000B3
:103F20003A000100390000003900010038000000AB
:103F300038000000380001003700000037000100A1
:103F40003600000036000000360001003500000099
:103F5000350000003500010034000000340000008E
:103F60003400010033000000330000003300010082
:103F70003200000032000000320001003100000079
:103F8000310000003100010030000000300000006E
:103F9000300001002F0000002F0000002F00000063
:103FA0002F0001002E0000002E0000002E00010056
:103FB0002D0000002D0000002D0000002D0001004C
:103FC0002C0000002C0000002C0000002C00010040
:103FD0002B0000002B0000002B0000002B00010034
:103FE0002A0000002A0000002A0000002A00010028
:103FF000290000002900000029000000290000001D
:10400000290001002800000028000000280000000E
:104010002800000028000100270000002700000001
:1040200027000000270000002700010026000000F4
:1040300026000000260000002600000026000100E7
:1040400025000000250000002500000025000000DC
:1040500025000000250001002400000024000000CD
:1040600024000000240000002400010023000000C0
:1040700023000000230000002300000023000000B4
:1040800023000000230001002200000022000000A5
:104090002200000022000000220000002200010097
:1040A000210000002100000021000000210000008C
:1040B000210000002100000021000100200000007C
:1040C0002000000020000000200000002000000070
:1040D0002000000020000000200001001F00000060
:1040E0001F0000001F0000001F0000001F00000054
:1040F0001F0000001F0001001E0000001E00000045
:104100001E0000001E00000024F4D43050C38E2096
:10411000C2A24017828B7011127A910D816CD90A5C
:10412000A861E108C7586607615143061E4B5D054B
:10413000C145A7041A411104093D9803713931039F
:104140004036DB0265339102D4305402802E1D02CA
:10415000632CEE01752AC501B028A001102781014A
:104160008F2564012B244B01E0223401AC211F0177
:104170008D200D01801FFC00841EED00971DDF00C7
:10418000B81CD200E61BC600201BBC00641AB2009B
:10419000B219A8000A19A0006A189900D117910055
:1041A00040178B00B516840031167E00B3157900D8
:1041B0003A157300C7146F0058146A00EE136600B6
:1041C0008813630025135E00C7125B006C12570052
:1041D00015125400C111510070114F0021114B00F4
:1041E000D61049008D1047004610440002104200CE
:1041F000C00F4000800F3E00420F3C00060F3B0006
:10420000CB0E3800930E37005C0E3500270E3400BD
:10421000F30D3200C10D3100900D3000600D2E0005
:10422000320D2D00050D2C00D90C2B00AE0C2900F1
:10423000850C29005C0C2700350C27000E0C26008D
:10424000E80B2400C40B2400A00B23007D0B2300EB
:104250005A0B2100390B2100180B2000F80A1F000F
:10426000D90A1E00BB0A1E009D0A1D00800A1D00FF
:10427000630A1C00470A1B002C0A1B00110A1A00C3
:10428000F7091A00DD091900C4091900AB09190062
:10429000920917007B091800630917004C091600E2
:1042A00036091600200916000A091500F508150040
:1042B000E0081400CC081400B8081400A408140086
:1042C000900813007D0812006B08130058081200B4
:1042D00046081200340811002308110012081100CA
:1042E00001081100F0071000E0071000D0071000CF
:1042F000C0071000B0070F00A107100091070E00C3
:1043000083070F0074070F0065070E0057070E00A4
:1043100049070E003B070D002E070E0020070D0079
:1043200013070D0006070D00F9060C00ED060D0041
:10433000E0060C00D4060C00C8060C00BC060C00FD
:10434000B0060C00A4060B0099060C008D060B00AD
:1043500082060B0077060B006C060B0061060A0054
:1043600057060B004C060A0042060A0038060A00EF
:104370002E060A0024060A001A060A001006090082
:1043800007060A00FD050900F4050900EB05090010
:10439000E2050900D9050900D0050900C705090093
:1043A000BE050900B5050800AD050800A505090012
:1043B0009C050800940508008C0508008405080089
:1043C0007C050800740508006C05070065050800F9
:1043D0005D050700560508004E0507004705070064
:1043E0004005080038050700310507002A050700C9
:1043F000230507001C050600160507000F0507002A
:104400000805060002050700FB040600F504070086
:10441000EE040600E8040600E2040700DB040600E0
:10442000D5040600CF040600C9040600C304060034
:10443000BD040600B7040600B1040500AC04060084
:10444000A6040600A00405009B04060095040500D0
:10445000900406008A040500850405008004060017
:104460007A04050075040500700405006B0405005E
:1044700066040500610405005C040500570405009E
:10448000520405004D0405004804050043040500DE
:104490003E0404003A04050035040500300404001D
:1044A0002C04050027040400230405001E04040056
:1044B0001A04040016040500110404000D0404008D
:1044C000090405000404040000040400FC030400C3
:1044D000F8030400F4030400F0030400EC030400F8
:1044E000E8030400E4030400E0030400DC03040028
:1044F000D8030400D4030400D0030400CC03040058
:10450000C8030300C50303003A2E00007B1D000012
:10451000181100004A090000DB0400007C020000C2
:1045200041010000A1000000200020002000506197
:10453000726B6F76C3A16EC3AD2073656C68616CDE
:104540006F00FFFFFF50726F62696E6720466169FE
:104550006C65640A004B616C69627261636520730B
:10456000656C68616C6100205A3A200020593A203D
:104570000042656420583A200043616E6E6F7420DB
:104580006F70656E207375626469722000496E7386
:104590006572742066696C616D656E7420616E640D
:1045A00020707265737320627574746F6E0A0049AF
:1045B0006E736572742066696C616D656E742061DE
:1045C0006E6420707265737320627574746F6E0A06
:1045D00000220A00556E6B6E6F776E20636F6D6DF3
:1045E000616E643A202200204500205A00205900C4
:1045F00020204D3932205800537465707320706547
:104600007220756E69740020453A00205A3A0020E5
:10461000593A00583A006F6B0A00526573656E6430
:104620003A200052756D62612070C599697072619F
:1046300076656E2E005469736B6E752E2E2E0054A7
:1046400069736B20706F7A6173746176656E0000B8
:10465000AA00CE0011241FBECFEFD1E2DEBFCDBF36
:1046600000E00CBF84B780930B1914BE0FB6F8940A
:10467000A89580916000886180936000109260002E
:104680000FBE13E0A0E0B2E0E6ECF7ED02E00BBFF6
:1046900002C007900D92A63FB107D9F729E1A6EF16
:1046A000B3E001C01D92AB30B207E1F713E2C9E2FB
:1046B000D3E200E006C021970109802FFE010F948C
:1046C0007968C832D10780E00807A9F70F947656B9
:1046D0000D94D26B0C940000FC0184910895FC01B0
:1046E000808108955B9800C090910B0187FD9095A3
:1046F0009078909309015B9A00C000C05B9800C05D
:1047000090910B0186FD90959078909309015B9AAA
:1047100000C000C05B9800C090910B0185FD909592
:104720009078909309015B9A00C000C05B9800C02C
:1047300090910B0184FD90959078909309015B9A7C
:1047400000C000C05B9800C090910B0183FD909564
:104750009078909309015B9A00C000C05B9800C0FC
:1047600090910B0182FD90959078909309015B9A4E
:1047700000C000C05B9800C090910B0181FD909536
:104780009078909309015B9A00C000C05B9800C0CC
:1047900080910B018078809309015B9A00C000C072
:1047A000089590E080E00895CF93DF93C09189074A
:1047B000D0918A0781E0CE31D105E4F020E030E0ED
:1047C00040E05FE3609185077091860780918707DD
:1047D000909188070F9494680F94D8696C1B7D0B97
:1047E00077FF03C071956195710981E063307105B0
:1047F0000CF080E0DF91CF910895CF93DF93DB0140
:10480000F9019C919130C1F0943080F094509C93C8
:104810008830D1F480819181009771F00197918364
:104820008083480F591FEA01188206C08C3539F47D
:104830009C5F9C93943041F4DF91CF9108958B332A
:1048400039F781E08C93F8CF20813181B9016F5F16
:104850007F4F71836083420F531FEA0188838081F9
:1048600091818F3591056CF7E7CF0F931F9381E00E
:104870000091EE171091EF172091F0173091F1177A
:104880004091EA175091EB176091EC177091ED177A
:10489000041715072607370708F480E01F910F91CA
:1048A000089590E080E0089520917905833021F407
:1048B00025FD0CC024FD0CC030E0A90102C05595B7
:1048C00047958A95E2F7CA018170089581E00895BD
:1048D00080E008958091990584FD0BC080919B052F
:1048E00087FD07C090919C05937081E019F480E0EA
:1048F000089581E008952FEB280F2A3108F047C072
:10490000E22FF0E08091990590919A05A0919B0586
:10491000B0919C0504C0B695A795979587952A9563
:10492000D2F780FD02C081700895E658FA4FE08109
:10493000EE2341F18091E2099091E309E80FF92F0C
:10494000F11D808190ED980F9A3030F08E3251F445
:10495000818180538A3098F4F0937705E09376054F
:1049600081E008958D3211F08B3249F4818190ED10
:10497000980F9A3088F38E3211F48281EACFF0E0FA
:10498000E0E0EACF1092770510927605E9CF80E05B
:104990000895B1DF882341F081E0209176053091C0
:1049A0007705232B09F480E00895CF92DF92EF92F0
:1049B000FF92CF93DF9300D01F921F92CDB7DEB747
:1049C000DC01ED91FC910084F185E02D1995C92E53
:1049D000DD24EE24FF2469837A838B839C832D81DD
:1049E000C2FA20F9C1FA21F92D83D701C6018871D5
:1049F0009927AA27BB2721E0892B8A2B8B2B09F427
:104A000020E06D8120FB62F929813A814B815C8134
:104A100070E080E090E00F900F900F900F900F905B
:104A2000DF91CF91FF90EF90DF90CF90089510929B
:104A3000B60580913B0290913C02A0913D02B0915D
:104A40003E02EFE4F7E080839183A283B383848303
:104A50009583A683B7830895BF92CF92DF92EF929A
:104A6000FF920F931F93CF93DF936B01E9014A30BD
:104A700009F4D6C0453109F081C0DB011296ED91F1
:104A8000FC911281C681D7815A9A00C0000086E24B
:104A900090E00197F0F7012F0295007F20E1B22E00
:104AA000B10E88EF1FDE00C0000086E290E00197A3
:104AB000F0F7103208F0A1C0812F8077806812DEF5
:104AC000802F10DE00C0000086E290E00197F0F732
:104AD00080E808DE80E006DE00C0000086E290E0AC
:104AE0000197F0F78AEFFEDD00C0000086E290E05B
:104AF0000197F0F77E01B0E1EB0EF11C8881807F19
:104B0000F1DD89918295807FEDDDCE15DF05B1F76E
:104B100000C0000086E290E00197F0F71F5F005FA1
:104B20001B11BFCF5A98D6011296ED91FC9180814E
:104B30009281980F92832181921708F0DCC19481B1
:104B40009F5F94839381890F821710F08FEF820FFC
:104B50008383458150E0440F551F70E060E08681FB
:104B600097810F947E6B81E0DF91CF911F910F9120
:104B7000FF90EF90DF90CF90BF900895FB010281EE
:104B80001381423309F4B9C108F4C1C1463409F4B0
:104B9000AEC1473409F4B6C14B3329F789812B8163
:104BA000D80112966C91129713964C91213009F40A
:104BB000F3C1233009F0D4C138EF380F582F91E0FA
:104BC000431708F490E041E0531708F040E031E06B
:104BD000561708F430E0592F542B352319F4942339
:104BE00009F4C1CFFA8030E0F901E554FD4FD080DF
:104BF00029543D4FF901E080CCC180EE810F8068DF
:104C0000807F70DD812F8295807F6CDD00C0000089
:104C100086E290E00197F0F780E864DD80E85BCF02
:104C2000529A5A9880910A01806880930A01809173
:104C30000B01807880930901539A5B9A5A9A00C0BD
:104C4000000086E290E00197F0F788E790E0CEE977
:104C5000DFE0FE013197F1F70197D9F788EF42DDE8
:104C600000C0000086E290E00197F0F780E23ADDB4
:104C700080E038DD00C0000086E290E00197F0F7A8
:104C800080E030DD80E82EDD00C0000086E290E0AC
:104C90000197F0F780E026DD80E124DD00C0000010
:104CA00086E290E00197F0F7CE010197F1F7CE018F
:104CB0000197F1F7CE010197F1F7CE010197F1F7D6
:104CC000CE010197F1F7CE010197F1F7CE010197DF
:104CD000F1F7CE010197F1F7CE010197F1F7CE017F
:104CE0000197F1F7CE010197F1F7CE010197F1F7A6
:104CF000CE010197F1F7CE010197F1F72197F1F776
:104D000080E2F0DC80E4EEDC00C0000086E290E0AF
:104D10000197F0F780E2E6DC80E6E4DC00C000000A
:104D200086E290E00197F0F7D0E0C0E08C2F80772A
:104D30008068D8DC8D2FD6DC00C0000086E290E0D1
:104D40000197F0F780E8CEDC80E0CCDC00C000000A
:104D500086E290E00197F0F78AEFC4DC00C0000023
:104D600086E290E00197F0F790E25B9800C08091B6
:104D70000B018078809309015B9A00C000C05B98AA
:104D800000C080910B018078809309015B9A00C07C
:104D900000C05B9800C080910B018078809309016E
:104DA0005B9A00C000C05B9800C080910B018078C6
:104DB000809309015B9A00C000C05B9800C080919D
:104DC0000B018078809309015B9A00C000C05B985A
:104DD00000C080910B018078809309015B9A00C02C
:104DE00000C05B9800C080910B018078809309011E
:104DF0005B9A00C000C05B9800C080910B01807876
:104E0000809309015B9A00C000C05B9800C080914C
:104E10000B018078809309015B9A00C000C05B9809
:104E200000C080910B018078809309015B9A00C0DB
:104E300000C05B9800C080910B01807880930901CD
:104E40005B9A00C000C05B9800C080910B01807825
:104E5000809309015B9A00C000C05B9800C08091FC
:104E60000B018078809309015B9A00C000C05B98B9
:104E700000C080910B018078809309015B9A00C08B
:104E800000C05B9800C080910B018078809309017D
:104E90005B9A00C000C05B9800C080910B018078D5
:104EA000809309015B9A00C000C000C00000E6E2E8
:104EB000F0E03197F0F7915009F057CF88EF12DC0E
:104EC00000C0000086E290E00197F0F7CF5FD05F6E
:104ED000C03209F02BCF80E005DC80EC03DC00C0A1
:104EE000000086E290E00197F0F75A983CCEF80176
:104EF0008581888338CE80E037CEB901C8010F9410
:104F0000D54A31CED80111968C9188832CCE44316C
:104F100091F0473109F027CE1882D80112968C9172
:104F20001297898315968C91159781508A831396D1
:104F30008C918B8318CED80115964C91159750E023
:104F4000440F551F70E060E016968D919C910F9470
:104F50007E6BF8011282808181508383148203CE9C
:104F6000481708F400CE861708F4FDCDFA80E12C2E
:104F7000D12C243070F437CEBE01C8010F94D54A2D
:104F8000898198819D0D98838E0D8983FF0C09F48A
:104F9000EACDF7FEF6CFF0CF58E0580F382F0FCEFE
:104FA000EF92FF920F931F93CF93DF93EC018B014E
:104FB0007A018A859B858617970731F088819981C8
:104FC0000F94074D1B870A87B701888199810F9439
:104FD00040442E813F81820F932F911D9F838E83AA
:104FE00090E080E0DF91CF911F910F91FF90EF90C3
:104FF00008959F92AF92BF92CF92DF92EF92FF926D
:105000000F931F93CF93DF93EC018B01942EA52E6A
:105010008A859B858617970731F0888199810F943F
:10502000074D1B870A8788859985019649F5BC80BD
:105030000A818E81080FC880D980D6015596ED91DE
:10504000FC91C6011995B80EE92CFA2C10E0F70175
:1050500021917F01211127C08E819F81810F911D98
:105060009F838E8390E080E0DF91CF911F910F911D
:10507000FF90EF90DF90CF90BF90AF909F900895FA
:105080000E811F81692D7A2D888199810F9440446A
:10509000800F912F911D288539852817390738F6FB
:1050A00081E090E0E1CF4B2D602FC6010F945F4D62
:1050B000080F180FCCCFDF92EF92FF920F931F9340
:1050C000CF93DF93EC01D62E1CAD0BAD7C0184E0B9
:1050D000E80EF11CE98DFA8DC7011995412F480F93
:1050E0002D2D602FC7010F945F4D9BAD890F8BAFA6
:1050F00081E090E0DF91CF911F910F91FF90EF90B1
:10510000DF900895CF93C091AF05CC2391F14CE08F
:1051100050E060E270E082EA95E00F947E6B80E2FE
:10512000C43628F08C2F64E60F943968805D809334
:105130005B0690E2CA3040F02AE08C2F622F0F9479
:1051400039680F943968905D90935C068C2F6AE003
:105150000F943968905D90935D0683E0EBE5F6E08F
:10516000A6EAB5E001900D928A95E1F785E2809379
:10517000A905CF910895CF93DF93C0918907D0916E
:105180008A07209729F160918507709186078091A1
:105190008707909188070F94D8696E5F7F4F249797
:1051A0006C177D07ACF470935A07609359070F94FE
:1051B0005F4A605A75418F4F9F4F60935B077093B2
:1051C0005C0780935D0790935E07DF91CF91089510
:1051D00010925B0710925C0710925D0710925E07B9
:1051E000F4CF3F924F925F926F927F928F929F92F5
:1051F000AF92BF92CF92DF92EF92FF920F931F93E5
:10520000CF93DF93162F072F342EFC0180809180DF
:10521000A280B380C501B40120E13EE040E050E04F
:105220000F94DC67F22EE32EC22FD32F8CE3482E8F
:10523000512C612C712CC501B401A30192010F9472
:10524000DC67D62EC72ECA01B901A30192010F94C3
:10525000DC673320C9F17F936F93CE0168E170E082
:105260000F9452689F938F93C501B40120E831E5F4
:1052700041E050E00F94DC673F932F9380E996E084
:105280009F938F930F931F930F949B63812F902F66
:105290000F945163EDB7FEB73A960FB6F894FEBF80
:1052A0000FBEEDBFDF91CF911F910F91FF90EF9057
:1052B000DF90CF90BF90AF909F908F907F906F9036
:1052C0005F904F903F9008952097B9F4CF92DF926E
:1052D0007F936F9384E896E09F938F930F931F9330
:1052E0000F949B632DB73EB7285F3F4F0FB6F894DE
:1052F0003EBF0FBE2DBF85E0D5CFC436D105A8F483
:105300007F936F93EF92FF9288E796E09F938F933E
:105310000F931F930F949B638DB79EB708960FB69C
:10532000F8949EBF0FBE8DBFE6CF7F936F93EF9231
:10533000FF928EE696E09F938F930F931F930F94A7
:105340009B63EDB7FEB738960FB6F894FEBF0FBE5D
:10535000EDBF86E0A7CFCF92DF92EF92FF92CF937F
:10536000DF93CDB7DEB761970FB6F894DEBF0FBEFF
:10537000CDBF8091BB13813031F08091F21782FF55
:1053800035C087FD33C00F941E216B017C01CE8692
:10539000DF86E88AF98A45E050E060E270E084EA5E
:1053A00095E00F947E6B85E48093A2058AE3809359
:1053B000A30541E050E8C51651E5D50651E0E506E4
:1053C000F10408F440E0BE016F5F7F4FCE010E96FE
:1053D00008DF2CE030E0A901481B5109CA01BE01D9
:1053E0006F5F7F4F8E559A4F0F94A36B61960FB6E8
:1053F000F894DEBF0FBECDBFDF91CF91FF90EF904D
:10540000DF90CF9008950F931F93CF93DF9300D039
:105410001F92CDB7DEB79C010EED17E090E1ECEFE7
:10542000FEE0D80101900D929A95E1F7F9012081F3
:10543000318142815381F801608571858285938530
:105440000F949468F801608771878287938780E062
:1054500090E0A0EAB0E489839A83AB83BC83CE0159
:1054600001960F94C1330F900F900F900F90DF9122
:10547000CF911F910F9108958091760590917705B6
:10548000009731F04AE050E070E060E00D94236254
:1054900060E070E0CB0108958091760590917705EA
:1054A000009731F04AE050E070E060E00D94F86061
:1054B00060E070E0CB010895CF93DF93EB0169DAF0
:1054C000882311F0E9DFEB01CE01DF91CF91089540
:1054D000E3DF97FD0AC0E0DF6F3F710581059105AD
:1054E00009F02CF4D9DF862F089580E008958FEF1E
:1054F0000895CF93C62F4DDA882311F0CF91E8CFCE
:105500008C2FCF9108958091760590917705892B06
:1055100039F0DEDF91E0811101C090E0892F08951C
:1055200091E0FCCFCF93DF93C82FD62F32DA8823B8
:1055300019F0DF91CF91E7CF8C2FDDD9811101C018
:105540008D2FDF91CF910895A7DFCB010895CF93E1
:10555000DF93EB011EDA882319F0DF91CF91F4CFAE
:10556000CE01DF91CF9108950F931F93CF93809138
:10557000760590917705009709F1FC018F01C191A3
:105580002C2F2F7DA1F0C53431F0C53621F0C83560
:1055900011F0C83799F7F801108270E060E00F94BD
:1055A000A35FF801C083CF911F910F91089570E020
:1055B00060E0CF911F910F910D94A35F60E070E0C8
:1055C000CB01F1CFCF92DF92EF92FF926A017B0184
:1055D000E0D9882329F0FF90EF90DF90CF90C4CFDF
:1055E000C701B601FF90EF90DF90CF9008954F92E2
:1055F0005F926F927F92AF92BF92CF92DF92EF92C3
:10560000FF920F931F93CF9383EDA82E82E0B82EC5
:105610009EEDE92E97E0F92E0CEF1EE02CE0C22E55
:105620002FE0D22EC0E0F50181915F01B2D988232D
:1056300009F4A2C099DF2B013C018C2F35D98823B6
:1056400009F490C0F8012081318142815381C30166
:10565000B2010F949468F70160837183828393830E
:10566000CF5FF4E0EF0EF11C0C5F1F4F84E0C80E1B
:10567000D11CC330C1F685E48CD9882309F487C0D6
:1056800073DF6B017C0183E00FD9882371F02091D7
:10569000080F3091090F40910A0F50910B0FC7016D
:1056A000B6010F9494686B017C01C092EA07D09216
:1056B000EB07E092EC07F092ED0740E050E0BA0112
:1056C00086E480DF20E030E0A9010F94BA6A181662
:1056D0007CF44ADF20E030E040E752E40F94706948
:1056E00060936202709363028093640290936502F8
:1056F0008091970683FD28C080916109882321F15C
:105700002091080F3091090F40910A0F50910B0F13
:105710006091EA077091EB078091EC079091ED079B
:105720000F94936820916E0930916F094091700930
:10573000509171090F94946860936E0970936F098A
:105740008093700990937109CF911F910F91FF90F1
:10575000EF90DF90CF90BF90AF907F906F905F9071
:105760004F900895F6012081318142815381C30118
:10577000B2010F9493686FCFF80180819181A2816B
:10578000B381F70180839183A283B38369CF809132
:10579000080F9091090FA0910A0FB0910B0F809301
:1057A000EA079093EB07A093EC07B093ED0785CF42
:1057B000AF92BF92CF92DF92EF92FF920F931F931F
:1057C000CF935C016B018A0187509B4F7C01DC0108
:1057D000CC91C7FF3DC0FB0111821082CF5FD70182
:1057E000CC93CC300CF053C08CE08A9DF0018B9DA3
:1057F000F00D1124CF018C0F911DC7FD9A952091BA
:1058000036162817190609F00CF441C0F60120815C
:105810003181FC01EE0FFF1FE80FF91FE251FA4E34
:1058200081819281820F931FD80111969C938E9350
:10583000808187FF3DC061E08F77CF911F910F91ED
:10584000FF90EF90DF90CF90BF90AF900D94734892
:105850008CE08A9DF0018B9DF00D1124CF018C0FFF
:10586000911DC7FD9A95209136162817190609F043
:105870000CF4B4CFFC01EE0FFF1FE80FF91FE2514B
:10588000FA4E808160E08F770F947348A7CFF601BE
:105890008081918104968034FCE99F0710F480E4B4
:1058A0009CE9D80111969C938E938FEFF70180832A
:1058B000CF911F910F91FF90EF90DF90CF90BF900D
:1058C000AF900895AF92BF92CF92DF92EF92FF9286
:1058D0000F931F93CF93DF93EC015B018A01FB01D0
:1058E000199587FD16C0C82ED12CF12CE12C2196DC
:1058F000F801C082D182E282F382CE01DF91CF91A2
:105900001F910F91FF90EF90DF90CF90BF90AF90DD
:105910000895982F907E903CA9F48F7190E0B0E0AC
:10592000A0E06C017D0156E0CC0CDD1CEE1CFF1CE0
:105930005A95D1F7CE010196F50119958F73C82AB2
:105940002296D6CF982F907F903E11F58F7090E0E1
:10595000B0E0A0E06C017D0136E0CC0CDD1CEE1C5B
:10596000FF1C3A95D1F7CE010196F50119958F7379
:10597000C82A46E0CC0CDD1CEE1CFF1C4A95D1F772
:10598000CE010296F50119958F73C82A2396B0CFE0
:10599000982F987F903F79F5877090E0B0E0A0E075
:1059A0006C017D0186E0CC0CDD1CEE1CFF1C8A9591
:1059B000D1F7CE010196F50119958F73C82A96E0AB
:1059C000CC0CDD1CEE1CFF1C9A95D1F7CE01029683
:1059D000F50119958F73C82A26E0CC0CDD1CEE1C4E
:1059E000FF1C2A95D1F7CE010396F50119958F7307
:1059F000C82A24967DCF982F907C903841F4807CE3
:105A0000803869F42196CE01F5011995F8CF8E7F83
:105A10008D3F28F02196CE01F5011995F8CFC12CC4
:105A2000D12C760165CF9CE0899F802D112491E0D7
:105A3000980F9093A0052CE0280F2093D00930E018
:105A40002E5F3F4F4091CF164217130619F014F006
:105A500080E008952091D1169217D0F7662341F087
:105A60008E5F0F94354C8091D0098E5F0F94354C2A
:105A70008091D0099091CF16891750F32091D116BB
:105A80009091A005291720F31092D2168093D31677
:105A900081E00895CF9380919F05811154C01092A9
:105AA000D2161092D3161092D4161092A0161092FD
:105AB0009F161092A2161092A1161092A41681E0C1
:105AC0008093A31682E28093A5161092AA161092D4
:105AD000A916EEEBF6E12CEC36E18FEF81932E1751
