:100000000C94A5250C94E5250C94E5250C94E52588
:100010000C94E5250C94E5250C94E5250C94E52538
:100020000C94E5250D94B65E0D94B65E0D94B65E07
:100030000C94E5250C94E5250C94E5250C94E52518
:100040000C94E5250C949CB10C94E5250C94E525C5
:100050000C94E5250C94AAAC0C94E5250D943F6115
:100060000C94E5250C94DC5D0C94D25D0C94E52594
:100070000C94E5250C94E5250C94E5250C94E525D8
:100080000C94AA4A0C94E5250C94E5250C94E525DE
:100090000C94E5250C94E5250C94E5250D944C660F
:1000A0000C94E5250C94E5250C947C4A0C94E525EC
:1000B0000C94E5250C94E5250C94E5250C94E52598
:1000C0000C94E5250C94E5250C94E5250C94E52588
:1000D0000C94E5250C94E5250C94E5250C94E52578
:1000E0000C94E525084AD73B3BCE016E84BCBFFD8E
:1000F000C12F3D6C74319ABD56833DDA3D00C77FF8
:1001000011BED9E4BB4C3E916BAAAABE0000008090
:100110003F05A84CCDB2D44EB93836A9020C50B91F
:10012000918688083CA6AAAA2ABE000000803F004B
:100130000D94DC090D94A50E0D9413050D94E8247F
:100140000D9434020D94035F0D949B090D9401608E
:100150000D942C4C0D94E2190D94076C0D94244EC3
:100160000D944B4D0D94C14E0D94EC240D941F4DE8
:100170000D9487020D94C6070D94EC5E0D945919E9
:100180000D9452400D94E2090D948F050D9476085C
:100190000D942D270D94E1090D947F020D94214DAE
:1001A0000D9497020D94DE5E0D948F020D944760BE
:1001B0000D946A170D944D060D9401050D94BE38EB
:1001C0000D94BA080D9451060D941D440D94040528
:1001D0000D947E770D942E2E0D94162A0D949D036A
:1001E0000D9410050D949C300D945E170D94FE0433
:1001F0000D94E5090D9439010D945A370D94DC2DB9
:100200000D94D0090D94CD090D94FD460D94090966
:100210000D9410010D94CA090D9457190D94591796
:100220000D94210D0D945F1C0D941F5F0D9492038E
:100230000D94E0190D943A1D0D94BF2B0D94601090
:100240000D94183A0D94E5190D94A5020D944B06E2
:100250000D94235F0D9423060D9477020D94E71FF0
:100260000D94B5300D949D0C0D94D9090D94670231
:100270000D9448050D94195F0D9444060D94115F7B
:100280000D94F05E0D94F6090D94E45E0D94444DCA
:100290000D9492300D9497300D94224D0D94551974
:1002A0000D94C54E0D940D010D94E4240D94A130D0
:1002B0000D9402090D949F4E0D94155F0D94F95EF7
:1002C0000D94C9070D943F060D94C94E0D94DE1987
:1002D0000D94E0240D946F020D940B5F0D94A630E5
:1002E0000D94481F0D947D4E0D940D050D941C4AE0
:1002F0000D9449060D94FE4B0D944C2E0D942B4CF1
:100300000D94F35E0D94D14E0D94BF300D94CD0538
:100310000D94D6090D9408220D94314D0D945A4E2A
:100320000D94AD340D9407050D94BE2D0D94D20897
:100330000D94DA4E0D943C310D944F060D94DA3144
:100340000D9488300D94BA2E0D94BA300D94701718
:100350000D94EC050D9463140D94EA080D941E5F42
:100360000D9453190D9454170D94AB300D94CA0588
:100370000D94CF050D94A2080D94FD5E0D942A01F5
:100380000D9480200D94693D0D940A010D942C4E1E
:100390000D9486050D9426010D946F280D944C4400
:1003A0000D94C0090D94204D0D94D3090D94C430C3
:1003B0000D94774D0D94D5120D9464170D94160578
:1003C0000D949F250D94D44C0D94444E0D948D3076
:1003D0000D94E85E0D94FB040D942B0A0D94075FB9
:1003E0000D940A050D94B0300D946A2E0D94BC073F
:1003F0000D946F084E414E494E495459494E46CDD1
:10040000CCCC3D0AD7233C17B7D13877CC2B3295CB
:1004100095E6241FB14F0A000020410000C84200A9
:10042000401C4620BCBE4CCA1B0E5AAEC59D744330
:100430004F4D4D554E49434154494F4E004452593A
:1004400052554E004552524F525300494E464F00AE
:100450004543484F001FE020102310249010A011A6
:10046000202210241037B00840048003001FE02031
:1004700010211023101520112021102110313008D7
:1004800040048003001FE03FF03CF03B701F601E03
:10049000E03DF03BF038700FC0078003001FE03FE5
:1004A000F03EF03CF01AE01EE03EF03EF03EF00F71
:1004B000C0078003004572726F7220777269746999
:1004C0006E6720746F20454550524F4D210A005AE7
:1004D0004153544156454E4F2E20005072696E7460
:1004E00065722073746F7070656420647565207424
:1004F0006F206572726F72732E204669782074685F
:1005000065206572726F7220616E6420757365205C
:100510004D39393920746F20726573746172742E8D
:10052000202854656D7065726174757265206973F9
:100530002072657365742E20536574206974206180
:10054000667465722072657374617274696E67296E
:100550000A004E6F20436865636B73756D20776981
:100560007468206C696E65206E756D6265722C20F2
:100570004C617374204C696E653A20004E6F2043C5
:100580006865636B73756D2077697468206C696E3C
:1005900065206E756D6265722C204C617374204C01
:1005A000696E653A2000636865636B73756D206DD5
:1005B00069736D617463682C204C617374204C699D
:1005C0006E653A20004C696E65204E756D626572ED
:1005D000206973206E6F74204C617374204C696EB7
:1005E00065204E756D6265722B312C204C617374E1
:1005F000204C696E653A20004D31313000536572F0
:1006000069616C20737461747573206D69736D61B9
:100610007463680A005344207265616420657272D5
:100620006F720A006D41290A002064726976657252
:10063000206F76657274656D706572617475726530
:10064000207761726E696E67212028003A200020B1
:1006500063757272656E742064656372656173653B
:100660006420746F20006D41290A0020647269764D
:100670006572206F76657274656D706572617475F0
:100680007265207761726E696E67212028003A20BA
:10069000006D41290A0020647269766572206F76C8
:1006A000657274656D7065726174757265207761CD
:1006B000726E696E67212028003A200020637572EF
:1006C00072656E742064656372656173656420741D
:1006D0006F20002063757272656E742064656372AA
:1006E000656173656420746F20006D41290A0020E4
:1006F000647269766572206F76657274656D706577
:10070000726174757265207761726E696E672120FF
:1007100028003A20002063757272656E742064654B
:100720006372656173656420746F20006D41290AEE
:100730000020647269766572206F76657274656DEB
:100740007065726174757265207761726E696E672B
:10075000212028003A20006D41290A002064726996
:10076000766572206F76657274656D7065726174FE
:10077000757265207761726E696E67212028003A74
:1007800020004B494C4C20627574746F6E2F706959
:100790006E0A002121204B494C4C20636175736522
:1007A000642062792000746F6F206D756368206922
:1007B0006E6163746976652074696D65202D2063B0
:1007C000757272656E7420636F6D6D616E643A2030
:1007D000002121204B494C4C2063617573656420D6
:1007E00062792000627573793A207061757365646F
:1007F00020666F7220696E7075740A006275737975
:100800003A2070617573656420666F722075736538
:10081000720A00627573793A2070726F6365737340
:10082000696E670A004DC3A96469756D2076796A9F
:100830006D75746F004DC3A96469756D20766C6F1A
:10084000C5BE656E6F004D363030205425630020E4
:1008500066696C616D656E745F72756E6F7574201C
:100860000066696C616D656E745F72756E6F75742C
:1008700020540050726F7665C48F74652072657362
:100880006574005449534B2E205A415354415645E8
:100890004E410025533A20255300706F7765726FE3
:1008A00066660050C59845525553454E4F2E200060
:1008B0005072696E7465722068616C7465642E2074
:1008C0006B696C6C28292063616C6C6564210A007B
:1008D000006563686F3A004572726F723A00666134
:1008E0006C736500747275650042696C696E656150
:1008F00072204C6576656C696E6720477269643A50
:100900000A002F2F616374696F6E3A00486F746537
:100910006E6420746F6F20636F6C640A00256875C5
:100920003A25303268750025303268753A25303204
:1009300068750025303268752725303268750025C6
:100940006875642025303268753A25303268750044
:10095000447269766572206572726F7200636F69A6
:100960006C2073686F727420636972637569740AAE
:10097000006F76657274656D70657261747572650D
:100980000A0020647269766572206572726F722047
:1009900064657465637465643A203078004C4F5721
:1009A0000048494748004F4B004572726F723A2029
:1009B000416C6C200020636F6E6E656374696F6EAE
:1009C0002E2E2E200054657374696E6720004C4FE4
:1009D000570048494748004F4B004572726F723AC2
:1009E00020416C6C200020636F6E6E656374696FCC
:1009F0006E2E2E2E200054657374696E6720004C95
:100A00004F570048494748004F4B004572726F727C
:100A10003A20416C6C200020636F6E6E65637469D0
:100A20006F6E2E2E2E200054657374696E67200041
:100A30004C4F570048494748004F4B004572726F72
:100A4000723A20416C6C200020636F6E6E65637497
:100A5000696F6E2E2E2E200054657374696E6720A8
:100A6000004C4F570048494748004F4B00457272B1
:100A70006F723A20416C6C200020636F6E6E65636C
:100A800074696F6E2E2E2E200054657374696E6724
:100A900020004C4F570048494748004F4B004572D3
:100AA000726F723A20416C6C200020636F6E6E652D
:100AB0006374696F6E2E2E2E200054657374696EF8
:100AC000672000544D432043485942412053504F22
:100AD0004A454EC38D004F46460A00466164652074
:100AE0004865696768742000426564204C657665D6
:100AF0006C696E6720004661696C656420746F20C4
:100B0000656E61626C6520426564204C6576656C3B
:100B1000696E670A00496E76616C6964206D657361
:100B2000682E0A004DC49BC599656EC3AD20626FE7
:100B300064750025532025692F2569002E0A002F92
:100B40000050726F62696E67206D65736820706F08
:100B5000696E742000202844525952554E2900478E
:100B60003239204175746F20426564204C6576658A
:100B70006C696E67003F20284C2C522C462C422971
:100B8000206F7574206F6620626F756E64732E0A15
:100B9000003F2856296572626F7365206C65766523
:100BA0006C20696D706C61757369626C65202830AA
:100BB0002D34292E0A00426164205A2076616C751A
:100BC000650A004E6F2062696C696E65617220670C
:100BD0007269640A0020440020204D3230302054D5
:100BE0000020204D323030205300202844697361AA
:100BF000626C6564293A0046696C616D656E7420AB
:100C000073657474696E67730020204D3230312033
:100C100058004D617820416363656C657261746949
:100C20006F6E2028756E6974732F7332290020202F
:100C30004D3230332058004D61782066656564720E
:100C4000617465732028756E6974732F7329002091
:100C5000520020204D323034205000416363656CD7
:100C600065726174696F6E2028756E6974732F7375
:100C700032292028503C7072696E742D616363655F
:100C80006C3E20523C726574726163742D616363C3
:100C9000656C3E20543C74726176656C2D616363B3
:100CA000656C3E2900204A0020540020530020207B
:100CB0004D323035204200416476616E63656420B8
:100CC00028423C6D696E5F7365676D656E745F7415
:100CD000696D655F75733E20533C6D696E5F666537
:100CE0006564726174653E20543C6D696E5F747218
:100CF0006176656C5F66656564726174653E204A05
:100D00003C6A756E635F6465763E290020204D3233
:100D1000313700546F6F6C2D6368616E67696E6761
:100D20000020204D323138205400486F74656E64C5
:100D3000206F6666736574730020440020490020AC
:100D4000204D333031205000486F74656E64205060
:100D500049440020204D61783A2000200020204D99
:100D6000696E3A2000203B200020204D3231312096
:100D70005300536F667420656E6473746F707300F4
:100D800020440020204D353933205920460020448E
:100D90000020204D3539332058204600496E7075AB
:100DA000742053686170696E670070617573656463
:100DB00000486561642063616E6E6F742062652017
:100DC0007061726B65640052656865617420446F80
:100DD0006E6500526568656174696E672E2E2E001F
:100DE000507265737320627574746F6E20746F2017
:100DF00068656174206E6F7A7A6C650A007265733B
:100E0000756D656400203B00205500204C002020BB
:100E10004D36303320540046696C616D656E742028
:100E20006C6F61642F756E6C6F61640073707265B6
:100E300061644379636C6500737465616C746843C5
:100E4000686F700020647269766572206D6F6465EA
:100E50003A09007370726561644379636C6500736D
:100E60007465616C746843686F70002064726976A1
:100E70006572206D6F64653A090073707265616414
:100E80004379636C6500737465616C746843686F63
:100E9000700020647269766572206D6F64653A092E
:100EA000007370726561644379636C650073746587
:100EB000616C746843686F70002064726976657253
:100EC000206D6F64653A09007370726561644379DF
:100ED000636C6500737465616C746843686F70005F
:100EE00020647269766572206D6F64653A090073DB
:100EF00070726561644379636C6500737465616CDD
:100F0000746843686F700020647269766572206D42
:100F10006F64653A090020204D3536392053310081
:100F2000206472697665722063757272656E743AB8
:100F30002000206472697665722063757272656E36
:100F4000743A20002064726976657220637572724B
:100F5000656E743A2000206472697665722063754C
:100F60007272656E743A2000206472697665722030
:100F700063757272656E743A2000206472697665DA
:100F8000722063757272656E743A200020204D39AC
:100F9000303600207072657761726E20666C616712
:100FA00020636C65617265640A0020707265776108
:100FB000726E20666C616720636C65617265640A9D
:100FC00000207072657761726E20666C61672063C5
:100FD0006C65617265640A00207072657761726E7B
:100FE00020666C616720636C65617265640A00202D
:100FF0007072657761726E20666C616720636C65E4
:10100000617265640A00207072657761726E206695
:101010006C616720636C65617265640A00202E68EC
:10102000737472743A2000202E68656E643A200052
:101030002063686F70706572202E746F66663A2048
:1010400000202E68737472743A2000202E68656E3A
:10105000643A20002063686F70706572202E746F90
:1010600066663A2000202E68737472743A2000205D
:101070002E68656E643A20002063686F7070657238
:10108000202E746F66663A2000202E687374727486
:101090003A2000202E68656E643A20002063686F55
:1010A00070706572202E746F66663A2000202E687C
:1010B000737472743A2000202E68656E643A2000C2
:1010C0002063686F70706572202E746F66663A20B8
:1010D00000202E68737472743A2000202E68656EAA
:1010E000643A20002063686F70706572202E746F00
:1010F00066663A20003F53206F7574206F66207239
:10110000616E67652028312E2E38290A003F502055
:101110006F7574206F662072616E676520282D33AD
:101120002E2E3132290A003F4F206F7574206F66D2
:101130002072616E67652028312E2E3135290A0014
:101140003B200020496E76616C696420657874727A
:10115000756465722000557370C3A16E6F2E2E2EBC
:10116000005A2050726F626520506173742042658E
:10117000640A00536F6E6461205A206D696D6F20A0
:10118000706F646C00536F6E6461205A206D696DDE
:101190006F20706F646C005A2050726F626520502F
:1011A0006173742042656400205A3A200020593A45
:1011B000200042656420583A20004D657368207015
:1011C0006F696E74206F7574206F662072616E6730
:1011D000650A00C48C656BC3A16EC3AD206E61202F
:1011E00075C5BE69762E2E2E00C5BDC3A1646EC323
:1011F000BD20706F6879622E00456E642066696C50
:1012000065206C6973740A00426567696E206669BF
:101210006C65206C6973740A004E6F206D6564699B
:10122000610A00706175736500286E6F2066696CD5
:1012300065290043757272656E742066696C653A43
:1012400020004E6F74205344207072696E74696E72
:10125000670A005344207072696E74696E67206279
:1012600079746520002E0A0044656C6574696F6EA0
:10127000206661696C65642C2046696C653A2000C3
:1012800046696C652064656C657465643A005072EB
:10129000696E742074696D653A20000A5374617434
:1012A000733A2046696C616D656E74207573656470
:1012B0003A20002C204C6F6E67657374206A6F6251
:1012C0003A2000546F74616C2074696D653A200097
:1012D00053746174733A20002C204661696C656414
:1012E0003A20002C2046696E69736865643A2000D4
:1012F0005072696E74733A200053746174733A20AB
:10130000006F6B006F66660050044B0444043D049C
:101310002F0444454255473A004D3131322053683D
:101320007574646F776E004D313133205300527500
:101330006D6261204F46462E002F2F004D3134350F
:1013400020533C696E6465783E206F7574206F662B
:101350002072616E67652028302D31290A003F4ACE
:10136000206F7574206F662072616E67652028306B
:101370002E303120746F20302E33290A00250A00C8
:1013800046523A0020466C6F773A20003A200020FF
:10139000536572766F2000206F7574206F6620721F
:1013A000616E67650A00536572766F2000496E763C
:1013B000616C69642065787472756465720A006492
:1013C000697300656E0043290A0061626C656420E0
:1013D000286D696E2074656D702000436F6C642009
:1013E00065787472756465732061726520004F467C
:1013F00046004F4E00203B20486F73742068616E9A
:10140000646C696E6720006D6D00203B2044697339
:1014100074616E6365200046696C616D656E742051
:1014200072756E6F757420004D34323120696E63B1
:101430006F727265637420706172616D657465723C
:101440002075736167650A004D65736820706F6968
:101450006E74206F7574206F662072616E67650A06
:10146000004F6673657479206E6173746176656E82
:1014700079004572723A20546F6F206661722100C4
:10148000546F6F206661722066726F6D20726566A0
:101490006572656E636520706F696E740A004545FC
:1014A00050524F4D204F4B0A00206F722030207455
:1014B0006F2064697361626C650A003F46726571F2
:1014C00075656E637920284629206D7573742062D6
:1014D000652067726561746572207468616E2000B2
:1014E0003F5A657461202844292076616C75652017
:1014F0006F7574206F662072616E67652028302DCD
:1015000031290A002074656D7065726174757265A9
:10151000207072657761726E207472696767657298
:1015200065643A20002074656D706572617475722F
:1015300065207072657761726E2074726967676585
:101540007265643A20002074656D7065726174750F
:101550007265207072657761726E20747269676758
:10156000657265643A20002074656D7065726174FF
:10157000757265207072657761726E20747269672A
:1015800067657265643A20002074656D70657261EC
:1015900074757265207072657761726E20747269FD
:1015A0006767657265643A20002074656D706572C6
:1015B0006174757265207072657761726E207472E5
:1015C000696767657265643A200020204D323036C5
:1015D000205800486F6D65206F6666736574004320
:1015E00061703A00434F4E4649475F4558504F524D
:1015F00054004D4541545041434B00434F4F4C45DF
:10160000525F54454D504552415455524500434850
:10161000414D4245525F54454D50455241545552FB
:101620004500424142595354455050494E470041AC
:10163000524353004D4F54494F4E5F4D4F44455315
:1016400000544845524D414C5F50524F544543540D
:10165000494F4E00455854454E4445445F4D323045
:1016600000435553544F4D5F4649524D57415245E3
:101670005F55504C4F4144004C464E5F57524954C1
:1016800045004C4F4E475F46494C454E414D450045
:101690004155544F5245504F52545F53445F535439
:1016A000415455530053445F5752495445005245E5
:1016B00050454154004D554C54495F564F4C554D83
:1016C00045005344434152440050524F4D50545FE3
:1016D000535550504F525400484F53545F41435458
:1016E000494F4E5F434F4D4D414E445300454D458C
:1016F0005247454E43595F50415253455200434172
:1017000053455F4C494748545F4252494748544EFD
:1017100045535300544F47474C455F4C4947485445
:101720005300534F4654574152455F504F5745520F
:10173000004255494C445F50455243454E54004C7D
:101740004556454C494E475F44415441005A5F500D
:10175000524F42450052554E4F5554004155544F3B
:101760004C4556454C005052494E545F4A4F42003A
:1017700050524F4752455353004155544F524550D4
:101780004F52545F54454D50004155544F524550AF
:101790004F52545F504F5300564F4C554D45545285
:1017A000494300454550524F4D0042494E41525920
:1017B0005F46494C455F5452414E53464552005393
:1017C000455249414C5F584F4E5F584F4646004680
:1017D00049524D574152455F4E414D453A4D617218
:1017E0006C696E20322E312E322E312028446563F2
:1017F00020203320323032332031313A34363A34FB
:10180000372920534F555243455F434F44455F5559
:10181000524C3A6769746875622E636F6D2F4D6123
:10182000726C696E4669726D776172652F4D617277
:101830006C696E2050524F544F434F4C5F56455287
:1018400053494F4E3A312E30204D414348494E4581
:101850005F545950453A52756D6261204558545253
:10186000554445525F434F554E543A3220555549E1
:10187000443A63656465326132662D343161322DDC
:10188000343734382D396231322D63353563363291
:101890006633363766660047322F4733206261640D
:1018A00020706172616D65746572730A00426162D5
:1018B0007973746570205A0050726F6265204F66AC
:1018C00066736574205A0050726F6265204F6666B9
:1018D000736574205A00290A0020746F20003F5A53
:1018E000206F7574206F662072616E676520280016
:1018F000290A0020746F20003F59206F7574206FF3
:10190000662072616E676520282D00290A00207408
:101910006F20003F58206F7574206F662072616ED3
:10192000676520282D00203B0020204D38353120D0
:1019300058005A2D50726F6265204F666673657449
:10194000004D383400446F6E65207072696E7469A2
:101950006E672066696C650A004D3737004D33317C
:10196000002569730025696D202569730025696864
:101970002025696D20256973002569642025696823
:101980002025696D20256973002569792025696402
:10199000202569682025696D202569730043686CDE
:1019A000617A656EC3AD2E2E2E004525632025532A
:1019B0000020573A0043686C617A656EC3AD2070B1
:1019C0006F646C6FC5BE6B79005A6168C599C3AD11
:1019D00076C3A16EC3AD20706F646C6FC5BE6B79AA
:1019E0000020573A0043686C617A656EC3AD206B86
:1019F0006F6D6F72792E2E2E005A6168C599C3AD36
:101A000076C3A16EC3AD206B6F6D6F72792E2E2ED3
:101A100000206661696C656421204261642068650C
:101A2000617465722069640A0050494420417574EC
:101A30006F74756E650023646566696E6520444544
:101A40004641554C545F004B6420004B6920004BCD
:101A50007020002066696E69736865642120507586
:101A60007420746865206C617374204B702C204B5B
:101A70006920616E64204B6420636F6E7374616EC5
:101A800074732066726F6D2062656C6F7720696E6B
:101A9000746F20436F6E66696775726174696F6EEB
:101AA0002E680A00504944204175746F74756E6544
:101AB00000206661696C6564212074696D656F75CD
:101AC000740A00504944204175746F74756E650046
:101AD000206661696C6564212054656D7065726172
:101AE0007475726520746F6F20686967680A0050AA
:101AF0004944204175746F74756E650050494420E7
:101B00004379636C65730025532025692F2569008F
:101B1000204B643A2000204B693A2000204B703A59
:101B2000200020436C617373696320504944200A8C
:101B3000002054753A2000204B753A2000206D613A
:101B4000783A2000206D696E3A200020643A200027
:101B500020626961733A20005A6168C599C3AD7605
:101B6000C3A16EC3AD2E2E2E002073746172740A51
:101B700000504944204175746F74756E650020668D
:101B800061696C6564212054656D7065726174755E
:101B9000726520746F6F20686967680A0050494455
:101BA000204175746F74756E6500504944206175ED
:101BB000746F6D6174696B61004572723A2075745F
:101BC000663820666F6E74206E6F7420696E69745B
:101BD00069616C697A65642E004572723A20757489
:101BE000663820666F6E74206E6F7420696E69743B
:101BF00069616C697A65642E004572723A20757469
:101C0000663820666F6E74206E6F7420696E69741A
:101C100069616C697A65642E0002008C8D2F00C4A6
:101C20001E02008F8F2100A31E02009A9B2F0074BA
:101C30001E0200C8C81F00551E0200D8D92F00265A
:101C40001E0200E0E12F00F71D0200E5E52100D6AD
:101C50001D0200EFEF1F00B71D0200FDFE2F0088E0
:101C60001D2000200020003A003A00506F646C6F85
:101C7000C5BE6B61004B6F6D6F7261004500200047
:101C800025002020202020202000202020200020AF
:101C900020202020202000657272006D0455049DD4
:101CA0000485043FFFF038007030FC3020FC102029
:101CB00078102030102C00D02E31D02F7BD02F7BED
:101CC000D02E31D02C00D020301020781020FC10E5
:101CD00030FC303800703FFFF03FFFF038007031CB
:101CE00086302387102787902F87D02F03D020306E
:101CF000102078102078102030102F03D02F87D09C
:101D00002787902387103186303800703FFFF01FFF
:101D1000FFF810000810000810000810000810005C
:101D2000081000081000081000081000081FFFF835
:101D30001FFFF81FFFF81000081084081042081059
:101D400042081084081108081108081084081000BF
:101D5000081FFFF81FFFF81FFFF81FFFF8041040CF
:101D600002082002082004104008208010410010C2
:101D700041000820800410400000001FFFF81FFFF2
:101D8000F8256C6425636D00000C0F00FE00000058
:101D90000000FDFE000A000000050A0A06000050CF
:101DA0002000F80810204080F805080806000050C0
:101DB0002000F8102040F8000C0F00FE000000008A
:101DC00000EFEF00080000000508080600002050A2
:101DD000208888888870000C0F00FE00000000003A
:101DE000E5E5000A000000050A0A06000050200090
:101DF0002020F820202018000C0F00FE000000001A
:101E000000E0E1000A000000050A0A060000502078
:101E1000007088807008887005080806000050204F
:101E20000078807008F0000C0F00FE000000000039
:101E3000D8D9000A000000050A0A06000050200058
:101E4000F08888F0A090880508080600005020005F
:101E5000B0C8808080000C0F00FE0000000000C8A9
:101E6000C80008000000050808060000502000B067
:101E7000C8888888000C0F00FE00000000009A9BB4
:101E8000000A000000050A0A060000502000F88041
:101E900080F08080F8050808060000502000708857
:101EA000F08070000C0F00FE00000000008F8F001B
:101EB0000A000000060A0A06000014080008087854
:101EC00088888878000C0F00FE00000000008C8DD0
:101ED000000A000000050A0A060000502000708871
:101EE00080808088700508080600005020007088F7
:101EF000808870000C0F00FE07022503BB01FFFE67
:101F00000AFE08FE05080806000040F0C888889808
:101F10007810050808060000C0F88888888888F8C6
:101F20000505050600012030F830200508080600E8
:101F3000002070F820202020E00509090600FF207D
:101F400070A8A8B888887020070505070001D86C1C
:101F5000366CD80509090600FFF8A88888888888A3
:101F6000A8F8050A0A0600FE205050505088A8A87C
:101F7000887003030306000340A040FFFFFFFFFF3C
:101F8000FFFFFFFFFFFFFFFFFFFFFFFFFFFFFFFF61
:101F9000FF0000000605FF010707060200808080A1
:101FA00080800080030303060105A0A0A0050606AB
:101FB00006000050F85050F8500509090600FF20AF
:101FC00070A8A07028A87020050707060000C8C8E0
:101FD000102040989805070706000040A0A040A8E0
:101FE0009068010303060205808080030909060149
:101FF000FF2040408080804040200309090601FF07
:102000008040402020204040800507070600002037
:10201000A8702070A8200505050600012020F820E2
:10202000200203030601FFC04080050101060003F2
:10203000F8020202060100C0C005070706000008FA
:10204000101020404080050707060000708898A8FF
:10205000C8887003070706010040C040404040E0C8
:10206000050707060000708808102040F8050707DC
:10207000060000F808103008887005070706000001
:1020800010305090F81010050707060000F880F097
:1020900008088870050707060000304080F088882F
:1020A00070050707060000F808101020202005071B
:1020B000070600007088887088887005070706008A
:1020C0000070888878081060020505060100C0C00D
:1020D00000C0C00206060601FFC0C000C040800369
:1020E000050506010120408040200503030600028B
:1020F000F800F8030505060101804020408005072F
:102100000706000070881020200020050707060041
:10211000007088B8A8B880700507070600007088AE
:1021200088F8888888050707060000F04848704846
:1021300048F00507070600007088808080887005D9
:102140000707060000F04848484848F0050707061A
:102150000000F88080F08080F8050707060000F88E
:102160008080F080808005070706000070888080EE
:10217000988870050707060000888888F88888888E
:10218000030707060100E04040404040E005070724
:1021900006000038101010109060050707060000B8
:1021A0008890A0C0A0908805070706000080808066
:1021B000808080F805070706000088D8A8888888EE
:1021C000880507070600008888C8A898888805073A
:1021D0000706000070888888888870050707060051
:1021E00000F08888F080808005070706000070886E
:1021F0008888A89068050707060000F08888F0A086
:1022000090880507070600007088807008887005B0
:102210000707060000F820202020202005070706D9
:10222000000088888888888870050707060000886D
:10223000888888505020050707060000888888880D
:10224000A8A85005070706000088885020508888F5
:102250000507070600008888502020202005070772
:10226000060000F80810204080F80309090601FF65
:10227000E080808080808080E00507070600008085
:102280004040201010080309090601FFE02020202B
:1022900020202020E00503030600052050880501CA
:1022A000010600FEF8030303060105804020050532
:1022B000050600007008788878050707060000808A
:1022C00080F0888888F00505050600007080808809
:1022D00070050707060000080878888888780505D3
:1022E000050600007088F0807005070706000030C2
:1022F0004840E04040400507070600FE7088888897
:102300007808700507070600008080F088888888B4
:102310000307070601004000C0404040E0040909EF
:102320000601FE100030101010109060050707061F
:10233000000080808890E09088030707060100C0B5
:102340004040404040E0050505060000D0A8A8A890
:10235000A8050505060000B0C8888888050505069B
:10236000000070888888700507070600FEF08888DE
:1023700088F080800507070600FE7888888878083E
:1023800008050505060000B0C88080800505050623
:10239000000078807008F00507070600002020F88C
:1023A0002020201805050506000088888898680503
:1023B00005050600008888885020050505060000F0
:1023C0008888A8A850050505060000885020508878
:1023D0000507070600FE888888502040800505050F
:1023E000060000F8102040F80309090601FF20400C
:1023F000404080404040200109090602FF80808063
:102400008080808080800309090601FF8040404071
:10241000204040408005030306000248A890FFFFCB
:10242000FFFFFFFFFFFFFFFFFFFFFFFFFFFFFFFFBC
:10243000FFFFFFFFFFFFFFFFFFFFFFFFFFFFFF00AB
:1024400000000605FF01070706020080008080806B
:1024500080800507070600FF2070A8A0A87020054F
:102460000707060000304840E04048B00505050673
:102470000000A8508850A80507070600008850F8FB
:1024800020F820200107070602008080800080805D
:102490008004080806010070806090906010E003DE
:1024A0000101060107A00607070600007884B4A40E
:1024B000B4847803050506010460A06000E005050A
:1024C000050600002850A05028050303060001F867
:1024D0000808030101060103E0060707060000786B
:1024E00084B4A4A48478050101060007F804040458
:1024F000060105609090600507070600002020F89F
:10250000202000F803050506010440A02040E00358
:102510000505060104C0204020C003030306010591
:102520002040800507070600FE88888898E880809C
:1025300005080806000078E8E8E86828282802026C
:1025400002060203C0C00302020601FE20C003050A
:102550000506010440C04040E003050506010540B2
:10256000A04000E0050505060000A0502850A00589
:102570000A0A06000040C048506050B0507810056C
:102580000A0A06000040C048506050A808103805EC
:102590000A0A060000C0204830E050B0507810050C
:1025A000070706000020002020408870050A0A0660
:1025B0000000402000708888F8888888050A0A068C
:1025C0000000102000708888F8888888050A0A06AC
:1025D0000000205000708888F8888888050A0A065C
:1025E000000068B000708888F888888805090906A6
:1025F00000005000708888F8888888050A0A06005C
:1026000000205020708888F8888888050707060011
:102610000078A0A0F0A0A0B80509090600FE708807
:1026200080808088701060050A0A06000040200043
:10263000F88080F08080F8050A0A0600001020006B
:10264000F88080F08080F8050A0A0600002050001B
:10265000F88080F08080F80509090600005000F835
:102660008080F08080F8030A0A060100804000E0C4
:102670004040404040E0030A0A060100204000E0DC
:102680004040404040E0030A0A06010040A000E04C
:102690004040404040E0030909060100A000E0403E
:1026A00040404040E0050707060000704848E84801
:1026B0004870050A0A06000068B0008888C8A89813
:1026C0008888050A0A0600004020007088888888EB
:1026D0008870050A0A060000102000708888888823
:1026E0008870050A0A0600002050007088888888D3
:1026F0008870050A0A06000068B00070888888881B
:10270000887005090906000050007088888888884C
:102710007005050506000188502050880509090646
:1027200000FF087098A8A8A8C87080050A0A0600CB
:102730000040200088888888888870050A0A06007A
:102740000010200088888888888870050A0A06009A
:10275000002050008888888888887005090906004C
:1027600000500088888888888870050A0A0600005A
:102770001020008888502020202004070706010030
:1027800080E0909090E08005070706000070889038
:10279000A09088B005080806000040200070087866
:1027A00088780508080600001020007008788878EE
:1027B0000508080600002050007008788878050891
:1027C0000806000068B000700878887805070706DA
:1027D000000050007008788878050808060000207E
:1027E000502070087888780505050600007028706C
:1027F000A0780507070600FE7088808870106005C5
:1028000008080600004020007088F0807005080865
:102810000600001020007088F0807005080806008F
:10282000002050007088F0807005070706000050F7
:10283000007088F08070030808060100804000C026
:10284000404040E0030808060100204000C040402E
:1028500040E003080806010040A000C0404040E0FE
:10286000030707060100A000C0404040E005090939
:1028700006000050205008788888887005080806EF
:10288000000068B000B0C888888805080806000005
:102890004020007088888870050808060000102015
:1028A00000708888887005080806000020500070B5
:1028B0008888887005080806000068B0007088885D
:1028C000887005070706000050007088888870052A
:1028D00005050600012000F800200505050600009A
:1028E0007898A8C8F00508080600004020008888ED
:1028F00088887005080806000010200088888888ED
:102900007005080806000020500088888888700537
:10291000070706000050008888888870050A0A06A4
:1029200000FE102000888888502040800509090694
:1029300000FE8080F0888888F08080050909060004
:10294000FE5000888888502040804572723A2045A9
:102950004550524F4D20436F72727570740045722E
:10296000723A20454550524F4D2043524300457224
:10297000723A20454550524F4D2053697A650045C3
:1029800072723A20454550524F4D20566572736918
:102990006F6E006F70656E0054524947474552454F
:1029A00044003A200066696C616D656E74007A5F60
:1029B0006D696E00795F6D696E00785F6D696E009C
:1029C0005265706F7274696E6720656E6473746FA0
:1029D00070207374617475730A0000007A430000FC
:1029E000964300003E43000000000000000000008D
:1029F000000020746F6F206C6F6E672065787472B2
:102A00007573696F6E2070726576656E7465640AA1
:102A10000020636F6C6420657874727573696F6EE3
:102A20002070726576656E7465640A00446F6DC5CA
:102A3000AF202573207072766EC3AD00486F6D6550
:102A400020257320466972737400000000000000A6
:102A50000000000000005761726E696E673A2048FE
:102A60006F6D696E672042756D7020446976697379
:102A70006F72203C20310A0002020400007A4300F9
:102A800000964300003E430000A0400000A040002C
:102A9000000040DB0FC93F45BCDA3F8FB30240FC6A
:102AA000F0274056946140FE4B9B4084A5D840E0FF
:102AB000231841346A5641E859974164DBD5416E89
:102AC000271742B4B75542CE1A9742C8AED542B581
:102AD000885A43D40684BFA65FA7BF7443E0BF10E3
:102AE000B11AC01C2C58C0E8F697C0B849D6C04EE1
:102AF0004E17C124D355C1802497C1A0B5D5C112AA
:102B00001A17C244AE55C2781797C26CACD5C267CB
:102B1000885AC320746F6F206C6F6E67206578745D
:102B2000727573696F6E2070726576656E74656418
:102B30000A0020636F6C6420657874727573696F26
:102B40006E2070726576656E7465640A005A415332
:102B5000544156454E4F2E20005072696E74657276
:102B60002073746F707065642064756520746F20C5
:102B70006572726F72732E204669782074686520C2
:102B80006572726F7220616E6420757365204D39B5
:102B9000393920746F20726573746172742E202825
:102BA00054656D7065726174757265206973207209
:102BB000657365742E205365742069742061667492
:102BC00065722072657374617274696E67290A0098
:102BD000206572726F72202D207265737461727439
:102BE0002077697468204D3939390A00424C546F96
:102BF0007563680021212053544F502063616C6C31
:102C000065642062656361757365206F662000539B
:102C1000657474696E67732053746F7265640029FC
:102C20000A002062797465733B206372632000534D
:102C3000657474696E67732053746F7265642028BD
:102C40000048617264636F64656420446566617501
:102C50006C742053657474696E6773204C6F616483
:102C600065640020286D6D2900203B204C65766549
:102C70006C696E67200020204D34323020530041B3
:102C800075746F20426564204C6576656C696E676B
:102C90000020460020420020480020204D313435DD
:102CA0002053004D6174657269616C2068656174C0
:102CB000757020706172616D657465727300205467
:102CC0003120450020543020450020493100537404
:102CD00065707065722064726976657220637572C2
:102CE00072656E740054312045005430204500490F
:102CF00031002058004472697665722073746570E3
:102D000070696E67206D6F646500203B2053656EAF
:102D1000736F72200020440020204D343132205344
:102D20000046696C616D656E742072756E6F7574A6
:102D30002073656E736F7200204A0020204732397D
:102D4000205720490020204D3134392043203B209A
:102D5000556E69747320696E2043656C7369757371
:102D60000A0054656D706572617475726520556EE8
:102D7000697473002020473231203B004C696E6536
:102D8000617220556E69747300454550524F4D2055
:102D90006461746173697A65206572726F722E0A5C
:102DA00000202863616C63756C6174656429210A75
:102DB0000020213D2000454550524F4D20435243B5
:102DC000206D69736D61746368202D202873746FA2
:102DD000726564292000454550524F4D20436F7263
:102DE000727570740A002053697A653A2000496E42
:102DF0006465783A2000290A002062797465733B83
:102E00002063726320002073746F726564207365A1
:102E10007474696E6773207265747269657665642F
:102E2000202800000048420000484200008841007D
:102E300000A0400000A2420000A2420000CA4300DD
:102E400000CB43E8030000E803000064000000E852
:102E5000030000204D61726C696E3D563838290AB6
:102E600000454550524F4D2076657273696F6E2054
:102E70006D69736D617463682028454550524F4DEC
:102E80003D0020436F756E7420583A0000004532B3
:102E900000453100506F646C6FC5BE6B61004B6FB5
:102EA0006D6F7261004500626564006368616D6208
:102EB0006572002C2073797374656D2073746F7064
:102EC00070656421204865617465725F49443A20E9
:102ED000005659534F4BC381205445504C4F5441D9
:102EE000004D415854454D502074726967676572B2
:102EF0006564004368796261207A6168C599C3ADF1
:102F000076C3A16EC3AD0048656174696E672066C3
:102F100061696C65640070012C0190012701B001AA
:102F20002201C0011D01F00118011002130130023D
:102F30000E016002090190020401C002FF000003BB
:102F4000FA004003F5008003F000D003EB002004FA
:102F5000E6007004E100E004DC004005D700C00595
:102F6000D2004006CD00D006C8008007C30030085C
:102F7000BE00F008B900C009B400B00AAF00B00B41
:102F8000AA00D00CA500000EA000500F9B00C0109E
:102F900096005012910000148C00C0158700B017E5
:102FA0008200B0197D00D01B7800001E7300402005
:102FB0006E0090226900F024640040275F00902991
:102FC0005A00E02B5500102E500020304B001032DC
:102FD0004600E033410090353C0010373700703830
:102FE0003200A0392D00B03A2800A03B2300603CFD
:102FF0001E00103D1900903D1400103E0F00703E61
:103000000A00C03E0500003F0000403FFBFF803F3C
:10301000F6FFC03FF1FF4EC38D5A4B41205445503F
:103020004C4F5441004D494E54454D5020747269E7
:10303000676765726564005445504C4F544EC38DAC
:1030400020C39A4E494B00546865726D616C2052E2
:10305000756E6177617900202F0020400020434089
:103060003A002042403A0020403A0020573A0049B6
:103070006E76616C69642065787472756465720A35
:103080000041637469766520457874727564657271
:103090003A20007C3C3E5E2B3D3F2F5B5D3B2C2A63
:1030A000225C004D6564696120496E697420466147
:1030B000696C0053442063617264206F6B0A006F77
:1030C00070656E526F6F74206661696C65640A008A
:1030D000766F6C756D652E696E6974206661696CBA
:1030E00065640A004E6F20534420636172640A00D5
:1030F000534420636172642072656C65617365641A
:103100000A000A4D3234004D3233202573002E0A56
:10311000006F70656E206661696C65642C2046697D
:103120006C653A200046696C652073656C65637454
:1031300065640A002053697A653A200046696C6527
:10314000206F70656E65643A2000454E44205355EB
:1031500042524F5554494E450A002220706F730069
:103160002220706172656E743A2200535542524FAC
:103170005554494E452043414C4C2074617267655B
:10318000743A220053756263616C6C204F766572ED
:10319000666C6F77004578636565646564206D6172
:1031A0007820535542524F5554494E45206465701E
:1031B00074683A0057726974696E6720746F20668C
:1031C000696C653A2000565953554E5554C38D20AD
:1031D00046494C414D454E5455005A41564544458B
:1031E0004EC38D2046494C414D454E54550056C363
:1031F0009D4DC49A4E412046494C414D454E545533
:103200000041425300504C410063616E63656C00A5
:103210005469736B207A7275C5A1656E004D3235A5
:103220000050617573696E672E2E2E00726573757E
:103230006D65004D3234003F0049676E6F72650066
:10324000526573657400496E69632E20454550527E
:103250004F4D005A206F667365740044C3A96C6BB0
:1032600061206D6D2073656E7A2E66696C2E005A32
:103270006176C3A973742066696C616D656E742094
:103280002A005A6176C3A97374206D6D0056797354
:10329000756E6F75742066696C616D656E74202A39
:1032A00000567973756E6F7574206D6D0046696C8C
:1032B0002E205072756D2E202A0046696C2E2050EB
:1032C00072756D2E0045206E61206D6DC2B30020B9
:1032D000082066616B74002008206D61780020086A
:1032E000206D696E00567970005A617000417574E6
:1032F0006F7465706C6F7461005654726176204D06
:10330000696E00566D696E004D61782040205279DB
:1033100063686C6F7374004D6178204520416B6366
:10332000656C004D6178204020416B63656C004105
:103330002D70C599656A657A6400412D7265747255
:10334000616B74005A727963686C00456E61626CDF
:103350006520402073686170696E67004020646179
:103360006D70696E670040206672657175656E6389
:10337000790044697361626C6520402073686170F4
:10338000696E67005A206F667365740050726F62D1
:10339000652059204F66667365740050726F6265D0
:1033A0002058204F66667365740040206B726F6B07
:1033B000C5AF2F6D6D0044616CC5A1C3AD206E61BA
:1033C00073746176656EC3AD003F005A7275C5A116
:1033D000697400496E696369616C697A616365004B
:1033E0004D34323800496E69632E20454550524FA6
:1033F0004D0046696C616D656E74005465706C6F4C
:10340000746100544D432062756469C48D65004B3E
:10341000726F6BC5AF2F6D6D0050726F6265204F7C
:10342000666673657473004F646368796C6B6120C2
:1034300073706F6A6500496E7075742053686170AF
:10344000696E6700416B63656C6572616365004D11
:10345000617820527963686C6F7374004E61737485
:1034600061766974206F6673657479004B6F6E6660
:1034700069677572616365005A64766968205A00ED
:10348000322E20747279736B61204000535720767E
:10349000C3BD73756E20424C546F75636800424C17
:1034A000546F756368207A6173756E6F757400422E
:1034B0004C546F75636820767973756E6F75740000
:1034C000424C546F7563682073656C662D74657328
:1034D0007400424C546F75636820726573657400A4
:1034E000506F646C6FC5BE6B6100547279736B6111
:1034F00000527963686C6F73742076656E742E0069
:103500004B6F6E6669677572616365004D3230336B
:1035100020583530205935300A446F6E6521004DF2
:10352000323033205831303020593130300A446F36
:103530006E6521004E6F726D616C207370656564FD
:1035400000536C6F77207370656564004F626E6F17
:103550007669742076C3BD63686F7AC3AD004E612F
:10356000C48DC3AD7374206E6173746176656EC370
:10357000AD00556C6FC5BE6974206E617374617661
:10358000656EC3AD005A6168C599C3A1742024203B
:103590006E61737400567970005A61700053656EE5
:1035A0007A6F722066696C616D656E74750056C3C2
:1035B000BD6DC49B6E61206EC3A17374726F6A652A
:1035C00000424C546F756368004F667365747920D0
:1035D0006EC3A17374726F6AC5AF005A206F6673B1
:1035E00065740044616CC5A1C3AD206E61737461E4
:1035F00076656EC3AD0055736572206D656E75009E
:10360000486C61766EC3AD206E6162C3AD646B6160
:10361000004D37303220542564004D363030204282
:103620003020542564004D373032203B2564004D56
:10363000373031205425640056796DC49B6E69740F
:103640002066696C616D656E7400567973756E6F76
:1036500075742066696C616D656E74005A6176C31D
:10366000A973742066696C616D656E74005A616837
:10367000C599C3A17420766C6173746EC3AD005A92
:103680006168C599C3A1742024005A70C49B74005A
:10369000567973756E6F75742066696C616D656EB1
:1036A00074202A005A6176C3A973742066696C611C
:1036B0006D656E74202A0056796DC49B6E69742006
:1036C00066696C616D656E74202A00486C61766E67
:1036D000C3AD206E6162C3AD646B61004F626E6FFB
:1036E000766974207469736B00567970005A617042
:1036F0000053656E7A6F722066696C616D656E74D9
:1037000075005679746C61C48D69742076C3AD639D
:10371000004D4FC5BD4E4F535449204F424E4F565A
:10372000454EC38D3A005449534B20504F5A415394
:10373000544156454E002F002000202054727973CA
:103740006B613A20005061726B6F76C3A16EC3AD9E
:103750002E2E2E000000C48C656B656A7465207087
:10376000726F73C3AD6D006E61207A6168C3A16A28
:10377000656EC3AD0076C3BD6DC49B6E792066696E
:103780006C616D656E747500C48C656B656A74657B
:103790002070726F73C3AD6D006E612076797375A2
:1037A0006E7574690066696C616D656E747500C4D0
:1037B0008C656B656A74652070726F73C3AD6D0044
:1037C0006E61206E6168C599C3A174C3AD20747227
:1037D0002E00004B6C696B6EC49B74652070726F19
:1037E000006E6168C599C3A174C3AD20747279730A
:1037F0006B790000566C6FC5BE74652066696C619C
:103800006D656E74006120737469736B6EC49B7414
:103810006500746C61C48DC3AD746B6F2E2E2E0069
:10382000C48C656B656A74652070726F73C3AD6D0F
:10383000006E61207A61766564656EC3AD0066696D
:103840006C616D656E7475005374696B6EC49B74A6
:103850006520746C61C48DC3AD746B6F0070726F42
:10386000206F626E6F76656EC3AD207469736B7581
:103870000000C48C656B656A74652070726F73C3D9
:10388000AD6D006E6120706F6B7261C48D6F76C319
:10389000A16EC3AD007469736B75005679C48D6BEE
:1038A000656A7465206E61007679746C61C48D659B
:1038B0006EC3AD00004D37303220542569004D37BE
:1038C000303120542569004D3630302042302054AC
:1038D0002569003E2000256C642E25696D00436536
:1038E0006C6B656D207679746C61C48D656E6F004C
:1038F0003E20004E656A64656CC5A1C3AD20746945
:10390000736B003E200043656C6B6F76C3BD20C4B3
:103910008D617300446F6B6F6EC48D656E6F003A7E
:103920002000506FC48D6574207469736BC5AF003F
:103930003A200039300035004348414D3A20415487
:10394000432031303447542D3200313530003500BA
:103950004245443A204550434F53203130304B00CC
:1039600032383500350045323A2041544320313059
:103970003447542D3200536C65646F76C3A16EC317
:10398000AD20C3BA6E696B753A205A415000546538
:10399000706C6F7461206D61780032383500546549
:1039A000706C6F7461206D696E00350045313A208E
:1039B0004154432031303447542D32004E61702E33
:1039C000207A64726F6A0047656E657269630050A1
:1039D000726F746F6B6F6C00312E300052796368B8
:1039E0006C6F7374003131353230300052756D6256
:1039F000610042696C696E65C3A1726EC3AD2072CD
:103A00006F766EC3A16EC3AD00457874727564C3E2
:103A1000A972790032006D61726C696E66772E6FE3
:103A200072670052756D626100323032332D30356D
:103A30002D313600322E312E322E31004D61726C16
:103A4000696E0053746174697374696B61005465C5
:103A5000726D6973746F727900496E666F206F20A2
:103A6000646573636500496E666F206F20746973C7
:103A70006BC3A1726EC49B00486C61766EC3AD20AF
:103A80006E6162C3AD646B61003F005A70C49B7489
:103A90000053746F700056796DC49B6E6974206614
:103AA000696C616D656E7400C5BDC3A1646EC3A110
:103AB000205344206B61727461005469736B6E6FA4
:103AC0007574207A2053440056796DC49B6E6974D6
:103AD000206DC3A96469756D004D3231004F2074AB
:103AE00069736BC3A1726EC49B004B6F6E6669678E
:103AF0007572616365005465706C6F746100506F1E
:103B0000687962004F626E6F766974207469736BB6
:103B100000446F6C6164C49B6EC3AD207469736BA9
:103B200075005A61737461766974207469736B00EF
:103B3000506F7A61737461766974207469736B0075
:103B4000496E666F206F6272617A6F766B61003FBB
:103B50000053707573746974207469736B005A72C2
:103B600075C5A16974005469736B0043616E6E6F13
:103B70007420656E746572207375626469723A2090
:103B80000002202E2E00486C61766EC3AD206E615F
:103B900062C3AD646B6100506F73756E6F75742096
:103BA0006F20246D6D00302E30323500506F7375EC
:103BB0006E6F7574206F20302C316D6D00506F73F7
:103BC000756E6F7574206F20316D6D00506F737559
:103BD0006E6F7574206F2031306D6D002100486F5D
:103BE00074656E64206A652073747564656EC3BD08
:103BF000005A70C49B7400506F6B7261C48D6F76F5
:103C0000617400457874727564C3A972202A0045F6
:103C10007874727564C3A97200506F73756E6F7596
:103C200074204000506F6879620055766F6C6E6941
:103C300074206D6F746F7279004D38340056C3BDB7
:103C4000C5A16B612073726F766EC3A176C3A16E3E
:103C5000C3AD00567970005A6170005679726F7664
:103C60006E617420706F646C6FC5BE6B75005679A1
:103C7000726F766E617420706F646C6FC5BE6B7509
:103C8000004732394E005A6173756E6F7574205A51
:103C90002D736F6E6475004D343032005679737534
:103CA0006E6F7574205A2D736F6E6475004D3430CD
:103CB00031004732385A004732385900486F6D6535
:103CC0002040004732385800446F6D6F76736BC3E5
:103CD000A120706F7A6963650047323800506F73B6
:103CE000756E6F7574206F737900486C61766EC362
:103CF000AD206E6162C3AD646B61005A6168C599A5
:103D0000C3A174202420706F646C6FC5BE005A611B
:103D100068C599C3A17420242076C5A165005A61A5
:103D200068C599C3A174202420656E64207E005A62
:103D30006168C599C3A1742024207E005465706C0D
:103D40006F746100053201325A63686C6164697492
:103D5000005A6168C599C3A1742024005279636830
:103D60006C6F73742076656E742E207E004B6F6DC1
:103D70006F726100506F646C6FC5BE6B61005472EE
:103D800079736B61207E00486C61766EC3AD206EE6
:103D90006162C3AD646B6100453200453100593248
:103DA000005A00590058004532004531005A005968
:103DB00032005900567970005A6170005800544D15
:103DC000432062756469C48D6500537465616C74C9
:103DD0006843686F7020706F766F6C656E00526517
:103DE000C5BE696D206B726F6BC5AF0050726F7589
:103DF000642062756469C48DC5AF0044616CC5A15F
:103E0000C3AD206E6173746176656EC3AD005A20D8
:103E10006F66736574005072C5AF746F6B207E005F
:103E20005072C5AF746F6B00527963686C6F7374B6
:103E30002076656E742E207E00506F646C6FC5BE58
:103E40006B6100547279736B61207E0052796368F4
:103E50006C6F737400486C61766EC3AD206E6162E6
:103E6000C3AD646B6100667265736800646F696EF0
:103E700067002066696C653A20004E6F7720002F3E
:103E80006175746F25632E670000002000230026F3
:103E90000029002C002F0032000001000003010661
:103EA0000109016D61726C696E66772E6F72670031
:103EB000322E312E322E31001FFFFFFFFFFFFF6039
:103EC0000000000001FF400000000000FF80000033
:103ED0000000007F83CF00000C303F87FF80000C84
:103EE000301F867980000C000F8C30C7838C30E740
:103EF0008C30CFC7CC31F38C30DCECEC33B98C3068
:103F0000D86C6C33198C30D06C0C33198C30D86C65
:103F10000C33198C30DC6C0E3B198C30CF7C079F36
:103F2000198C30C77C038F1940000000000002602C
:103F30000000000000061FFFFFFFFFFFF81000C990
:103F40000210012C014001220170011801B0010E84
:103F500001F00104015002FA00B002F0003003E663
:103F600000D003DC009004D2007005C800A006BE9B
:103F7000000008B400B009AA00D00BA000600E96A3
:103F80000060118C000015820020197800C01D6EA1
:103F900000A0226400B0275A00902C500000314647
:103FA00000E0343C0010383200903A2800603C1E9B
:103FB00000A03D1400803E0A00203F000020205059
:103FC0006C616E6E65724275666665724279746583
:103FD000733A20002046726565204D656D6F7279D9
:103FE0003A200020436F6D70696C65643A20446527
:103FF0006320203320323032330A00204C61737446
:1040000020557064617465643A20323032332D304B
:10401000352D3136207C20417574686F723A2053FB
:10402000504D0A004D61726C696E20322E312E3275
:104030002E310A0020536F667477617265205265D5
:104040007365740A00205761746368646F67205257
:10405000657365740A002042726F776E206F757405
:104060002052657365740A002045787465726E612C
:104070006C2052657365740A00506F7765725570D5
:104080000A0073746172740A004732385859004D3F
:1040900031303031006F6B006572726F7220777251
:1040A0006974696E6720746F2066696C650A0044E4
:1040B0006F6E6520736176696E672066696C652E28
:1040C0000A004D323900456E6473746F70790025B3
:1040D0005320256320256320256320256300205A73
:1040E0003A0020593A0020583A00656E6473746FA4
:1040F0007073206869743A200000002100240027B2
:10410000002A002D003000330001010000040107E7
:10411000010A0100002200250028002B002E00319A
:1041200000340002010000050108010B010505052E
:1041300005070508080808020202020A0A0808041E
:10414000040404010101010101010103030303034C
:10415000030303040707070C0C0C0C0C0C0C0C02DB
:1041600002020206060606060606060B0B0B0B0BE2
:104170000B0B0B01021020200808102040102040DB
:10418000800201020108040201010204081020401B
:104190008080402010080402018004020180402039
:1041A0001008040201080402010102040810204062
:1041B00080010204081020408000000A0B02090C54
:1041C0000D0E0807030401000000000000000000BD
:1041D00000000000000000000000000000000000DF
:1041E000000000000012111000000000000000009C
:1041F000000000000000000000000000000000249B
:10420000F404D9201BC40C5C0E9804C4095F026539
:10421000077101F405F900FB04B30048048700C1ED
:104220000369005803550003034500BE023A0084A9
:1042300002310053022A002902250004022000E472
:10424000011C00C8011900AF011700980114008477
:10425000011300710110006101100051010E0043B3
:10426000010D0036010B002B010B0020010B001586
:104270000109000C01090003010800FB000800F31C
:10428000000800EB000700E4000600DE000600D88E
:10429000000600D2000600CC000500C7000500C2E1
:1042A000000500BD000400B9000400B5000400B121
:1042B000000400AD000400A9000400A5000300A252
:1042C0000003009F0004009B00030098000300957A
:1042D00000020093000300900003008D0002008B99
:1042E00000030088000200860002008400030081B1
:1042F0000002007F0002007D0002007B00020079C6
:1043000000020077000100760002007400020072D3
:10431000000100710002006F0002006D0001006CDE
:104320000002006A000100690002006700010066E7
:1043300000010065000100640002006200010061EC
:10434000000100600001005F0002005D0001005CF0
:104350000001005B0001005A0001005900010058F3
:1043600000010057000100560001005500010054F3
:1043700000010053000000530001005200010051F1
:10438000000100500001004F0001004E0000004EEF
:104390000001004D0001004C0001004B0000004BEB
:1043A0000001004A000100490001004800000048E7
:1043B00000010047000100460000004600010045E2
:1043C00000000045000100440001004300000043DC
:1043D00000010042000000420001004100000041D5
:1043E000000100400001003F0000003F0001003ECE
:1043F0000000003E0001003D0000003D0001003CC7
:104400000000003C0000003C0001003B0000003BBD
:104410000001003A0000003A0001003900000039B4
:1044200000010038000000380000003800010037AB
:1044300000000037000100360000003600000036A2
:104440000001003500000035000000350001003497
:10445000000000340000003400010033000000338D
:104460000000003300010032000000320000003282
:104470000001003100000031000000310001003077
:1044800000000030000000300001002F0000002F6D
:104490000000002F0000002F0001002E0000002E61
:1044A0000000002E0001002D0000002D0000002D56
:1044B0000000002D0001002C0000002C0000002C4A
:1044C0000000002C0001002B0000002B0000002B3E
:1044D0000000002B0001002A0000002A0000002A32
:1044E0000000002A00010029000000290000002926
:1044F0000000002900000029000100280000002819
:10450000000000280000002800000028000100270B
:1045100000000027000000270000002700000027FF
:1045200000010026000000260000002600000026F2
:1045300000000026000100250000002500000025E5
:1045400000000025000000250000002500010024D7
:1045500000000024000000240000002400000024CB
:1045600000010023000000230000002300000023BE
:1045700000000023000000230000002300010022AF
:1045800000000022000000220000002200000022A3
:104590000000002200010021000000210000002195
:1045A0000000002100000021000000210000002187
:1045B000000100200000002000000020000000207A
:1045C000000000200000002000000020000000206B
:1045D0000001001F0000001F0000001F0000001F5E
:1045E0000000001F0000001F0000001F0001001E4F
:1045F0000000001E0000001E0000001E000000243D
:10460000F4D43050C38E20C2A24017828B70111296
:104610007A910D816CD90AA861E108C758660761D3
:104620005143061E4B5D05C145A7041A41110409FB
:104630003D9803713931034036DB0265339102D472
:10464000305402802E1D02632CEE01752AC501B084
:1046500028A001102781018F2564012B244B01E044
:10466000223401AC211F018D200D01801FFC00842C
:104670001EED00971DDF00B81CD200E61BC600200F
:104680001BBC00641AB200B219A8000A19A0006A83
:10469000189900D117910040178B00B5168400318E
:1046A000167E00B31579003A157300C7146F0058D1
:1046B000146A00EE1366008813630025135E00C7BA
:1046C000125B006C12570015125400C1115100709A
:1046D000114F0021114B00D61049008D10470046A4
:1046E00010440002104200C00F4000800F3E004204
:1046F0000F3C00060F3B00CB0E3800930E37005CDA
:104700000E3500270E3400F30D3200C10D3100903C
:104710000D3000600D2E00320D2D00050D2C00D93E
:104720000C2B00AE0C2900850C29005C0C270035F1
:104730000C27000E0C2600E80B2400C40B2400A05C
:104740000B23007D0B23005A0B2100390B2100188D
:104750000B2000F80A1F00D90A1E00BB0A1E009D8C
:104760000A1D00800A1D00630A1C00470A1B002C5A
:104770000A1B00110A1A00F7091A00DD091900C402
:10478000091900AB091900920917007B0918006389
:104790000917004C09160036091600200916000AF0
:1047A000091500F5081500E0081400CC081400B83D
:1047B000081400A4081400900813007D0812006B70
:1047C000081300580812004608120034081100238C
:1047D0000811001208110001081100F0071000E094
:1047E000071000D0071000C0071000B0070F00A18D
:1047F00007100091070E0083070F0074070F006574
:10480000070E0057070E0049070E003B070D002E4C
:10481000070E0020070D0013070D0006070D00F915
:10482000060C00ED060D00E0060C00D4060C00C8D6
:10483000060C00BC060C00B0060C00A4060B009988
:10484000060C008D060B0082060B0077060B006C31
:10485000060B0061060A0057060B004C060A0042D0
:10486000060A0038060A002E060A0024060A001A64
:10487000060A001006090007060A00FD050900F4F3
:10488000050900EB050900E2050900D9050900D07A
:10489000050900C7050900BE050900B5050800ADFA
:1048A000050800A50509009C050800940508008C72
:1048B000050800840508007C050800740508006CE4
:1048C000050700650508005D050700560508004E50
:1048D00005070047050700400508003805070031B7
:1048E0000507002A050700230507001C050600161A
:1048F0000507000F0507000805060002050700FB75
:10490000040600F5040700EE040600E8040600E2D1
:10491000040700DB040600D5040600CF040600C926
:10492000040600C3040600BD040600B7040600B177
:10493000040500AC040600A6040600A00405009BC4
:1049400004060095040500900406008A040500850D
:10495000040500800406007A040500750405007053
:104960000405006B04050066040500610405005C95
:1049700004050057040500520405004D04050048D5
:10498000040500430405003E0404003A0405003514
:10499000040500300404002C04050027040400234F
:1049A0000405001E0404001A040400160405001186
:1049B0000404000D040400090405000404040000BC
:1049C000040400FC030400F8030400F4030400F0F2
:1049D000030400EC030400E8030400E4030400E023
:1049E000030400DC030400D8030400D4030400D053
:1049F000030400CC030400C8030300C5030300DB69
:104A00002100004D190000D1100000110A0000948F
:104A1000050000F302000084010000C50000002032
:104A200000200020005061726B6F76C3A16EC3AD91
:104A30002073656C68616C6F00FFFFFF50726F62DE
:104A4000696E67204661696C65640A004B616C6938
:104A500062726163652073656C68616C6100205AE5
:104A60003A200020593A200042656420583A20003C
:104A700043616E6E6F74206F70656E207375626433
:104A800069722000496E736572742066696C616D8D
:104A9000656E7420616E6420707265737320627538
:104AA00074746F6E0A00496E736572742066696C67
:104AB000616D656E7420616E642070726573732021
:104AC000627574746F6E0A00220A00556E6B6E6F09
:104AD000776E20636F6D6D616E643A202200204511
:104AE00000205A0020590020204D39322058005310
:104AF000746570732070657220756E69740020454E
:104B00003A00205A3A0020593A00583A006F6B0A8E
:104B100000526573656E643A200052756D626120C3
:104B200070C5996970726176656E2E005469736BF9
:104B30006E752E2E2E005469736B20706F7A617320
:104B4000746176656E00AC00E80011241FBECFEFE3
:104B5000D1E2DEBFCDBF00E00CBF84B78093761AF0
:104B600014BE0FB6F894A895809160008861809378
:104B70006000109260000FBE14E0A0E0B2E0E0ED33
:104B8000F7E003E00BBF02C007900D92A630B1071B
:104B9000D9F72AE1A6E0B4E001C01D92A637B2071A
:104BA000E1F715E2C4EAD5E200E006C02197010969
:104BB000802FFE010F946E80C33AD10780E0080772
:104BC000A9F70F94436E0D94D7830C940000FC0159
:104BD000A081B1811C92A281B3818C918F5F8C9353
:104BE0000280F381E02D90818CE0989F800D11244C
:104BF000E2E0F8E113AE84AF0895FC0184910895DA
:104C0000FC0180810895009751F0FC0180E09191B2
:104C1000992331F0907C9038D1F38F5FF8CF80E00A
:104C200008955B9800C090910B0187FD9095907856
:104C3000909309015B9A00C000C05B9800C09091FE
:104C40000B0186FD90959078909309015B9A00C0C6
:104C500000C05B9800C090910B0185FD9095907805
:104C6000909309015B9A00C000C05B9800C09091CE
:104C70000B0184FD90959078909309015B9A00C098
:104C800000C05B9800C090910B0183FD90959078D7
:104C9000909309015B9A00C000C05B9800C090919E
:104CA0000B0182FD90959078909309015B9A00C06A
:104CB00000C05B9800C090910B0181FD90959078A9
:104CC000909309015B9A00C000C05B9800C080917E
:104CD0000B018078809309015B9A00C000C00895A1
:104CE00090E080E00895CF93DF93C0912607D091A4
:104CF000270781E0CE31D105E4F020E030E040E04C
:104D00005FE36091220770912307809124079091BF
:104D100025070F9499800F94DD816C1B7D0B77FF25
:104D200003C071956195710981E0633071050CF0E4
:104D300080E0DF91CF910895CF93DF93DB01F901FC
:104D40009C919130C1F0943080F094509C938830C5
:104D5000D1F480819181009771F0019791838083D4
:104D6000480F591FEA01188206C08C3539F49C5F40
:104D70009C93943041F4DF91CF9108958B3339F7B0
:104D800081E08C93F8CF20813181B9016F5F7F4F33
:104D900071836083420F531FEA0188838081918170
:104DA0008F3591056CF7E7CF0F931F9381E000914A
:104DB000591910915A1920915B1930915C19409141
:104DC0005519509156196091571970915819041737
:104DD00015072607370708F480E01F910F91089503
:104DE00090E080E0089520918A05833021F425FD2C
:104DF0000CC024FD0CC030E0A90102C055954795B8
:104E00008A95E2F7CA018170089581E0089580E0F3
:104E100008958091AA0584FD0BC08091AC0587FDA3
:104E200007C09091AD05937081E019F480E008957A
:104E300081E008952FEB280F2A3108F047C0E22FB8
:104E4000F0E08091AA059091AB05A091AC05B091DE
:104E5000AD0504C0B695A795979587952A95D2F785
:104E600080FD02C081700895E557FA4FE081EE237E
:104E700041F18091C70A9091C80AE80FF92FF11DFE
:104E8000808190ED980F9A3030F08E3251F481810C
:104E900080538A3098F4F0938705E093860581E08B
:104EA00008958D3211F08B3249F4818190ED980F85
:104EB0009A3088F38E3211F48281EACFF0E0E0E09C
:104EC000EACF1092870510928605E9CF80E0089519
:104ED000B1DF882341F081E020918605309187057C
:104EE000232B09F480E00895CF92DF92EF92FF9296
:104EF000CF93DF9300D01F921F92CDB7DEB7DC01B6
:104F0000ED91FC910084F185E02D1995C92EDD24E9
:104F1000EE24FF2469837A838B839C832D81C2FADC
:104F200020F9C1FA21F92D83D701C601887199278B
:104F3000AA27BB2721E0892B8A2B8B2B09F420E0A1
:104F40006D8120FB62F929813A814B815C8170E09F
:104F500080E090E00F900F900F900F900F90DF91F6
:104F6000CF91FF90EF90DF90CF9008951092B60907
:104F700080912D0290912E02A0912F02B0913002CB
:104F8000E9EDF6E080839183A283B38384839583E4
:104F9000A683B78308958F929F92AF92BF92CF92CC
:104FA000DF92EF92FF92FC01828158E5C52E52E01C
:104FB000D52EC81AD10887FDD394CC0CDD1CCC0C9F
:104FC000DD1C0D2C000CEE08FF08818178E8872E8F
:104FD000912C881A910887FD9394880C991C880C51
:104FE000991C092C000CAA08BB0880818F3FD1F1C5
:104FF00090E0FC01EE0FFF1FE80FF91FE75AF84E93
:105000008181928133E0880F991F3A95E1F7B0E0F2
:10501000A0E044E0B595A795979587954A95D1F777
:1050200002969C012F5F3F4F032E000C440B550B43
:10503000281939094A095B09A4EBB0E00F940F80E5
:10504000A7019601281939094A095B090F94F37FD2
:10505000C901FF90EF90DF90CF90BF90AF909F90ED
:105060008F90089590E080E0DCCFCF93DF93C091E4
:105070001B07D0911C07209729F1609117077091A9
:1050800018078091190790911A070F94DD816E5FC0
:105090007F4F24976C177D07ACF47093E6066093FE
:1050A000E5060F941361605A75418F4F9F4F6093CF
:1050B000E7067093E8068093E9069093EA06DF918D
:1050C000CF9108951092E7061092E8061092E90633
:1050D0001092EA06F4CFCF93DF93C0912607D091C8
:1050E0002707209729F1609122077091230780916B
:1050F0002407909125070F94DD816E5F7F4F2497E1
:105100006C177D07ACF47093EC066093EB060F947C
:105110001361605A75418F4F9F4F6093ED067093F6
:10512000EE068093EF069093F006DF91CF910895FD
:105130001092ED061092EE061092EF061092F00615
:10514000F4CFBF92CF92DF92EF92FF920F931F9313
:10515000CF93DF936B01E9014A3009F4D6C04531A2
:1051600009F081C0DB011296ED91FC911281C6819C
:10517000D7815A9A00C0000086E290E00197F0F7CC
:10518000012F0295007F20E1B22EB10E88EF49DD9C
:1051900000C0000086E290E00197F0F7103208F0BE
:1051A000A1C0812F807780683CDD802F3ADD00C070
:1051B000000086E290E00197F0F780E832DD80E0C1
:1051C00030DD00C0000086E290E00197F0F78AEF42
:1051D00028DD00C0000086E290E00197F0F77E0134
:1051E000B0E1EB0EF11C8881807F1BDD89918295F7
:1051F000807F17DDCE15DF05B1F700C0000086E225
:1052000090E00197F0F71F5F005F1B11BFCF5A9826
:10521000D6011296ED91FC9180819281980F928334
:105220002181921708F0DCC194819F5F9483938160
:10523000890F821710F08FEF820F8383458150E032
:10524000440F551F70E060E0868197810F9483833F
:1052500081E0DF91CF911F910F91FF90EF90DF9050
:10526000CF90BF900895FB0102811381423309F46E
:10527000B9C108F4C1C1463409F4AEC1473409F4D8
:10528000B6C14B3329F789812B81D80112966C91D5
:10529000129713964C91213009F4F3C1233009F091
:1052A000D4C138EF380F582F91E0431708F490E03D
:1052B00041E0531708F040E031E0561708F430E0C1
:1052C000592F542B352319F4942309F4C1CFFA80B4
:1052D00030E0F901E353FD4FD08027533D4FF901F2
:1052E000E080CCC180EE810F8068807F9ADC812FC6
:1052F0008295807F96DC00C0000086E290E00197F6
:10530000F0F780E88EDC80E85BCF529A5A98809163
:105310000A01806880930A0180910B018078809354
:105320000901539A5B9A5A9A00C0000086E290E005
:105330000197F0F788E790E0CEE9DFE0FE013197D2
:10534000F1F70197D9F788EF6CDC00C0000086E226
:1053500090E00197F0F780E264DC80E062DC00C05E
:10536000000086E290E00197F0F780E05ADC80E8E8
:1053700058DC00C0000086E290E00197F0F780E082
:1053800050DC80E14EDC00C0000086E290E0019736
:10539000F0F7CE010197F1F7CE010197F1F7CE01B9
:1053A0000197F1F7CE010197F1F7CE010197F1F7DF
:1053B000CE010197F1F7CE010197F1F7CE010197E8
:1053C000F1F7CE010197F1F7CE010197F1F7CE0188
:1053D0000197F1F7CE010197F1F7CE010197F1F7AF
:1053E000CE010197F1F72197F1F780E21ADC80E412
:1053F00018DC00C0000086E290E00197F0F780E240
:1054000010DC80E60EDC00C0000086E290E0019730
:10541000F0F7D0E0C0E08C2F8077806802DC8D2F21
:1054200000DC00C0000086E290E00197F0F780E821
:10543000F8DB80E0F6DB00C0000086E290E0019738
:10544000F0F78AEFEEDB00C0000086E290E0019703
:10545000F0F790E25B9800C080910B018078809318
:1054600009015B9A00C000C05B9800C080910B01ED
:105470008078809309015B9A00C000C05B9800C0EF
:1054800080910B018078809309015B9A00C000C075
:105490005B9800C080910B018078809309015B9A32
:1054A00000C000C05B9800C080910B0180788093A1
:1054B00009015B9A00C000C05B9800C080910B019D
:1054C0008078809309015B9A00C000C05B9800C09F
:1054D00080910B018078809309015B9A00C000C025
:1054E0005B9800C080910B018078809309015B9AE2
:1054F00000C000C05B9800C080910B018078809351
:1055000009015B9A00C000C05B9800C080910B014C
:105510008078809309015B9A00C000C05B9800C04E
:1055200080910B018078809309015B9A00C000C0D4
:105530005B9800C080910B018078809309015B9A91
:1055400000C000C05B9800C080910B018078809300
:1055500009015B9A00C000C05B9800C080910B01FC
:105560008078809309015B9A00C000C05B9800C0FE
:1055700080910B018078809309015B9A00C000C084
:105580005B9800C080910B018078809309015B9A41
:1055900000C000C000C00000E6E2F0E03197F0F784
:1055A000915009F057CF88EF3CDB00C0000086E245
:1055B00090E00197F0F7CF5FD05FC03209F02BCFBA
:1055C00080E02FDB80EC2DDB00C0000086E290E065
:1055D0000197F0F75A983CCEF8018581888338CE40
:1055E00080E037CEB901C8010F94896131CED8016E
:1055F00011968C9188832CCE443191F0473109F07B
:1056000027CE1882D80112968C911297898315960D
:105610008C91159781508A8313968C918B8318CE29
:10562000D80115964C91159750E0440F551F70E026
:1056300060E016968D919C910F948383F8011282FD
:10564000808181508383148203CE481708F400CEF2
:10565000861708F4FDCDFA80E12CD12C243070F4AB
:1056600037CEBE01C8010F948961898198819D0D53
:1056700098838E0D8983FF0C09F4EACDF7FEF6CFEF
:10568000F0CF58E0580F382F0FCEEF92FF920F93C4
:105690001F93CF93DF93EC018B017A018A859B8561
:1056A0008617970731F0888199810F94BB631B8718
:1056B0000A87B701888199810F94E05B2E813F8131
:1056C000820F932F911D9F838E8390E080E0DF9166
:1056D000CF911F910F91FF90EF9008959F92AF92FD
:1056E000BF92CF92DF92EF92FF920F931F93CF93CF
:1056F000DF93EC018B01942EA52E8A859B8586175E
:10570000970731F0888199810F94BB631B870A87C3
:1057100088859985019649F5BC800A818E81080F9C
:10572000C880D980D6015596ED91FC91C601199596
:10573000B80EE92CFA2C10E0F70121917F0121111C
:1057400027C08E819F81810F911D9F838E8390E062
:1057500080E0DF91CF911F910F91FF90EF90DF904C
:10576000CF90BF90AF909F9008950E811F81692DBB
:105770007A2D888199810F94E05B800F912F911D84
:10578000288539852817390738F681E090E0E1CF80
:105790004B2D602FC6010F941364080F180FCCCF48
:1057A000DF92EF92FF920F931F93CF93DF93EC0161
:1057B000D62E1CAD0BAD7C0184E0E80EF11CE98D0A
:1057C000FA8DC7011995412F480F2D2D602FC70164
:1057D0000F9413649BAD890F8BAF81E090E0DF9154
:1057E000CF911F910F91FF90EF90DF900895CF938D
:1057F000C091C805CC2391F14CE050E060E270E02C
:105800008AEB95E00F94838380E2C43628F08C2FD6
:1058100064E60F942E80805D8093E80590E2CA30A4
:1058200040F02AE08C2F622F0F942E800F942E8050
:10583000905D9093E9058C2F6AE00F942E80905D27
:105840009093EA0583E0E8EEF5E0AEEBB5E0019079
:105850000D928A95E1F785E28093C105CF91089575
:10586000CF938091B005811154C010923D181092D1
:105870003E1810923F1810920B1810920A181092AE
:105880000D1810920C1810920F1881E080930E18CA
:1058900082E2809310181092151810921418E9E201
:1058A000F8E127E338E18FEF81932E173F07E1F707
:1058B000C1E0C093261828EA30E030931C182093EA
:1058C0001B18C0931D1810921E1810921F1890E4F8
:1058D00090932018109221182EE731E03093381859
:1058E0002093371824E132E03093091820930818E8
:1058F00092E190932D189AE290932E1893E1909351
:105900002B1880932A18809329180F94C761C0938D
:10591000B00581E08093B20589E19CE19093D314B6
:105920008093D21489E090E09093D5148093D4149E
:10593000CF910895CF92DF92EF92FF920F931F9332
:10594000CF93DF93CDB7DEB72C970FB6F894DEBFB9
:105950000FBECDBFF0903D18E0903E182091B205EB
:1059600021111DC049ED5BE16E2D8F2D0F947E64DA
:1059700090E080E0F80EF0923D18E0923E189927F2
:105980002C960FB6F894DEBF0FBECDBFDF91CF913E
:105990001F910F91FF90EF90DF90CF900895C090EE
:1059A0000A18D0900B1826E038E13A8329832F2D6E
:1059B00030E03C832B832E2D30E03E832D831886F0
:1059C0001F827A8769871C861B860EE61BE29E0172
:1059D0002F5F3F4F4DEF55E2BC01C6010F94C14F01
:1059E000B60186E098E10F94BB638F819885C2CFA2
:1059F0003F924F925F926F927F928F929F92AF925F
:105A0000BF92CF92DF92EF92FF920F931F93CF93AB
:105A1000DF93162F072F342EFC0180809180A28007
:105A2000B380C501B40120E13EE040E050E00F94B6
:105A3000D17FF22EE32EC22FD32F8CE3482E512C90
:105A4000612C712CC501B401A30192010F94D17F87
:105A5000D62EC72ECA01B901A30192010F94D17F9E
:105A60003320C9F17F936F93CE0168E170E00F940A
:105A700047809F938F93C501B40120E831E541E051
:105A800050E00F94D17F3F932F938FE399E09F9342
:105A90008F930F931F930F94907B812F902F0F94D0
:105AA000467BEDB7FEB73A960FB6F894FEBF0FBE31
:105AB000EDBFDF91CF911F910F91FF90EF90DF909D
:105AC000CF90BF90AF909F908F907F906F905F909E
:105AD0004F903F9008952097B9F4CF92DF927F9333
